:020000040000FA
:100000000002040000000000C8020000FFFFFF0023
:10040000EFC525000EFF2D000E0188000000000042
:100410000C00070020032300010020000F0007004C
:10042000000020000000E000020032000000020096
:1004300000000000BE160200000000000040DA00CC
:100440000000FE00A06720000000E0000200320073
:10045000002020009001880000000600A102880012
:10046000800078000000EB001A003700E2804000B6
:1004700054A0B4009101BA00E280400054A0B4003E
:100480009102BA00E280400054A0B4000002EB00E8
:10049000472BDE00F507B200A6018800602CE100C2
:1004A00008003A000049EB000201E80002003900B0
:1004B0003420EC0002F0A0008301E900F9FF3E00C7
:1004C000040037006128E100010032000082EB00E7
:1004D000040007001101BA000200E000E3FF3A0047
:1004E0000000060004D0A300E20F49001C00390000
:1004F000810278003549BA000201E80002003900A3
:100500003420EC0002F0A0008301E9000F0032006B
:100510002549BA000201E800020039003420EC004D
:1005200002F0A0008301E900080032000400E000AE
:100530000600320015C9BA000201E80002003900C5
:100540003420EC0002F0A0008301E9008180E80083
:1005500054A0B4000300E000E2FF3A0000000600EF
:100560009102BA00055978008301E900F7FF3200D3
:10057000C82ADE00055978008301E900F3FF320044
:100580000400E000F1FF320011D9BA00EEFF37009D
:100590000040DA000000FE00020AB900001BB900AA
:1005A0000200B80081004200810043000000060004
:1005B0000400FA00E0BF9F00E48157008129780021
:1005C0000002EB000F0037006FB8970090407800F2
:1005D0007FB89700104078000402E80080CF5000F8
:1005E000040032008180FB000080FB00008050008E
:1005F000070037006FB897000000E800E0BF9F00D9
:100600009309E800820F5200EFFF3A000000EB0070
:100610000080FA0000000600000278008001EB0074
:1006200002003700315A78008301E800828F5100C0
:10063000FCFF3A0000000600000278008001EB0099
:1006400002003700015A78008301E800828F5100D0
:10065000FCFF3A0000000600800078003004E00053
:10066000FEFF3A00010050000000E9000000060013
:100670000C00FA00889FBE0000047800CFB09700FD
:10068000F0FF2700D0BF9F008004EB0099BF9F00C0
:1006900088BF9F00A8BF9F00200C2000B0BF9F0014
:1006A0007881570070805700080007000FB8970046
:1006B000094878000FB89700080450000800780037
:1006C0004F04BE000080FA0000000600FE874700CD
:1006D000889FBE008A9FBE008C9FBE008E1F780040
:1006E000F0B79F000107780082BF9F000000EB0079
:1006F000A0B79F009E0237008006EB0050C2B300F7
:1007000080CF5000090032000100FB00FFB09700CD
:10071000A2020700E10F400095023200AFB097003F
:100720008100E800A1B79F00910237009E40780049
:10073000D0C2B30080CF50000C00320007003C0054
:100740006D40500080CF50000A0032006B404000E6
:1007500080CF50000E003A000800370000C3B300FD
:1007600080CF50000A003A00060037000D30A0008C
:10077000050037000D00A000030037000D10A00099
:10078000010037000D20A0000E07E800E7FF37004A
:100790000D18A300010032000D00A1000D38A300C8
:1007A000010032000D20A1000100FB0002FD2F001E
:1007B00002004000E90F50000D003E008001EB00F8
:1007C000C3B79F004FB29700EA20B8009E00FB001D
:1007D0000100400002004000C0B79F005E00FB0027
:1007E00002004000E90F50000B003E00F5FF37000B
:1007F0008002EB00C5B79F00A0C2B30080CF5000BD
:1008000005003A000FBE97004C0078008CBF9F0097
:10081000C0B79F000E07E8008000EB00B1B79F0053
:10082000E0C2B3009E4F100018003A000DE0A00097
:100830008E00E80064405000914F1000020032002A
:10084000010778000C0037008FB997004302780049
:1008500083BF9F00B4B79F000E87E8000B003700EE
:10086000BFB29700EA28B800010040000200400033
:10087000B0B79F000E07E8009E00FB0002FD2F00AE
:1008800002804000E90F5000F5FF3600BE407800BE
:10089000E1D79F00C0C6B30080CF500022003200D5
:1008A0000F003C006940500080CF500077003200BC
:1008B00004003C000104E000310232006B405000B3
:1008C0000F00370040C6B30080CF500093003200C5
:1008D0006540400080CF50008B003A008F00370009
:1008E00030C7B30080CF50001A00320007003C0030
:1008F0006440500080CF5000110032000040E800FA
:1009000080CF500080003A000F00370050C7B3007E
:1009100080CF5000800032006340400080CF500004
:1009200079003A0009003700000028000D48A300B4
:1009300001003A000001200080867600D3FF3700D6
:100940000D60A000750037000D50A0000D70A000D4
:10095000720037000FBE97004C0078008CBF9F00DC
:10096000000478000000E00001003A0068BD2500A6
:100970008004EB00010037008104E8008900780062
:10098000088044001004E000FBFF3A003FB09700ED
:100990000000E00003003200890F50000100310028
:1009A000800478008000EB00E1AF9F004FB197001A
:1009B000890F51000200360009005100E0AF9F008E
:1009C0004368DE00E10660001B003A000D06780077
:1009D00009003700FFB0970000022000EF01070078
:1009E000E10F400003003200AFB197008301E8003F
:1009F000A3B79F000C06E8006FAA9700840F56006B
:100A0000F4FF3A008082EB00E5AF9F000A00370058
:100A1000880078003100FB0001047800FFB09700E7
:100A2000DE010700E10F4000030032002FB69700FF
:100A30000C06E800ACB79F000900E90080047800CC
:100A4000E10F4000F2FF3A000006EB000D00E0006D
:100A50000A003A00C6013700FFB0970000022000EC
:100A6000CE010700E10F4000030032002FB09700D5
:100A70000000E800A0B79F000C06E800EFA8970070
:100A8000810F5600F4FF3A00B90137000FB9970003
:100A90004200780082BF9F00CF80DE000101780015
:100AA000820178000205BE000004BE000203BE0001
:100AB0000002BE004822DE00482EDD00040276005F
:100AC000E4D79F000D48A3000A0032000404E000B0
:100AD00008003200E14F42000600320071FD2F0095
:100AE0000180470004487800184098002900200041
:100AF00002003700F0D79F001900200072FD2F0080
:100B000002844700A1FF370063FD2F0003844700E4
:100B1000190020009DFF37000D0CB3000D00780078
:100B2000000CB20028003A000D00E00005003D0076
:100B30000FBA97004405BE004404BE0084BF9F0066
:100B4000140037000D48A3000B0032008FBA970045
:100B50004500BE0085BF9F004F89DE00CF91DE00BB
:100B60000002BE0002037800820378000605BE0082
:100B70000404BE00070037000FBE97004C00780049
:100B80008CBF9F0000047800CFC4DE000905780008
:100B90008A057800E00F5400E08F5C00E00F5D00F4
:100BA000E08F5D001F003D003D00B3006000B80015
:100BB0006011B80008045000898458000A055900E3
:100BC0008B855900170037000D00E00005003D003F
:100BD0000FB897004005BE004004BE0080BF9F00D4
:100BE000100037000D48A300070032000FBA97002D
:100BF0004400BE0084BF9F006011B8000205BE0023
:100C00000004BE00070037008FBA97004500780047
:100C100085BF9F0000047800090020000A00200022
:100C20000B0020003FB697000C00E00007003A00E0
:100C3000E00F5400E08F5C00E00F5D00E08F5D008E
:100C400002003A0010002000B0B79F008D0078002D
:100C5000010CB200E1B79F0000042000808F50001B
:100C60003000320003003C000100E00008003200C8
:100C700040003700000820006FB19700800F51003E
:100C800014003200000C2000800F510039003A009F
:100C900014C0B30065A625000B0037000400FB005C
:100CA0004300DD00050040005001BE004000BE00D2
:100CB0000040E10001C8E10002D0E10003D8E100FA
:100CC0002B0039000442E800F44F5200F3FF3A00D1
:100CD0002700370000012000010020006011B8004B
:100CE00014C0B3000040E10001C8E10002D0E100FF
:100CF00003D8E1001E003900450020000000D000AC
:100D00008180D2000281D2008381D2008502E90075
:100D1000FAFF3A000442E800F04F5200F1FF3A00B7
:100D20001300370080002000010020006011B8008F
:100D300014C0B3000040E10001C8E10002D0E100AE
:100D400003D8E1000A0039003C0020000000D00078
:100D50008180D2000281D2008381D2000C06E9009A
:100D6000FAFF3A000442E800F54F5200F1FF3A0062
:100D7000E4D79F00EFD097000100FB003FB1970040
:100D8000820F500002003D00E2D79F0004003700B0
:100D9000BFB19700808F510001003D00B0B79F00A8
:100DA0004FB297000400E000040032006380660048
:100DB000020032000402E900C4B79F000DE8A3005E
:100DC0000B003200CFB297003FB697008C8F5200D5
:100DD00003003C000000EB00C0B79F000400370098
:100DE000CFB097003FB1970082805000C1B79F00FD
:100DF000EFD197000300FB000002EB00D4AF9F008F
:100E0000CFB29700808F5200020034000080520061
:100E1000D0AF9F000D28A30036003200E1806600AD
:100E20000D18A3000C003200D00220000100E000E9
:100E300001003A000080E900FFB09700D7000700EA
:100E4000E10F40000E0032002FB697000C06E800BC
:100E5000ACB79F000A0037000100E0000800320034
:100E6000FFB0970000022000CC000700E10F400017
:100E7000030032002FB097000000E800A0B79F00E9
:100E8000DFA897000100E0000F0032000006EB0031
:100E9000FFB0970000032000C0000700E10F4000F2
:100EA000030032002FB197000201E800A2B79F00B3
:100EB0000C06E800DFA99700830F5600F4FF3A0004
:100EC0000002EB00D4AF9F00BFB297004328DD00C3
:100ED000E1A525000100400090B79F004228DD00F9
:100EE0006400500080B79F00E32EB800FCAF9F0065
:100EF000840037005FA897000000E0001100320076
:100F0000688066000F003A0000067800FFB0970086
:100F100000022000A1000700E10F400003003200A2
:100F2000AFB097008100E800A1B79F000C06E80071
:100F30005FA99700820F5600F4FF3A008001EB0092
:100F4000D3AF9F00E18066000D18A3000C003200B3
:100F5000D00220000100E00001003A000080E9001A
:100F6000FFB097008D000700E10F4000D6FF320070
:100F70002FB297000402E800A4B79F00D2FF370009
:100F80000100E000D0FF3200FFB097000002200017
:100F900082000700E10F4000CBFF3200AFB29700A4
:100FA0008502E800A5B79F00C7FF370000042000B6
:100FB000EFB09700808F50003200320003003C00F9
:100FC0000100E000080032003F0037000008200068
:100FD0006FB19700800F510011003200000C20000B
:100FE000800F510038003A009FB197003302BE00D5
:100FF0002303BE000800BE000A01BE00D1010700A5
:10100000A4002000050020006033B800D4010700D0
:1010100004C3B30004424000E4D79F002A00370015
:10102000D5BD2500D5B79F000D58A30002003A009A
:10103000E0BE2500D0B79F0014002000050020006E
:101040006033B8008FB097008100E90005003300DD
:101050000402D0008582D2000683D2008783D200AA
:10106000F9FF37000800BE000A01BE00B501070005
:101070006F0060005FB197000000410010407800F1
:101080001000370014002000050020006033B80075
:101090008C0178008301E900050033000402D000D0
:1010A0008582D2000683D2008783D200F9FF370001
:1010B0000800BE000A01BE00A201070067406000F0
:1010C0000043B000E0D79F006FD297000400FB0000
:1010D000FFB0970031000700E10F4000030032002D
:1010E000AFB297008502E800A5B79F001FB0970038
:1010F0006800500090B79F008FB09700E4805000C8
:1011000081B79F0063065600D0FF2F003FB19700C4
:101110008010B8007FAA97000000420063005000D2
:10112000800F5600A1FF3A000D38A30010003200D6
:10113000DFAA97000500E0000D0034000006EB0078
:10114000FFB097000002200014000700E10F4000EC
:10115000030032002FB097000000E800A0B79F0006
:101160000C06E800DFA89700810F5600F4FF3A0054
:10117000BE407800E1D79F000104E0005EFD3A0028
:101180002FB097004F0778004F06BE004F05BE00F6
:101190004F04BE00EF01B10000000600889FBE00B2
:1011A0000001780001047800B10090000118A3004C
:1011B000400032000198A30003003A00180090009C
:1011C0000000E0003B003A000190A00031049800CC
:1011D00082047800F90FB200180090000000E000CF
:1011E00002003A0028009000000C7800EA8F5400BA
:1011F00006003A00380090000078A30003003A008F
:1012000088007800D0002000E4FF0700180290005A
:101210006121B90058009000E8009000800F510053
:10122000818F59000B0032000400E8001004980080
:101230001800780009587800000C780011C0B3003D
:1012400060C5250001487800EA8F5400060032008E
:10125000190037008800780009407800190007005D
:101260008004780014003700380090000088A30044
:101270001100320018019000A80090004800900072
:101280005300070098009000810F500004003200C6
:10129000380090000003B300300498008084EB0015
:1012A0000000EB001004980028009000000C78006B
:1012B000010037008084EB00090078004F04BE0075
:1012C000000006000200FA00889FBE00A0FF9F00F9
:1012D00001047800B1009000810478000904B20094
:1012E000020032000000FB00360037000118A300A6
:1012F00005003A000103B300310498001904980076
:101300000080EB002F003700580090000000E00044
:1013100006003A004800900012002000E6805700C6
:101320002B000700190498002400370028009000C3
:101330000000E00008003A0020C5250020049800C5
:10134000000C780020002000500498001004980041
:101350000130A0003104980018019000A80090000E
:10136000480090001A00070028009000000C780048
:101370000080EB001004980018007800AFF8970088
:1013800001587800000C78002FF89700EA4F5000C1
:101390000A003A00380090000088A30007003200DD
:1013A00018019000A8009000480090000800070075
:1013B00019049800A8009000010C7800AFF897007D
:1013C0000100FB004F04BE000080FA000000060090
:1013D0000A00FA0080017800E20F500027003E006A
:1013E000E0E28200E10F500008003200802320007C
:1013F0000000E00005003200042320002523200027
:1014000046232000800178000400370004222000D9
:101410002522200046222000832220001440900034
:101420000004E000040035008009EB001440900047
:101430000074A00010429800154090000028A300FE
:1014400003003A00154090000024A000904298004C
:101450008001EB0006003700154090000008A30053
:10146000FDFF32003100FB00000B78008301E80033
:10147000828F5100F8FF3A0008003700300020004A
:10148000B0BF9F00C3BF9F00D1BF9F00E2BF9F00BE
:101490006A80570000C0DA006FB997000200780038
:1014A0000080FA0000000600881F78000004780021
:1014B0005001BE004000BE0004004000858048008E
:1014C0000601490087814900009CBE000294BE00CD
:1014D0000400E1000588E1000690E1000798E100C2
:1014E00002003100680044001008E8004F04780052
:1014F00000000600F4874700889FBE008A9FBE0058
:101500008C9FBE008E1F78000205BE000004BE0046
:10151000D4B79F00E5B79F00F6B79F0087BF9F0035
:101520000000EB00C0B79F00B0B79F00A0B79F00BE
:1015300090B79F0080B79F000D042000BFB09700B8
:101540004FB09700000140000000E0000F003D0098
:101550004F08DE0000007100C0B79F004D0007007B
:1015600001003D00120020005000070001003D0076
:101570001200200055000700610007006600070008
:101580000F004000C8FF0700220037004F08DE00B0
:1015900000067100CCB79F003E00070001003D002F
:1015A000120020004100070001003D001200200051
:1015B00046000700520007000FB297009FB2970045
:1015C0002FB39700BFB397005900070000005200E7
:1015D00081805A0002015B0083815B0080B79F001D
:1015E00091B79F00A2B79F00B3B79F000007EB0021
:1015F0004F0007000020E10001A8E10002B0E10077
:1016000003B8E100010031001E0020000E0056006A
:10161000C0B79F004FB297000400E00007003500FC
:1016200010002000010020006011B80008047000C4
:10163000898470000A0571008B8571008D06E900B0
:10164000BEFF3A000400E00003003D003200070046
:101650000F00400094FF07004FA897000000E00033
:1016600004003A000FB497009FB497002FB597007D
:10167000BFB597000800BE000A01BE004F07780002
:101680004F06BE004F05BE004F04BE004F01B10023
:10169000000006000180400090B79F000001EB00B1
:1016A0008FB097000100E00000000600020070000B
:1016B00090B79F000180400080B79F000001EB00C1
:1016C000FFA897000100E000000006000200700083
:1016D00080B79F00018040006FAA9700CF20DE00F6
:1016E00001007000F0AF9F00040242000800BE003D
:1016F0000A01BE004F18DE00000272000000060062
:10170000E4AF9F000804440089844C000A054D00A2
:101710008B854D00000006003FB29700CFB29700C6
:101720005FB39700EFB3970000FE2F0000000600A4
:101730003FB09700CFB097005FB19700EFB197002F
:1017400000000600881F780018002000881F78001D
:1017500068FF07008F87E9004F047800000006004B
:10176000801FEB0063FF07008F87E9000000060081
:10177000889FBE008A9FBE008C1F78000205BE00B5
:101780000004BE00E00F5000E08F5800E00F590049
:10179000E08F59000C003D006000B8006011B800F7
:1017A00008045000898458000A0559008B855900A7
:1017B0001C0020001F00070008003D001800070063
:1017C0000006EB00050037000006EB0019000700DB
:1017D00002003D000F0007001C0020000800BE00B2
:1017E0000A01BE00D7FF07000203BE000002BE00D0
:1017F0000C00E00001003200060007000400BE00FB
:101800000601BE004F0678004F05BE004F04BE0023
:10181000000006006000B8006011B800000037004A
:10182000040250008582580006035900878359003E
:1018300000000600E00F5200E08F5A00E00F5B004E
:10184000E08F5B0000000600889FBE008A9FBE00FC
:101850008C1F78000205BE000004BE00E00F50009F
:10186000E08F5800E00F5900E08F59000A003D005A
:101870006000B8006011B800080450008984580066
:101880000A0559008B8559001C002000180007002C
:1018900007003D00050037000006EB0014000700BC
:1018A00003003D006000B8006011B800150007009B
:1018B0000800BE000A01BE00A9FF07000203BE0027
:1018C0000002BE000C00E000030032006000B8001F
:1018D0006011B8000B0007000400BE000601BE0046
:1018E0004F0678004F05BE004F04BE000000060002
:1018F000E00F5200E08F5A00E00F5B00E08F5B00CA
:1019000000000600040250008582580006035900BA
:1019100087835900000006004C61000073740000CA
:101920002052000065730000657400003A2000003A
:10193000202000000044000045560000454C0000F7
:101940004F50000020520000004D000041430000B5
:101950003A2000002020000020200000202000006D
:101960002020000020000000536500007269000084
:10197000616C00003A2000002020000020200000C0
:101980002020000000420000756900006C74000017
:10199000206F00006E3A0000202000002020000090
:1019A000204F00006374000020200000322000005F
:1019B000323000003137000020300000393A00009A
:1019C000333700003A310000350D00000A000000F6
:1019D0000300000042550000205200006576000020
:1019E0003A200000202000002020000020200000DD
:1019F00000230000232300002323000023230000F2
:101A0000232300002320000053470000343200004D
:101A100034200000424F00004F54000020550000C9
:101A200050440000415400004552000020230000B3
:101A3000232300002323000023230000232300008E
:101A4000230D00000A0000002323000023230000D0
:101A5000232300002323000023230000232300006E
:101A6000232300002323000023230000232300005E
:101A7000232300002323000023230000232300004E
:101A8000232300002323000023230000232300003E
:101A900023230000232300000D0A00000050000053
:101AA000726F000064750000637400003A2000004B
:101AB000202000002020000020000000436F0000D4
:101AC000707900007269000067680000743A0000D5
:101AD00020200000202000003230000031370000BC
:101AE000204100007070000061720000656E00000F
:101AF000742C0000204900006E6300002E200000BE
:101B00000D0A0000004A0000554D00005020000062
:101B1000544F000020410000505000000D0A00000A
:101B2000000D00000A4200004F4F0000543A000030
:101B3000204900004E560000414C000020410000AA
:101B4000505000002C20000052450000534500007A
:101B5000540D00000A0000000D0A00000D0A0000EC
:101B600000410000544900005241000030300000A4
:101B700030300000000D00000A000000485700004F
:101B800020000000425200004F5700004E2000008D
:101B900000490000444C00004520000000530000B4
:101BA0004C45000045500000200000005744000054
:101BB00054200000005300005720000000450000A2
:101BC0005854000020000000494C00004C45000023
:101BD000474100004C20000000540000524100002A
:101BE00050200000000D00000A4200004F4F00008E
:101BF000543A0000204100005353000049470000C0
:101C00004E4500004420000049500000203D0000E7
:101C100020250000752E0000257500002E250000EF
:101C2000752E0000257500000D0A0000000D000053
:101C30000A4200004F4F0000543A000020430000C9
:101C40004F4E000046490000475500005245000035
:101C50004420000049500000203D000020250000E5
:101C6000752E0000257500002E250000752E000041
:101C7000257500000D0A00000058000045540000C2
:101C8000200000000D0A0000424F00004F540000E9
:101C90003A2000004455000045540000204E00004A
:101CA0004F540000204F00005045000052410000FA
:101CB000544900004F4E0000414C00000D0A000046
:101CC00000420000553A000020500000524500003C
:101CD00050410000524900004E47000020520000D1
:101CE00045530000455400000D0A0000004200006A
:101CF000553A0000205200004553000045540000B2
:101D0000205400004F2000004C410000554E0000C0
:101D100043480000204200004F4F0000544C000098
:101D20004F41000044450000520D00000A00000031
:101D3000425500003A200000574900004C4C00007A
:101D4000205200004553000045540000204100008F
:101D5000465400004552000020350000204D000090
:101D6000494E000055540000455300002049000032
:101D70004E41000043540000495600004954000001
:101D8000590D00000A000000425500003A200000F2
:101D9000494400004C450000205400004F4F000013
:101DA000204C00004F4E0000472C00002052000045
:101DB0004553000045540000204E00004F570000DE
:101DC0000D0A0000000D00000A4200004F4F000005
:101DD000543A0000205300006F6600007420000099
:101DE000576400006F67000020540000696D000018
:101DF000656F0000757400000D0A0000000D000002
:101E00000A4200004F4F0000543A000020460000F4
:101E1000616900006C7500007265000020520000CE
:101E200065730000657400000D0A000000420000A8
:101E3000553A0000204800004C490000470D0000C2
:101E40000A000000000700000E0900001C1B000033
:101E500012150000383F0000363100002423000036
:101E60002A2D0000707700007E7900006C6B000066
:101E700062650000484F00004641000054530000D6
:101E80005A5D0000E0E70000EEE90000FCFB000006
:101E9000F2F50000D8DF0000D6D10000C4C3000076
:101EA000CACD0000909700009E9900008C8B000026
:101EB00082850000A8AF0000A6A10000B4B3000016
:101EC000BABD0000C7C00000C9CE0000DBDC0000C6
:101ED000D5D20000FFF80000F1F60000E3E40000B6
:101EE000EDEA0000B7B00000B9BE0000ABAC0000E6
:101EF000A5A200008F880000818600009394000056
:101F00009D9A000027200000292E00003B3C000085
:101F1000353200001F1800001116000003040000F5
:101F20000D0A000057500000595E00004B4C0000A5
:101F3000454200006F680000616600007374000095
:101F40007D7A0000898E0000878000009592000055
:101F50009B9C0000B1B60000BFB80000ADAA000015
:101F6000A3A40000F9FE0000F7F00000E5E2000085
:101F7000EBEC0000C1C60000CFC80000DDDA0000B5
:101F8000D3D40000696E0000676000007572000025
:101F90007B7C0000515600005F5800004D4A000055
:101FA00043440000191E0000171000000502000045
:101FB0000B0C0000212600002F2800003D3A0000F5
:101FC000333400004E4900004047000052550000E5
:101FD0005C5B000076710000787F00006A6D000095
:101FE000646300003E390000303700002225000005
:101FF0002C2B000006010000080F00001A1D000035
:1020000014130000AEA90000A0A70000B2B50000A4
:10201000BCBB000096910000989F00008A8D0000D4
:1020200084830000DED90000D0D70000C2C50000C4
:10203000CCCB0000E6E10000E8EF0000FAFD000074
:10204000F4F30000424C00003A2000004845000034
:102050005820000063680000656300006B73000097
:10206000756D00000D0A0000000D0000626F000099
:102070006F740000207200006563000020250000DE
:1020800064200000286100006464000072200000E9
:1020900030780000256C000058290000202E000038
:1020A0002E2E000020610000707000006C6900009E
:1020B00065640000000D00006170000070200000E9
:1020C00072650000632000002564000020280000E5
:1020D0006164000064720000203000007825000078
:1020E0006C580000292000002E2E00002E20000039
:1020F000696700006E6F00007265000064000000F8
:102100000D0A0000426F00006F740000557000005F
:102110006461000074650000723A00002045000010
:102120004F4600002C20000054520000414E000099
:102130005346000045520000204300004F4D000070
:10214000504C000045540000450D00000A000000FE
:102150002564000020610000707000006C690000C0
:1021600063610000746900006F6E0000207200005F
:10217000656300006F720000647300002069000056
:10218000676E00006F72000065640000206200004E
:102190007920000075700000646100007465000023
:1021A000720D00000A00000025640000206200009B
:1021B0006F6F0000746C00006F61000064650000C8
:1021C0007220000020720000656300006F72000042
:1021D0006473000020610000707000006C690000F2
:1021E0006564000020620000792000007570000026
:1021F0006461000074650000720D00000A000000B8
:102200004854000020250000750D00000A00000061
:1022100048540000440D00000A000000256400003E
:1022200020700000676D0000206D0000656D0000EB
:1022300020450000524100005345000020200000CE
:10224000636F0000756E0000740D00000A0000004E
:102250002564000020700000676D0000206D000004
:10226000656D0000205700005249000054450000F1
:1022700020200000636F0000756E0000740D0000E8
:102280000A0000002564000020700000676D000057
:10229000206D0000656D00002056000045520000D2
:1022A0004946000059200000636F0000756E000071
:1022B000740D00000A0000000D0A0000426F0000CB
:1022C0006F7400006C6F00006164000065720000B4
:1022D0003A200000466C0000617300006820000096
:1022E00071750000657500006520000066610000E2
:1022F000696C00000D0A0000000D00000A42000099
:102300006F6F0000746C00006F6100006465000076
:10231000723A0000204600006C6100007368000003
:1023200020710000756500007565000020660000E2
:10233000756C00006C0D00000A0000000D0A000022
:10234000426F00006F7400006C6F00006164000059
:10235000657200003A200000466C000061730000C6
:1023600068200000616C00006C6F000063200000BA
:1023700066610000696C00000D0A00000042000068
:10238000554C00004B200000455200004153000016
:102390004520000041550000584900004C4900000C
:1023A0004152000059200000464C000041530000FB
:1023B00048200000504700004D2000004D4500001F
:1023C0004D4F0000525900002041000054200000F1
:1023D0003078000025300000346C0000580D0000FB
:1023E0000A000000424F00004F5400002F5400002C
:1023F00046540000503A0000206400006174000060
:1024000061200000746F00006F2000006C6F0000FE
:102410006E6700000D0A0000004200004F4F0000F0
:10242000542F000054460000545000003A20000091
:10243000424F000047550000532000004F5000005D
:10244000434F00004445000020250000750D0000AA
:102450000A000000536F00006D6500007468000002
:10246000616E000067200000676F00006564000077
:1024700020620000616400006464000064000000E9
:10248000426F00006F7400006C6F00006164000018
:10249000657200003A2000005446000054500000CD
:1024A00020650000727200006F7200000D0A0000CB
:1024B000000D00000A5400004654000050200000A7
:1024C000534100004E4900005459000020540000C0
:1024D000494D0000454F0000555400002C200000DD
:1024E0005354000041540000452000003D200000EE
:1024F000002000002D200000474F00002048000071
:102500004F4D0000452100000D0A000000000000B2
:102510000D0A00004475000065740000537000004F
:102520006944000061740000613A00002065000009
:10253000727200006F7200000D0A00000D0A0000A8
:10254000000D00000A44000075650000745300008F
:102550007069000044610000746100003A200000CE
:10256000746900006D6500006F750000740D000057
:102570000A0D00000A0000004D4100004320000049
:1025800046410000554C0000543A00002042000033
:1025900055460000464500005253000020520000FE
:1025A00045530000455400000D0A0000004D000096
:1025B0004143000053650000745200006561000053
:1025C0006450000074720000496E000052780000F0
:1025D0003A2000005278000020620000756600007A
:1025E00066650000722000006F76000065720000D2
:1025F000666C00006F7700000D0A00000D0A0000F5
:10260000000000002564000000000000920280002D
:10261000FF3FFC0001CEB300014078004260B700EC
:102620009202880044C7BF00014060000004A0007F
:1026300044E7B70044C7BF00F043B20044E7B70027
:10264000303A800001E02F0001006000E004B30098
:10265000303A88000000EB000041880010418800FB
:102660002041880030418800404188005041880066
:1026700060418800704188008041880000408800E7
:10268000104088002040880030408800404088008A
:10269000504088006040880070408800804088007A
:1026A00020708800A070880020718800A0718800C8
:1026B00020728800A0728800207388008080EB0060
:1026C0000170880081708800017188008171880024
:1026D0000172880081728800017388007070880020
:1026E000F070880070718800F07188007072880046
:1026F00070738800500EA900612EA90060CEA90059
:10270000610EA90000000600C6C6BF0001C8B300E4
:10271000014060004046B300C6E6B70031692000C2
:1027200000CCB30011406000E348700000000600D8
:102730000000EB0010618800006188005061880093
:102740006061880030618800F06188001062880054
:1027500000628800506288006062880030628800F1
:10276000F06288000000060030DA8A0000000600EF
:102770000200FA00889FBE00A2028000D2BF9F0024
:102780006011B800A30288001300BA009380BA0059
:102790005FB99700A20288000000E900E30F400043
:1027A00011003E0030D82800523E02000000000018
:1027B00000092D00310020000000000061005000E1
:1027C000E0805800FCFF3A000004BE008FFF0700C5
:1027D0000060FE0040A7A800889FBE000000060021
:1027E0000000FE000C00370010D92800523E020005
:1027F0000000000000092D00310020000000000052
:1028000061005000E0805800FCFF3A0080D8820050
:102810000070A00080D88A004F04BE000080FA003B
:1028200000000600E001200030DA8A000000060007
:1028300080D882000040A00080D88A0000000600F6
:10284000300005003E00FA00889FBE008A9FBE004F
:10285000C0DA2800523E02000000000040D22800EA
:10286000523E02000000000090CF2800523E0200BD
:1028700000000000E0D52800523E020000000000E9
:10288000F0D42800523E020000000000C0FB2F00E0
:1028900000844700C20320008000EB00080078009D
:1028A0001C0302000000000008007800BE3A02008D
:1028B000000000000004E000020032000800780080
:1028C0000100370010DB2800523E0200000000002B
:1028D000C0FB2F0080814700F4C2B3008449780018
:1028E00052CEBF00684060000080FB000000E9009D
:1028F0004F00DE0012C3B30000405100D07F9F00A4
:1029000002CEBF0001C8B300014060000080FB00A0
:102910000000E9004F00DE0000405100A041980097
:1029200002CEBF000044B2000080FB000000E900BE
:102930004F00DE0000405100F07F9F0062CEBF00DC
:10294000624060000080FB000000E9004F00DE00F4
:102950000040510080C79F0094C79F00A0FB2F003C
:102960000F004000B23A02000000000080407800F2
:102970000004E0000600320020FC2F0080804700A9
:102980005F9897002C3D0200000000000300370014
:1029900000C3B300A0C79F00B1C79F00C0FB2F00BA
:1029A000008547000A007800523E02000000000047
:1029B000B0DB2800523E020000000000A0CE28003C
:1029C000523E020000000000B0C92800523E020042
:1029D0000000000090B02500523E02000000000000
:1029E000F0C2B300004D780000CAB3006E3D020093
:1029F00000000000D07F9F0000CAB300823D0200AB
:102A000000000000204598008045EB00FB7F9F0000
:102A10000A007800523E020000000000B0DB2800EF
:102A2000523E02000000000030CC2800523E02005E
:102A300000000000C20320008000EB000A007800C4
:102A40001C030200000000000A0078005E3A020049
:102A5000000000000004E0000900320040CB280024
:102A6000523E0200000000000A007800523E0200C0
:102A700000000000B0DB2800523E02000000000011
:102A800050CA2800523E020000000000F8B32500A2
:102A9000184078006E3D020000000000004D7800F4
:102AA00018407800823D020000000000D07F9F00A7
:102AB000A9C3B3002945980008B425001840780040
:102AC0006E3D020000000000F07F9F00184078007B
:102AD000823D02000000000080C79F0099C79F0050
:102AE00018B42500184078006E3D02000000000078
:102AF000A0C79F0018407800823D0200000000003F
:102B0000B0C79F00C9C79F0028B4250018407800AF
:102B10006E3D020000000000D0C79F001840780002
:102B2000823D020000000000E0C79F00F9C79F003F
:102B300038B42500184078006E3D02000000000007
:102B400080CF9F0018407800823D02000000000006
:102B500090CF9F00A9CF9F0048B42500184078006F
:102B60006E3D020000000000B0CF9F0018407800CA
:102B7000823D020000000000C0CF9F00DBCF9F001D
:102B80000A007800523E020000000000B0DB28007E
:102B9000523E020000000000C0C82800523E020061
:102BA00000000000008080000008A3000300320045
:102BB000E0DB2800523E02000000000000808000A0
:102BC0000018A3000300320020DC2800523E02005F
:102BD00000000000008080000028A30003003200F5
:102BE00090DC2800523E02000000000000808000BF
:102BF0000038A30003003200F0DC2800523E02003F
:102C000000000000008080000048A30003003200A4
:102C100060DD2800523E02000000000000808000BD
:102C20000068A30003003200B0DD2800523E02001D
:102C300000000000008080000078A3000300320044
:102C4000F0DD2800523E02000000000000808000FD
:102C500000E8A3000300320040DE2800523E0200DC
:102C600000000000008080000000E00003003D0044
:102C7000D0DE2800523E020000000000B0DB280039
:102C8000523E02000000000040D22800523E0200E6
:102C900000000000C0DA2800523E020000000000E0
:102CA0004F05BE004F04BE000080FA000000060081
:102CB0004000FA00889FBE008A9FBE002BB125000D
:102CC0003AB1250049B1250058B125000204200081
:102CD0008000EB0080FB2F000F0040001C0302006F
:102CE00000000000E0B32500104078007040600054
:102CF0000A0032001880FB00801F78001980FB005A
:102D0000801F78001A80FB00801F78001B80FB006A
:102D1000801F780030DF2800090037001880FB0092
:102D2000801F78001980FB00801F78001A80FB004C
:102D3000801F78001B80FB00801F780070E1280056
:102D4000801F7800E0FA2F000F00400038030200D7
:102D500000000000EA87570080FB2F000F004000B2
:102D6000523E0200000000004F05BE004F04BE00AE
:102D70000080FA0000000600800205001400FA003E
:102D8000889FBE00003A8000008088000060FE003E
:102D90001EFE0700C6C6BF0001C8B30001406000A8
:102DA0004046B300C6E6B70093C6BF0001CCB300EF
:102DB000014060003040B30093E6B7005CFE0700BE
:102DC00000B125000048EB0080D882009000B300DD
:102DD0000040A10080D88A00420120008000EB0062
:102DE00060B425001C030200000000003203200034
:102DF0008000EB0020B125001C0302000000000051
:102E0000C012200030DA8A00A0B425000008EB00D0
:102E1000F43D0200000000003E3E02000000000001
:102E2000CA3A020000000000F0B325006A3A02002E
:102E30000000000074805700763A02000000000095
:102E40000004E000050032006FB097000000E000D1
:102E500002003200E0B325001044A0007480570047
:102E6000A63A020000000000E0B22500D1E32800ED
:102E7000030009003158780010B325005E3A0200C3
:102E80000000000091B02500800220002C3D0200CF
:102E90000000000050210200000000000044780003
:102EA00068FE07000804E00008003A0080D88200AD
:102EB0000060A00080D88A0020E42800523E020072
:102EC000000000000000EB00E0B79F009107200029
:102ED0006FB097000000E00001003A00B100200050
:102EE00041DA8A00000220004027B60040A7A8006F
:102EF000E0B325001040780070406000030032000D
:102F0000B2190200000000000900370020B12500BE
:102F1000823A02000000000060B125009A3A0200E7
:102F200000000000601902000000000060FF0700C0
:102F30003825020000000000902902000000000077
:102F40008237020000000000A22526002300200096
:102F5000E0B425001A3E020000000000C0B42500C5
:102F60000048EB00025E2000D3B2200060B52500CF
:102F70001A3E0200000000000060FE0080D88200BF
:102F80000048A3001400320010E62800523E020060
:102F900000000000A225260023002000E0B4250048
:102FA0001A3E02000000000042782D00730120004C
:102FB00020B525001A3E020000000000100020008D
:102FC00030DA8A00A0B425000008EB0080D8820027
:102FD0000040A10080D88A00E0B42500243E020011
:102FE000000000000004E0004F00320060B4250043
:102FF0001000E90030DA8A0080B425001000E900F2
:1030000040DA8A00BE24020000000000E10F5000F8
:103010000F003A0020B52500243E02000000000009
:103020000004E0000A00320070E72800523E02006F
:103030000000000000122A007100200000000000C3
:1030400061005000E0805800FCFF3A002200370089
:10305000CE2402000000000000047800E10F5000C0
:103060001F003A00C9B425001904E00004003A002A
:1030700080E92800523E020000000000884C7800E1
:10308000E001200030DA8A00A2252600230020007B
:10309000E0B425001A3E020000000000A0B42500A4
:1030A0009000E80051DA8A0050092000808F50001B
:1030B0000D00360040EC2800523E020000000000E7
:1030C00000122A0071002000000000006100500082
:1030D000E0805800FCFF3A000000FE0002003700CC
:1030E000C012200030DA8A0060B425001000E00031
:1030F00006003C0030EE2800523E020000000000B6
:1031000080D882000070A00080D88A00E2B4250038
:10311000A02526002100200032024000A2824800A3
:1031200074DA8A0085DA8A0080D882000078A300E9
:103130000A003200F0EF2800523E020000000000BA
:1031400000092D0031002000000000006100500047
:10315000E0805800FCFF3A000000FE0000B12500AE
:103160001004E00002003A0081FD07000000FE00AC
:1031700080D882000068A30031003A00E0B3250047
:10318000104078007040600002003200161C0200FF
:1031900000000000322D020000000000202F02007D
:1031A00000000000EE845700F88057006A80570046
:1031B0004E220200000000000004E000180032006F
:1031C0000FE89700E64F500003003A00263C02004B
:1031D0000000000012003700E84F500010003A00D5
:1031E00072845700F6815700778157000800BE00AF
:1031F000863B0200000000000004E00008003200EE
:103200001FE89700F14F500005003A005FB19700AA
:103210008800780009007800302F020000000000CC
:10322000E6350200000000007225020000000000E8
:10323000EA2B0200000000009037020000000000AE
:1032400060B52500243E0200000000000004E000FC
:1032500049FF320070F12800523E020000000000D9
:1032600000122A00710020000000000061005000E0
:10327000E0805800FCFF3A000000FE003EFF3700EF
:10328000A0BA25001000E0000C003200C0BB2500F1
:1032900080C0EB0090CF100002003200000220003E
:1032A000010037000001200050DD8A00A0BB25008E
:1032B0000008EB0060BA25001004A1000000060021
:1032C000881F7800C8BB250000C0EB00984F100095
:1032D000040032000000EB00FE2C020000000000A1
:1032E00000CCEB00A0BA25000008EB00E0B32500FD
:1032F0001044A1004F0478000000060000012000E7
:1033000050DD8A00C0BB250000C8EB00A0BB250033
:103310000008EB0060BC25000008EB0030107800CE
:10332000A0BC25000008EB0030107800E0BC2500B0
:103330000008EB003010780020BD25000008EB00ED
:103340003010780060BA25000048EB00E0B325009B
:10335000104078007040600001003A00D8FF07007C
:1033600000000600A0BA25001000E00008003A00A6
:10337000E0B325001044A0000001200050DD8A00C9
:10338000A0BB25000008EB0060BA25001004A100D6
:10339000000006000E00FA00881F78000040EB00D5
:1033A000A0F79F006D805700DC2E02000000000097
:1033B0003FF09700E24F500076003A00F100200005
:1033C0000000EB00FE2E0200000000004100200083
:1033D00060BC2500FE2E02000000000060BA25003F
:1033E000104078006240600003003A0040DD820037
:1033F0000000A00040DD8A00810020000000EB00FA
:10340000FE2E0200000000006884570061002000CA
:1034100008007800FE2E020000000000620020007C
:10342000F1B3250008007800D80202000000000077
:10343000E10C20000000E0003800320055003700A9
:103440006F805700DC2E0200000000008FF0970014
:1034500050C3B30080CF50000A00320003003E008A
:10346000E1CF50002A003A001400370060C3B300D7
:1034700080CF500020003200E1CF400024003A000D
:103480002D0037001FF09700E14F500041003A0037
:103490006E805700DC2E02000000000060BA25009C
:1034A00010407800624060001E0032002FF097004C
:1034B000E24F50001B003A00360037001FF0970023
:1034C000E44F500033003A0041002000E0BC2500EA
:1034D000FE2E02000000000060BA250010407800B7
:1034E000624060000F003A0040DD82000020A00032
:1034F00040DD8A000B0037001FF09700E44F5000BA
:1035000024003A00410020006C805700030037007F
:103510009FF097008180FB000000EB00FE2E020070
:103520000000000070805700DC2E02000000000048
:103530000004E000C2FF3A002FF09700E24F500075
:1035400007003A002FB89700BFB89700F0DD8A0057
:1035500001DE8A0060BA25001014A00008003700C0
:10356000E2BB25002FB89700BFB89700B20F10003C
:10357000A28F1800020032000040EB00A0F79F006D
:10358000202F0200000000002FF097000080FB00B9
:1035900003003700202F0200000000000000EB00B5
:1035A0004F0478000080FA0000000600889FBE00EB
:1035B0008A9FBE008C9FBE000044780010C0B300FC
:1035C000B62D02000000000010C0B300B62D0200AE
:1035D0000000000060C0B300B62D02000000000033
:1035E0000040EB00B62D020000000000410020006A
:1035F00010B425001A2E0200000000000040EB006D
:10360000B62D0200000000000040EB00B62D0200C5
:103610000000000000C8B300B62D0200000000004A
:103620000040EB00B62D0200000000004100200029
:1036300020B125001A2E020000000000C100200069
:103640000040EB00DE2D02000000000061002000C1
:10365000F0B325001A2E020000000000A10C20008B
:103660000040EB00DE2D02000000000030C6B30079
:10367000B62D02000000000020C8B300B62D0200E5
:103680000000000030C5B300B62D020000000000AD
:1036900030C6B300B62D02000000000050C3B300D6
:1036A000B62D02000000000010C0B300B62D0200CD
:1036B0000000000008407800B62D02000000000065
:1036C000E14F540003003A0060BA25001014A10035
:1036D0000C003700E34F54000A003A0060C3B30007
:1036E000B62D02000000000040C0B300B62D02005D
:1036F0000000000041002000E0BB25001A2E02005F
:103700000000000070C3B300B62D020000000000EE
:1037100040C0B300B62D02000000000010C0B3008E
:10372000B62D02000000000030C0B300B62D02002C
:103730000000000060C0B300B62D020000000000D1
:10374000C0C0B300B62D020000000000E34F5400DB
:1037500007003200E14F54000F003A0030DE8200D3
:1037600041DE8200E00F5000E08F58000A00320076
:1037700020C3B300B62D02000000000040C0B3001B
:10378000B62D0200000000004100200060BC2500B2
:103790001A2E02000000000000C0EB00B62D02004F
:1037A00000000000C1122000D0DA820080805000AA
:1037B0000040EB00DE2D0200000000002CB12500CF
:1037C0009C80FB003DB125001D80FB004800DD0012
:1037D000010470004AB125009A80FB005BB125000E
:1037E0001B80FB004800DD0081047000004EEB00F0
:1037F000804EEB00004DEB00804DEB005C2E020094
:1038000000000000084E78004840DE00804E78003E
:10381000094D78004848DE00804D78004F06BE0014
:103820004F05BE004F04BE0000000600889FBE008A
:10383000A8BA250051DD820080022000808F500050
:10384000CB00320017003E0065005000808F500012
:103850007300320008003E0008022000888F5000EC
:10386000680032001002200017003E00F08F500068
:1038700063013A002C00370050022000808F500076
:1038800067003200BA0039000000E800808F500065
:10389000B70032000000E800808F500058013A0065
:1038A0005F003700D0022000808F50005C003200A3
:1038B0000B003E0063005000808F5000AC003200CF
:1038C000570039000000E800808F5000540032009B
:1038D0000000E800808F500049013A00A400370042
:1038E00000042000808F5000BD00320007003E0021
:1038F00072005000808F50009D0032000000E800F0
:10390000808F50003E013A0018013700100420005B
:10391000808F5000C00032006F004000808F500048
:1039200037013A001301370060B225009080FB0098
:1039300070B225001080FB004800DD00010170001E
:1039400080B225009080FB0090B225001080FB0023
:103950004800DD008101700020B125000248780098
:10396000C810DE0030B125000148780040B12500C4
:1039700003487800C818DE0050B1250001487800DF
:10398000A0B225009080FB00B0B225001080FB00A3
:103990004800DD0001017000C0B225009080FB00EE
:1039A000D0B225001080FB004800DD0081017000CE
:1039B00060B1250002487800C810DE0070B1250013
:1039C0000148780080B1250003487800C818DE005F
:1039D00090B1250001487800330420004204200003
:1039E0008040EB000000EB00382D020000000000DA
:1039F000C1BB250080487800E14F40000001320043
:103A000058DD8A00809628009100200090DD8A0011
:103A1000A1DD8A00A0BA25001000E80050DD8A0070
:103A200060B225009080FB0070B225001080FB0082
:103A30004800DD000101700080B225009080FB008D
:103A400090B225001080FB004800DD00810170006D
:103A500020B1250002487800C810DE0030B12500F2
:103A60000148780040B1250003487800C818DE00FE
:103A700050B1250001487800A0B225009080FB00DD
:103A8000B0B225001080FB004800DD00010170008D
:103A9000C0B225009080FB00D0B225001080FB0052
:103AA0004800DD008101700060B125000248780007
:103AB000C810DE0070B125000148780080B12500F3
:103AC00003487800C818DE0090B12500014878004E
:103AD0000000EB00862D0200000000000000E00066
:103AE000C7003200C00320000100200010DE8A0061
:103AF00021DE8A0080BA25000048EB00A0BB25002B
:103B00000008EB0060BA25001004A1001014A10009
:103B10008040EB0010C0B300A4FE070098DD8200D7
:103B2000A9DD820040B42500104178000281FB002D
:103B3000030020000800BE00CC02020000000000CC
:103B40004609DD004A00DE0000007100CA08DE0000
:103B50000801400089814800B2DD8A00C3DD8A0087
:103B6000E0BA25001A3E02000000000010003700F5
:103B70000000EB00C82E0200000000000000E00082
:103B80000E003A00E0BA2500243E020000000000CA
:103B90000004E0009A00320090DD8200A1DD820086
:103BA000000040008180480090DD8A00A1DD8A008D
:103BB000A0BA25001000E8009000370060BA250088
:103BC0001024A000F3FD0700C1BA2500804878004A
:103BD000E24F50008A003A000004200087003700BE
:103BE0000000EB00862D0200000000000000E00055
:103BF000830032008040EB0030C0B3006BFE070052
:103C0000B2DD8200C3DD8200E0BA25001A3E020068
:103C100000000000780037000000EB00C82E020012
:103C2000000000000000E00006003A00E0BA2500B5
:103C3000243E0200000000000004E000700032009A
:103C40004A003700D3FD0700E54F50000300320063
:103C5000E64F50006A003A0044003700C8BB250018
:103C60001880FB00FE2C02000000000000CCEB00DE
:103C70000005200050DD8A0060BA25001004A00075
:103C8000A0BB25001000E800D0DD8A0080BA250026
:103C900010007800610060001600320021BD250090
:103CA00060BC25001101BE00B00F5100A08F59006B
:103CB0000400320030DE820041DE820090DE8A00A5
:103CC000A1DE8A0032DE820043DE820020B12500C0
:103CD00002487800C810DE0030B1250001487800A5
:103CE00040B1250003487800C818DE0050B1250017
:103CF0000148780044DD82000428A3000C00320053
:103D000072DE820083DE820060B125000248780006
:103D1000C810DE0070B125000148780080B1250090
:103D200003487800C818DE0090B1250001487800EB
:103D30000418A3003200320050DE820061DE8200EF
:103D4000A2B1250000497800C801DE00B2B125000B
:103D500003497800C2B1250001497800C808DE0097
:103D6000D0B125000148780025003700000220006E
:103D7000220037000000EB00FE2C020000000000D3
:103D8000C0BB250000C8EB0060BA25001004A000ED
:103D900032DE820043DE820020B125000248780036
:103DA000C810DE0030B125000148780040B1250080
:103DB00003487800C818DE0050B12500014878009B
:103DC00072DE820083DE820060B125000248780046
:103DD000C810DE0070B125000148780080B12500D0
:103DE00003487800C818DE0090B12500014878002B
:103DF00058160200000000001800E80050DD8A009C
:103E00004F04BE0000000600889FBE000104780039
:103E1000C800DE00C2CFB30002C160000214A000DF
:103E20000104A000C808DD00F00FB200010070001E
:103E300013C0B30009F421004013880060C2BF0022
:103E40000018A300FDFF3A0060C2BF000008A300F5
:103E5000FAFF3200411380000304E0000E003A0034
:103E60004808DE00824F500003003A00010C780041
:103E70000000EB00110037000008A300060032002C
:103E800080282900523E020000000000000CEB00D8
:103E900010002000090037008904E9000000EB0051
:103EA00080417800E4FF3A00102A2900523E0200C7
:103EB00000000000090C7800200020004F04BE0024
:103EC0000000060061E2A900444EA900520EA900BC
:103ED000538EA90035EEA900530EA90064CEA900A7
:103EE00062EEA900650EA900404EA900500EA9007F
:103EF000518EA90031EEA900510EA90060CEA90093
:103F000060EEA900610EA900612EA90000352C0009
:103F1000010020000000000061005000E080580017
:103F2000FCFF3A00652EA900000006000200FA001E
:103F3000652EA80000352C000100200000000000C4
:103F400061005000E0805800FCFF3A0060EEA800DD
:103F5000538EA800444EA800520EA8006022EF0025
:103F60006222EF006422EF006822EF00401380001D
:103F7000F0BF9F0062A2A8006342A80062C2A8002E
:103F80006302A9006322A80062C2BF0031CEB30061
:103F9000014060000044A00062E2B70030C0B300FE
:103FA0006262B7006022EF0061E2A80050002000CA
:103FB000010020000000000061005000E080580077
:103FC000FCFF3A000080FA00000006000200FA0040
:103FD000889FBE008A9FBE008C1F780081457800B4
:103FE00002067800538EA900F90F2000090565002C
:103FF00001102A00010575000080FB0008F02F0069
:104000000805650000057500EC8057000A0078007F
:104010007DFF0700090565000010220000057500FE
:104020000B80FB000805650000057500EC8057005B
:104030000A00780074FF07000C80FB00080565008B
:1040400000057500EC8057000A0078006EFF07003D
:10405000CFF097000180FB008885650080857500A2
:104060000905650000102600000575004860DE00A7
:104070000805650000057500EC8057000A0078000F
:1040800061FF0700CFF097000180FB004800DD00D2
:104090008985650080857500538EA80000000000AA
:1040A0000000000000000000000000000B0078008D
:1040B0004F0678004F05BE004F04BE000080FA0096
:1040C000000006000200FA00538EA9000281FB00E6
:1040D00001102E00010171000080FB0001F02F0093
:1040E00001016100000171008F80E9000200780089
:1040F00045FF0700538EA800EFF897000180FB00F2
:104100000080FA0000000600889FBE008A1F780029
:10411000E85E200058E28A0048E28A0060C4250078
:104120001004A1001014A1000001EB0021C1B30094
:1041300010C1B300A5FF07000801780061C1B300FA
:1041400010C1B300A1FF0700F27F220081C1B300BC
:1041500010C1B3009DFF0700F0B325001080FB00E5
:1041600009F02F00090565000005750000B4250061
:104170001080FB004800DD00F80F200008056500F6
:10418000000575000A017800A1C3B30010C1B30097
:104190008EFF070010B425001080FB0009056500A4
:1041A0000005750020B425001080FB004800DD00EC
:1041B00008056500000575000A01780081C3B30099
:1041C00010C1B30081FF070030B425001080FB0050
:1041D000090565000005750040B425001080FB004E
:1041E0004800DD0008056500000575000A0178003B
:1041F00061C3B30010C1B30074FF070010C2B30065
:10420000B0FF07004F0578004F04BE000000060015
:10421000881F7800E85E200058E28A0048E28A00A1
:1042200060C425001004A1001014A1000001EB00DF
:1042300021C1B30010C1B30064FF0700080178007A
:1042400061C1B30010C1B30060FF0700F27F22001C
:1042500081C1B30010C1B3005CFF07004F047800B8
:104260000000060017FF070000482800E1012000B9
:104270000000000061005000E0805800FCFF3A00A0
:104280002AFF070000482800E1012000000000008C
:1042900061005000E0805800FCFF3A00000006007A
:1042A000889FBE00EFFF070049002000EDFF0700D8
:1042B00052AA250061C0B30010C1B30043FF07003C
:1042C00040062000010020000000000061005000B6
:1042D000E0805800FCFF3A000001EB0061C0B30031
:1042E00000C1B30039FF070051AA2500810F50001B
:1042F0001F003A0000C3B30072FF0700A00F2000A8
:10430000010020000000000061005000E080580023
:10431000FCFF3A000001EB00C1C3B30000C1B300D1
:104320002AFF0700000478000001EB0061C0B30021
:1043300000C1B30025FF07008000780000002C00BA
:10434000000064000A00320050AA2500808F50004F
:104350000700320000000000000000000000000024
:104360000000000068FF0700100020000300370075
:104370008904E900CDFF3A00090078004F04BE002F
:10438000000006000001EB0041C4B30000C1B3000F
:104390000EFF07000000D100610060000000060071
:1043A0000001EB00C1C3B30000C1B30007FF070069
:1043B0000000D1000000A2006100600000000600C3
:1043C000881F780068C425009840780061C06000AC
:1043D00007003200A0C1B3003AFF07001804A10093
:1043E00042E28200A1C1B30010C1B300F7FE070092
:1043F0004F047800000006000200FA00889FBE000B
:104400008A1F7800804178008104780002057800D6
:104410000200E0001D003400538EA900F20FB2002C
:1044200000102A00000171008380FB0000F02F00C3
:104430000001610001017100E8805700020078006E
:1044400071FE07000004EB00060037000210220096
:10445000E8805700020078006BFE07000FF8970015
:10446000805C78000804E8008A0F5400F7FF3A00E7
:1044700002102600E88057000200780062FE070064
:104480000FF89700804C7800538EA8004F057800F5
:104490004F04BE000080FA00000006001600FA007B
:1044A000889FBE008A9FBE008005780001057800C5
:1044B000C3FF07000001EB00C1C3B30000C1B3009C
:1044C000C2FE07000000A200E10460000000EB0053
:1044D0004A003A0042E2820052E28A00E1C2B3009E
:1044E00010C1B300B9FE070062012000FE80570032
:1044F00060C1B300C0FF07009FB0970041E28A008F
:104500002FB497000800E00005003A0060C42500C1
:104510001004A000AAFF0700080078003700370049
:1045200009417800F07F2200808F500001003600A2
:1045300012C0B300AFE0970061C06000010032001C
:1045400012C0B3001FE897000004E0000100320031
:1045500012C0B300BFB097000148A30001003200B1
:1045600012C0B300205F2000800F5400010036000D
:1045700012C0B3000178A300020032000204E00080
:1045800006003200C02B2900523E0200000000004D
:104590001FFF0700090078001800370070805700DF
:1045A00005000900B05D78006B00B1006000B1004B
:1045B0007680570001C4250005000900B058780036
:1045C0006000B1003FB89700E80F500002003A00C9
:1045D0006FF09700004D7800BFB897008060200012
:1045E000808F500002003A00FFF09700014D7800E4
:1045F00060C425001004A000100020004F05BE007C
:104600004F04BE000080FA00000006000200FA001D
:10461000889FBE008A1F780080417800810478005E
:10462000020578000200E0001D003400538EA9004E
:10463000F20FB20000102A00000171008380FB001D
:1046400000F02F000001610001017100E8805700B7
:1046500002007800ECFD07000004EB0006003700C4
:1046600002102200000171008904E800E880570070
:1046700002007800E4FD07000804E8001980FB0050
:104680008A0F5400F6FF3A00021026000001710064
:10469000E880570002007800DBFD0700538EA80079
:1046A0004F0578004F04BE000080FA0000000600AD
:1046B0001200FA00889FBE008A1F7800000478006C
:1046C00081447800020578000001EB00C1C2B3000C
:1046D00010C1B3003DFE07007201450041C1B300A7
:1046E00010C1B30039FE07000000EB00C0B79F0007
:1046F0006E004500D0B79F00748057000500090088
:10470000385878006000B1006800B1006E80570032
:10471000F1B3250005000900315878006000B100B0
:1047200080002000E1CF54000100320080602000B2
:10473000C0BF9F0022012000F880570050C1B30085
:10474000B2FF07004F0578004F04BE000080FA005A
:10475000000006000001EB00C1C3B30000C1B300BC
:104760001AFE07000028A3000200320000C2B300B6
:1047700054FE07000000060051E2820001004000E4
:1047800076014000F07F2200800F510004003600C7
:10479000702D2900523E020000000000C0FE3700CC
:1047A000E1C2B30010C1B30008FE3700889FBE000D
:1047B000800478000001EB00C1C2B30000C1B30067
:1047C00002FE07000004780009017800C1C2B300AE
:1047D00010C1B300FDFD0700080078004F04BE00C3
:1047E00000000600889FBE00800478000001EB00F6
:1047F000E1C2B30000C1B300F4FD0700000478007B
:1048000009017800E1C2B30010C1B300EFFD070059
:10481000080078004F04BE0000000600881F7800E2
:104820000104780051E2820081004000768140005E
:10483000F07F2200800F51000200360040E02D0082
:1048400000814000E1C1B30010C1B300DFFD0700EB
:104850000801780001C2B30010C1B300DBFD0700FE
:10486000C0C1B30017FE07000001EB0041C2B30056
:1048700000C1B300D5FD07004F047800000006001A
:10488000881F7800000478000001EB00E1C2B3004B
:1048900000C1B300CDFD070000017800E1C1B30005
:1048A00010C1B300C9FD07000801780001C2B300C0
:1048B00010C1B300C5FD0700C0C1B30001FE070071
:1048C0000001EB0041C2B30000C1B300BFFD07000F
:1048D0004F047800000006000200FA0012002000D9
:1048E0008F80E90060C1B300C3FE0700EFF89700B6
:1048F0000180FB000080FA0000000600881F78009D
:10490000010478000000E000050032000101780099
:104910008000780060C1B300B7FE070004003700D4
:1049200001017800E1C2B30080C1B300A7FD070018
:10493000080078004F047800000006000200FA002A
:10494000E0FF9F00120020008F80E90050C1B300FB
:104950002EFF07000080FA00000006000101780029
:104960008040780090C1B30098FD370001017800C5
:104970008000780050C1B30024FF37000001EB0035
:104980002153250000082000910F100001003A007B
:104990001200200002007800000006008000EB00FA
:1049A000205325001000E00001003A001100200013
:1049B0000100780000000600E26425009200780003
:1049C00000652500008040001000FB000109E800A0
:1049D0000000060070B282000165250081004000E1
:1049E000914078000000E80070B28A0000CDB3006A
:1049F00000C04000E94F50000C003600F0CBB3007F
:104A000000C04000E54F500002003E0090CCB300D3
:104A100005003700F0C9B30000C04000E54F50006A
:104A200004003E0090CAB30000C040000080FB00BC
:104A3000000006000007200090A98A0011C0B30002
:104A400040852500014878000000050080017800BD
:104A50000101780061B28A000000EB0070B28A00A8
:104A600083007800006525000C03040000000000AE
:104A7000881F780028532500823220008000EB0038
:104A8000080078001C0302000000000011C0B30001
:104A900040542500014878008000EB00010C7800AC
:104AA00040532500014878007085250001487800B2
:104AB00080852500014878004F047800000006003A
:104AC000708525001080FB00000006008085250011
:104AD0001080FB00000006007185250080487800EA
:104AE000000006008800FA00889FBE008A9FBE0072
:104AF000BA0137002A53250098A982000304200038
:104B0000830F5400A40032001B003E00110220005D
:104B1000810F54007100320008003E00F00F540075
:104B20004A00320000022000800F5400780032005A
:104B30000800E000320032009D0137001103200020
:104B4000810F54007400320004003E000003200076
:104B5000800F540096013A006D00370020032000BA
:104B6000800F54007A0032000000E800800F5400EB
:104B70008F013A007C00370012062000820F54009B
:104B8000B00032000F003E0001052000810F5400EC
:104B90008F00320004003E0010042000800F5400FB
:104BA00083013A007E00370010052000800F54007A
:104BB000910032006F004000800F54007C013A00E9
:104BC0009E00370001072000810F54004E01320083
:104BD00004003E0020062000800F540074013A00BB
:104BE000AC00370000082000800F5400690132003B
:104BF00070004000800F54006D013A0067013700DB
:104C000079852500100020003C2C020000000000E7
:104C10000004E00009003200A42C020000000000A3
:104C20000001200090A98A0011C0B3004053250064
:104C300001487800814C78006801370000072000A7
:104C400090A98A00884C780064013700E0112000A8
:104C5000020040000A0040009000FB000200E80053
:104C600070B28A00EDCF500005003200EACF50004C
:104C70000300320000C2B30080CF500008003A00A9
:104C8000405325001004E00054013A0080D882000F
:104C90000040A00080D88A000008200052003700A1
:104CA000105425000048EB00205425000048EB007C
:104CB00002022000A0C3B30080CF500001003200E8
:104CC0000207200092A98A000007200021C0B3003B
:104CD000800F5100330132004001370000032000F3
:104CE00090A98A0009542500194478004444DD0045
:104CF000884C780037FF070000447400884C780027
:104D00001054250010484400F05325000E003700D1
:104D100091A98A00100037002003200090A98A0082
:104D200009542500194478004444DD00884C78007B
:104D300028FF070000447400884C780010542500B8
:104D400010484400705425000848780023013700BB
:104D50003003200090A98A001EFF0700015425009F
:104D6000804878001D01370093A98A000954250066
:104D7000194478004444DD00884C780015FF070092
:104D800000447400884C78001054250010484400FA
:104D900060542500ECFF370010042000EDFF3700C1
:104DA00091A98A0009542500194478004444DD0083
:104DB000884C780007FF070000447400884C780096
:104DC0001054250010484400E0532500DEFF370052
:104DD00021542500F05325009140780090CF5000D9
:104DE000030039000006200090A98A00FB0037006C
:104DF00010052000D7FF370091A98A00095425002B
:104E0000194478004444DD00884C7800F1FE070026
:104E100000447400884C7800105425001048440069
:104E200022542500924078000180FB000A004000D7
:104E3000285898000149E800E800370092A98A0044
:104E4000C5FF37002006200090A98A0009542500DC
:104E5000194478004444DD00884C7800DDFE0700EA
:104E600000447400884C780010542500104444001D
:104E700008487800D900320020022900523E020082
:104E8000000000000007200090A98A0031C0B30094
:104E9000C40037000001200090A98A00E0532500DB
:104EA00010407800E14F50005000320003003900FC
:104EB000E44F500091003A008900370030AA820088
:104EC000010020008254250032054000A2854800E0
:104ED00000002B00A1002000800F5500818F5D0095
:104EE0001900360080C282008001E80083C28A0077
:104EF00042062000110009000280D8000100E000F5
:104F00002A003A0000F82F00008447008A9FBE0064
:104F1000831F780051032900811F78000800780062
:104F2000380302000000000008007800523E020032
:104F300000000000C0122000B413020000000000B6
:104F4000E88757001900370090C282008001E8000E
:104F500093C28A0042062000110009000280D80096
:104F60000100E0009D003A0000F82F000084470097
:104F70008A9FBE00831F7800B1052900811F780039
:104F800008007800380302000000000008007800E4
:104F9000523E020000000000201C2000B41302005A
:104FA00000000000E88757008C0037000A00BE00B0
:104FB0007E2A020000000000800078000000E0006F
:104FC000860032006A004000B10090008100550068
:104FD00001004000F15325001181FB00C154250060
:104FE0000C030200000000007C0037003054250054
:104FF0001004E000110032006000B8007E2A0200B8
:1050000000000000000178000000E0000B0032000A
:105010006000B800300198004101980010002400A1
:10502000200198001220A1006A004100A153250030
:1050300003000900315878004000B100898525003F
:10504000442A02000000000000082900523E02002D
:1050500000000000C8FB2F00088447005258F800E9
:10506000800A2900801F78000800780038030200B9
:105070000000000008007800523E0200000000001E
:105080005058F800410D2900811F78000800780071
:10509000380302000000000008007800523E0200C1
:1050A00000000000A4290200000000004053250079
:1050B0000048EB00200020003C2C02000000000013
:1050C000E88757000004E0000300320018140200D3
:1050D0000000000010C0B300804C78003F00370093
:1050E000D1542500A054250011487800C154250052
:1050F000B0542500114878003800370011C0B300C3
:105100004054250028003700020120008000EB00F9
:1051100000F72F000F0040001C03020000000000F9
:10512000408525001080FB00801F780000102900BA
:10513000801F7800C0F62F000F00400038030200E7
:1051400000000000C0F62F000F004000523E020099
:105150000000000000242400F1002000E487570034
:105160000000000061005000E0805800FCFF3A00A1
:10517000E06425000008EB00C06425000008EB0097
:1051800080D882000070A00080D88A000000FE0055
:1051900016003700000DEB001000370091A98A00BF
:1051A00061C0B30040852500014878000B0037003E
:1051B00080102900523E020000000000E06425003B
:1051C0000008EB00C06425000008EB0080D88200D6
:1051D0000070A00080D88A000400370072B28200FC
:1051E000C0642500900F510042FE39004F05BE00FB
:1051F0004F04BE000080FA00000006000200FA0022
:10520000A4028000F4BF9F00A10288001001BA0030
:105210009081BA007FB89700A00288000200BE000B
:105220000080FA00000006000200FA00A4028000DC
:10523000F4BF9F000102780063398800523988006A
:10524000A10F2000A1028800403988006F00600093
:1052500002082000E20F500001003200120020007E
:105260008000EB00060037009408BB00140090009B
:10527000640242008088BB008180E8000201E900EE
:105280000200E000F8FF3C000A00FC00500520008E
:1052900070398800A00A20007039880029E7A8002A
:1052A00000000000000000000000000000000000FE
:1052B00000000000000000002947E200FCFF35006C
:1052C0002827EF007FB89700A00288000080FA002E
:1052D0000000060061398800503988004239880092
:1052E0000800FC005005200070398800A00A20004A
:1052F0007039880029E7A8000000000000000000C5
:10530000000000000000000000000000000000009D
:105310002947E200FCFF35002827EF0000000600C7
:10532000C29123008000EB00200021001C0302003A
:10533000000000000000EB0010498A0000498A00CC
:10534000F0488A00000006003C00FA002049F800FE
:10535000E0102900801F780000FC2F000F004000A3
:10536000380302000000000000FC2F000F00400086
:10537000523E0200000000002249F800801229007D
:10538000801F7800C0FB2F000F0040003803020090
:1053900000000000C0FB2F000F004000523E020042
:1053A000000000001E49F80020142900801F78002A
:1053B00080FB2F000F0040003803020000000000B7
:1053C00080FB2F000F004000523E02000000000052
:1053D000EC8757000080FA00000006002100210041
:1053E00040002100910078001080500001003B0037
:1053F0007C004000F30F50000300340010C0B300E5
:105400001C35040000000000EA0F500003003C00BF
:105410000040EB001C350200000000000000060008
:10542000881F780020808000A12020008100B80023
:105430006400400028002100080040000008EB0044
:1054400020808000980F50000A0032000000E80021
:10545000FB0F5000010034000000EB0020808800AA
:10546000DEFF07004000210010007800980F500078
:1054700003003A0080D882000020A10080D88A0072
:105480004F0478000000060010808000A12020005A
:105490008100B80061002100810040001101780006
:1054A00063006100E10F500002003200C0152900C6
:1054B000100037001110A000200021009000E8002B
:1054C000FB8F5000010034008000EB004000210001
:1054D000908F50000200320011808800BFFF37001B
:1054E00000000000000000000000000000000000BC
:1054F000D0172900523E040000000000889FBE0023
:105500008A9FBE008C1F78000005BE00AC202000E2
:10551000108080008C00B800690021000904400060
:10552000180078000008A3001A0032000018A30039
:1055300013003A0000E02F00F11F20000A01600074
:105540000B80600080027800020278000400BE0038
:1055500038019000C8019000820F5000838F5800DE
:1055600026003200C8FF0700108080008C00B800C1
:105570000904400098007800618060000500320056
:10558000E0192900523E0200000000000004EB0078
:105590001A0037001800A00000E02F00F11F2000C3
:1055A0000A0260000B806000800078000400780030
:1055B0000001BE003204980043049800200024003B
:1055C00020049800F0FF20000200600001003A0073
:1055D0001820A0001830A0001840A0006A00440065
:1055E00002202000F10F20001C0302000000000038
:1055F00080D882000020A00080D88A0008007800AF
:105600004F0678004F05BE004F04BE0000000600A4
:10561000889FBE0080047800280420001844780089
:105620000884FB004544DE0091028000FF3FFC003F
:1056300042C0BF007F40600042E0B7009102880096
:1056400039009000C90090008100D1000080D30093
:10565000320024001FFF070091028000FF3FFC0082
:105660004544DD0042C0BF007F406000084070003C
:1056700042E0B700910288001920A1000049820091
:105680000000E80000498A004F04BE000000060048
:10569000889FBE0080047800280420001844780009
:1056A0000884FB004544DE0091028000FF3FFC00BF
:1056B00042C0BF007F40600042E0B7009102880016
:1056C000EA80440039019000C90190008301D100B3
:1056D0000281D30029009000D3FE070091028000D0
:1056E000FF3FFC004544DD0042C0BF007F4060003A
:1056F0000840700042E0B700910288001930A10014
:10570000104982000000E80010498A004F04BE00E2
:10571000000006000400FA00889FBE008A9FBE00B9
:105720008C1F780000047800EA044000C00090005C
:10573000300090008105D1000085D3002800900042
:105740006F0060000C082000E20F500011003200D2
:105750001C0020000F0037000A00BE00A7FE070053
:1057600090BF9F00A1BF9F003200200089007800F9
:105770006E805700D8020200000000000000E00028
:1057800007003A0062054500E0854D00E4844400CE
:105790000C06E9000C00E000EFFF3C0004003700BD
:1057A0001850A00080D882000070A00080D88A0025
:1057B0001840A100F04882000000E800F0488A008C
:1057C0004F0678004F05BE004F04BE000080FA006F
:1057D00000000600881F780020808000A1202000A3
:1057E0008100B800610021000104400098007800A9
:1057F00063806000E30F50001D003A000128A30001
:105800001000320038019000C80190000000200014
:10581000011F2000800F5100818F590006003A00BF
:1058200012140200000000001820A1001830A1008E
:105830001840A1000E0037000800780074FF070030
:105840000B0037000138A300030032000800780085
:105850008FFF0700060037000148A3000300320055
:1058600008007800ABFF070001003700ECFE0700DE
:105870004F047800000006000400FA00881F78003A
:1058800000047800E0002000810F20005BFE07008C
:10589000E10F540002003A000020A000020037008F
:1058A0000020A10001002000D0BF9F00E1BF9F00A9
:1058B00028042000184478000884FB004544DE00DA
:1058C00091028000FF3FFC0042C0BF007F406000AB
:1058D00042E0B70091028800E6805700E200200015
:1058E000830F2000000024004FFE0700910280007B
:1058F000FF3FFC004544DD0042C0BF007F40600028
:105900000840700042E0B70091028800E0002000EB
:10591000810F200039FE07005FB99700EFB99700AB
:10592000820F5000838F5800020032000040EB00CD
:105930000100370010C0B3000080FB004F04780066
:105940000080FA00000006003C00FA00881F780082
:105950008A9FBE000A002C00FB0720008A9FBE0021
:10596000F01B2900801F780080FB2F000F004000F3
:10597000380302000000000080FB2F000F004000F1
:10598000523E020000000000280420001844780065
:105990000884FB004544DE0091028000FF3FFC00CC
:1059A00042C0BF007F40600042E0B7009102880023
:1059B000A20024000A00BE0046FE070091028000FB
:1059C000FF3FFC004544DD0042C0BF007F40600057
:1059D0000840700042E0B700910288000049820050
:1059E0000000E80000498A00E68757004F05BE0026
:1059F0004F0478000080FA00000006004400DD003B
:105A0000C1B52500010040008040EB00014878004E
:105A1000114098008000EB00710098006011B80000
:105A20001200980023009800000006000000EB0020
:105A3000F2FF070010002000F0FF07002000200008
:105A4000EEFF070030002000ECFF070000C0EB0075
:105A500041BA25008048780001BA250080487800C6
:105A60000000060040BA250000C8EB000000060058
:105A7000889FBE008A1F78008004780003057800A4
:105A80004404DD00C0B525000004440010C0B3008C
:105A9000004C780011449800720498000880E800D7
:105AA000A2002000F10F20001C03020000000000F3
:105AB0006A049800090078004F0578004F04BE0082
:105AC0000000060010DD820000000600881F78003C
:105AD00000047800E002B000D623020000000000BD
:105AE00018DD8A004F04780000000600881F780047
:105AF0000004780068004000CE3A02000000000078
:105B0000E8DC8A004F04780000000600889FBE0091
:105B100080047800D0210200000000000004E000B2
:105B20000F00320048BA250000C0EB00984F10006B
:105B300004003A00094C78000000EB00D0DA8A003B
:105B4000E2FF07001880FB00890F500004003A00B4
:105B5000015C2000D0DA8200008050000100370094
:105B60000000EB004F04BE000000060080417800FA
:105B70000001EB0011DD8200F05B2000808F5000FF
:105B80000C003E00034078009E240200000000004C
:105B900010DD82000000E80010DD8A00D1DA82000A
:105BA000810F50000100310001007800D0DA8A0036
:105BB000120020000200780000000600881F780014
:105BC000004378000104780010DD8200010020000D
:105BD0006142B900025C2000030020000401510072
:105BE000858159000002EB00820F5000838F58001E
:105BF0000D0031008800780006407800AE240200D5
:105C00000000000010DD82000000440010DD8A006A
:105C1000D1DA8200810F50000100310001007800CC
:105C2000D0DA8A0014002000040078004F047800C5
:105C300000000600881F78008001780001047800C9
:105C400012DD8200005C200082005000888F50002E
:105C500001003100010478008800410011DD8A0054
:105C6000D0DA8200808F500001003600D1DA8A003D
:105C70008800780003007800B624020000000000CD
:105C8000080078004F04780000000600881F7800A4
:105C9000000478002C03020000000000800078005F
:105CA00008007800E3FF07000004440008007800C3
:105CB0004F047800000006000800FA00889FBE002C
:105CC0008A9FBE004ABA25001A407800E14F400082
:105CD0002B003200D1DA8200E88540000080FB0012
:105CE0004400DD00C9B525000900400070009000A7
:105CF000943D02000000000080BF9F001A80FB005E
:105D00004400DD000900400060009000943D020066
:105D10000000000090BF9F000B007800943D02003F
:105D200000000000A0BF9F000004EB00B8BF9F0070
:105D300020012000D6230200000000001A80FB0092
:105D40004400DD000080E800090040000B017800FD
:105D500011C1B300F83A02000000000081002000E9
:105D600070805700B624020000000000AA23020041
:105D700000000000E8DC8A00D8DA8A0000CDEB00E1
:105D80004F05BE004F04BE000080FA000000060070
:105D900001BA25009180FB000001EB00808F5000CC
:105DA00003003A00F1DC8200E0DC82000081500058
:105DB0000200780000000600881F780000047800C8
:105DC0000001EB00E1DC8200F0DC8200808F5000FB
:105DD000070031006C24020000000000004C780035
:105DE000E0DC82000000E800E0DC8A001200200015
:105DF000020078004F0478000000060000027800DE
:105E0000E3DC8200F2DC82000000EB00828F5100B4
:105E10000A00310003015100828F5000010036005A
:105E200082007800040078007E2402000000000058
:105E3000E1DC820081004000E1DC8A000000060015
:105E4000E0210200000000000000EB00E0DC8A001E
:105E5000F0DC8A0000BA250000C8EB000000060054
:105E6000F6874700889FBE008A9FBE008C9FBE00B9
:105E70008E1F780080047800010778008206780081
:105E80000006EB00ECDC8A00FCDC8A0081002000CC
:105E9000E0FD2F000F0040007E2402000000000003
:105EA0007FA89700943D020000000000F0AF9F0023
:105EB0000FB09700943D02000000000080B79F00E3
:105EC0001FB09700943D02000000000068005000E1
:105ED00090B79F002FB097000000E0002200320032
:105EE0009980FB00194090004800DD00010170001E
:105EF000A94090008180FB00394090004800DD00FF
:105F0000810170007A845700028CBE001E00BE0022
:105F1000D0B79F00E1B79F000C4C980010C1B300B0
:105F2000F0EF9F000D007800943D0200000000009B
:105F300080BF9F00C100200008007800C83D02001B
:105F4000000000000085EA000C007800CE3A020054
:105F5000000000000D007800402402000000000056
:105F60008A0F500036003A001E02BE0020B1250004
:105F70009080FB0030B125001080FB004800DD0060
:105F80000101700040B125009080FB0050B1250058
:105F90001080FB004800DD0081017000820F52007C
:105FA000838F5A0004003A008FB297000002EB0082
:105FB0004300200004003700E10F4200E08F4A0058
:105FC0001F003A00F8FF3700C420DD006E8040005B
:105FD000C2B5250002004000908F120015003A0063
:105FE00002804000104090000004E00009003200F0
:105FF00002804000FFA99700630098000180E8003C
:10600000020040000900090039587800A000B100E2
:10601000A900B10000BA2500044878001FB097001D
:10602000F0DC8A000000EB00B0FE0700100020004A
:10603000060037000402E8008301E900E2FF3A00AD
:10604000E0210200000000000000EB004F07780094
:106050004F06BE004F05BE004F04BE006F01B100E9
:106060000000060024490000000800008000000035
:10607000345C00000C00000080000000A65B000003
:10608000300000008200000000000000001000004E
:106090000000000000000000000000000000000000
:1060A0000000000000FF00000000000000000000F1
:1060B00000000000000000000000000000000000E0
:1060C00000000000000000005A5B00004C000000CF
:1060D00080000000585C0000040000008000000008
:1060E000405C00000C00000080000000265C000006
:1060F0000E000000800000005A5800000C02000052
:10610000820000000000FF0000000000000000000E
:10611000000000000000000000000000000000007F
:10612000000000000000000000000000000000006F
:10613000000000000000000000000000000000005F
:10614000000000000000000000000000000000004F
:1063C0004C5C000006000000800000003255000018
:1063D00028030000800000000210000022390000A5
:1063E00080000000065B00005400000080000000F8
:1063F000245100000E04000080000000665A0000D6
:10640000A000000082000000010000000000000069
:1064100000000A000000000000000000006400000E
:106420000000000000000000E80300000000000081
:1064300000001000270000000000000000A08600FF
:10644000010000000000000040420F0000000000BA
:106450000000800096980000000000000000E100AD
:10646000F50500000000000000CA9A003B00000093
:1064700000000000E40B5400020000000000E800EF
:1064800076481700000000000010A500D4E80000C6
:1064900000000000A0724E0018090000000040003B
:1064A0007A10F3005A0000000080C600A47E8D0020
:1064B0000300000000C16F00F2862300000000000E
:1064C0008A5D78004563010000006400A7B3B60050
:1064D000E00D000000E889000423C7008A000000E6
:1064E000D65B00002A00000082000000286E7500C4
:1064F0006C6C2900003031003233340035363700FF
:1065000038394100424344004546000030313200F2
:106510003334350036373800396162006364650012
:1065200066000000005C0000260000008200000001
:10653000025C54005C000000545C09000000000094
:10654000020052005C000000525C060002010000E4
:106550000000000000000000000006000202000031
:1065600000000000525C00000600000080000000F7
:106570005C5C0000020000008200000001000000DE
:10658000000000002648A9002628A9000648A90006
:1065900040E182000020A00040E18A0060C22500A6
:1065A0000008EB00064EA800066EA800044EA800E6
:1065B000026EA800004EA900006EA900048EA8007B
:1065C000008EA9001622EF000202200004CEBF00B8
:1065D0004200DE00610060000004A2004200DD0015
:1065E00041E02000914078000124A10080C07000AB
:1065F0000100780004EEB700A00020000100200098
:106600000000000061005000E0805800FCFF3A00EC
:106610000201E900EDFF3A00064EA800066EA80050
:10662000044EA800026EA800004EA800006EA8004C
:10663000048EA800008EA900B21088001782A8005E
:1066400020062000A0108800F03F2000D010880015
:10665000E2108800C010800070E18A0017E2A800F4
:106660000000060006C8BF0041E182000000D00023
:10667000680060000130A1008080700041E18A0064
:106680006880600003003200C010800070E18A0062
:106690000648A90030E1820001002000F30F5000FD
:1066A000E08F5800CD003E000006010013003700C7
:1066B00022003700240037002B0037003C00370051
:1066C00046003700C5003700C40037004B003700D4
:1066D0004D003700540037005C0037005E00370083
:1066E000890037009100370093003700A100370080
:1066F000A3003700AB003700B100370080C225008F
:106700001000780064016000B6003A0001C3250063
:10671000F00320001100600080E18A0052E18A004D
:1067200040E182000010A00040E18A00C01080001B
:1067300070E18A00100020009F0037001602A800B8
:10674000200020009C00370080C225001000780047
:1067500068006000A3003200000A2000901088004A
:10676000300020009400370080C22500100078001F
:10677000680060009B003200A0C225001942E200C0
:1067800005003D0091002000908F10002D003E007C
:1067900020012000880037000008EB0060E1820043
:1067A0004800DE0090108800400020008200370082
:1067B00080C2250010007800680060008900320067
:1067C0001942E2001F003500C0C225001080FB0006
:1067D00090108800500020007700370080C225000C
:1067E00010007800680060007E0032001942E2006C
:1067F00014003500800020006F0037001622A8002A
:10680000900020006C00370080C225001000780046
:106810006800600073003200100A200090108800A9
:10682000A00020006400370080C22500100078001E
:10683000680060006B003200B00020001942E200E6
:106840005D003D00000120005B0037001662A800DB
:10685000C00020005800370080C2250010007800DA
:10686000680060005F0032008110800090E18200CB
:106870000148780020C325001000E80090E18A005C
:10688000C2C225001200E80060E18A0000C32500B2
:106890001000E90080E18A004240A90004003C00A9
:1068A00040E182000040A10040E18A00080037007A
:1068B00041E18200F00320001200600002003A0073
:1068C0000140A100010037000140A00041E18A0021
:1068D00040E182004400DE000000A2006140600050
:1068E0004500DD0061212000914078000154A100A5
:1068F00080C070000100780016E2B7001682A80080
:10690000D00020002C00370040E182000038A300B6
:1069100034003200B10020000048A30001003A001A
:10692000E100200031E18A00000006001642A800C4
:10693000F00020002000370080C225001000780001
:1069400068006000270032008040EB0000C3250093
:106950001000E00001003C0011C0B30040E18200E3
:10696000E1806000C208DD000020A100010070008D
:106970000A0037001642A800100120000E00370060
:1069800080C2250010007800680060001500320009
:1069900040E182000020A0000010A10040E18A0038
:1069A0000B0037001642A800A0C225001000E80026
:1069B00050E18A003001200030E18A00000006002A
:1069C00080C22500100078006800600005003200D9
:1069D00060C225000008EB00000006000001200056
:1069E00030E18A00000006008180FB0081E18A001E
:1069F00090E18A0062E18A0040E182000000A1008B
:106A00000020A10040E18A0060C225000008EB00E0
:106A10000100370013FF070080C225001000780036
:106A200064006000FBFF320040E182000000D10002
:106A300061006000000006004286250061006000E1
:106A40004200DD00920078000120A1000089700062
:106A5000000006004200FA00889FBE0010002000DF
:106A6000C82E020000000000810F20000000E0009E
:106A70005200320021002000A0FB2F000F00400038
:106A8000FE2E020000000000E0852500BF78970080
:106A900001487800F08525002F799700024878009A
:106AA000F0C28200E20F50002B003200E30F5000D2
:106AB0002D003A0021002000A0FB2F000F00400015
:106AC000FE2E020000000000218625003F7897007E
:106AD00080487800308625002F799700024878009A
:106AE000008625001000E800910F50002F003E00A6
:106AF00010002000C82E02000000000000047800F2
:106B0000F01F2000800F540004003E0020C38200CC
:106B10000000A00020C38A000700370009202000E1
:106B2000890F540004003600201F2900523E020045
:106B300000000000090478008800780060862500C5
:106B4000FE2E02000000000088007800608625000C
:106B5000262502000000000020C382000010A000D3
:106B600020C38A0011003700C0FB2F0000844700BB
:106B7000020420008000EB00080078001C030200E3
:106B8000000000005E58F800D1202900811F780025
:106B900008007800380302000000000008007800B8
:106BA000523E020000000000E4875700202F020040
:106BB00000000000F0C282008080FB00010078002D
:106BC0004F04BE000080FA00000006003200FA0008
:106BD000889FBE00D1C28200F08F500016003200A4
:106BE00003003E000100E000080032004C003700C6
:106BF00008022000888F5000270032000003200088
:106C0000808F500046003A001800370053042000DF
:106C10000301780011C0B30010002000382D0200DD
:106C200000000000C185250080487800E14F400049
:106C30005D0032005300370086FF0700E24F50002E
:106C400059003A0080D882000000A1000010A00086
:106C500080D88A00008625000008EB0020862500E9
:106C60000008EB00000220004700370079FF070012
:106C7000E34F50004C003A00D8C28A0002A3210022
:106C8000E3112000E0C425001A3E020000000000CD
:106C9000D0C2820060E28A0049862500190078008F
:106CA0006404600040003A0010002000862D0200BD
:106CB000000000000000E0003B00320008407800C7
:106CC000B62D02000000000040C0B300B62D020047
:106CD000000000003086250010407800B62D02002C
:106CE000000000002086250010407800B62D02002C
:106CF000000000005C2E02000000000010C38200B3
:106D000000C38A00990478006180640001012000BA
:106D100001003A0001032000D1C28A001B003700A5
:106D200010002000862D0200000000000000E0009E
:106D30001D0032000040EB00B62D020000000000F4
:106D400050C0B300B62D0200000000000040EB0070
:106D5000B62D0200000000000040EB00B62D02003E
:106D600000000000A0222900462E020000000000C2
:106D70005C2E02000000000000242900523E0200A8
:106D80000000000000012000D0C28A0002A3210000
:106D9000E3112000E0C425001A3E020000000000BC
:106DA000D0C2820060E28A00A08525001000E000C9
:106DB0002700320070E2820081E28200E00F500082
:106DC000E08F580022003200E0C42500243E02007B
:106DD000000000000004E0001D003200A1FC2F00B4
:106DE0008F804000D0C282002C3D020000000000D5
:106DF00090252900523E020000000000A0FC2F0058
:106E00000F004000523E02000000000090272900C1
:106E1000523E02000000000000122A007100200013
:106E20000000000061005000E0805800FCFF3A00C4
:106E3000A08525000008EB00C085250000C8EB00F8
:106E40003825020000000000902902000000000028
:106E50004F04BE000080FA00000006001000780019
:106E6000943D04000000000010009000943D0400D8
:106E7000000000000400FA00889FBE008A1F78000E
:106E800000057800820478004812250010044400B0
:106E900001007800943D020000000000000C780022
:106EA00020002000943D0200000000001004980023
:106EB00009007800943D020000000000CF80DE0051
:106EC000B0BF9F00C1BF9F00640444006FF09700F3
:106ED000004C78007FF09700104498009A007800EA
:106EE00066804000000D78000008A3000100320019
:106EF000678D40004F0578004F04BE000080FA0007
:106F0000000006001000200020A98A0010002000C8
:106F10000100200040A98A0051A98A000000060053
:106F20008F08B000889FBE008A9FBE008C9FBE0065
:106F30008E1F780020A98200E20F50000600320068
:106F4000E30F500010003200E10F5000C0003A0083
:106F50002000200020A98A0073E42E0062E42E00A5
:106F600011C0B30030002000382D020000000000E6
:106F70006152250080487800E14F4000B6003200A1
:106F80003000200020A98A00605225001080FB00FC
:106F9000C82E020000000000800078000000E00021
:106FA000AD003200F03F2000808F5000010036001D
:106FB0000140200040122500FE2E020000000000CB
:106FC00040122500A5FF07000004780050062000AD
:106FD000800F54009A003A0040122500A2FF0700DB
:106FE000E20F500096003A0020898200943D020092
:106FF000000000008006EB00880F500004003A00FB
:1070000040898200943D0200000000008006780064
:107010008D00E90030022000808F500088003E0083
:1070200084003700A01225008CFF070000047800C0
:10703000A01225008CFF0700E0062000800F5400FE
:10704000750032000000E800800F5400020032009A
:107050008006EB007700370030002000862D02000C
:10706000000000000000E000720032004E12250017
:10707000024020008000EB000E0078001C0302009C
:1070800000000000903E2000943D0200000000003F
:1070900020898A0020002000943D020000000000AA
:1070A00030898A0040002000943D0200000000006A
:1070B000E0379F0080122500CFE896000148780055
:1070C000DFE896001140980060002000803F9F009C
:1070D00000F72F000086470032002000213F2000EB
:1070E0000C00780063FF070021F72F008184470020
:1070F000020820008000EB00090078001C03020059
:1071000000000000BC16020000000000801F780094
:1071100020302900801F7800090078003803020021
:10712000000000006F3097008E05400009007800D5
:107130002C030200000000000004780063054000FA
:10714000303F2000943D020000000000800D7800D8
:107150000A007800943D02000000000090059800AD
:1071600008007800943D020000000000D0379F0026
:1071700064804500AFE8960001487800BFE89600BB
:1071800011409800668045000801E80089007800F9
:107190000C030200000000006F30970080004500E3
:1071A00064804000E0379F00E48757000008A30098
:1071B0000200320065804000803F9F006025020091
:1071C000000000000081FB00714020000C007800EE
:1071D00028FF070066250200000000000081FB0078
:1071E000614020000C00780022FF07008F389700D4
:1071F0000E0078001A2E02000000000060E42E004D
:10720000D0DC8A005C2E020000000000202F02006B
:10721000000000000700370000122A007100200063
:107220000000000061005000E0805800FCFF3A00C0
:107230000000FE008D06E900E18F460079FF3A006C
:10724000202F020000000000300020000100370065
:107250001000200020A98A004F0778004F06BE00CA
:107260004F05BE004F04BE008F08B10000000600AD
:107270000200FA00889FBE008A9FBE000005BE0083
:107280008204780000102000419224000100500088
:1072900000844500160037000801780011C0B300D3
:1072A0006A805700F4340200000000006FF097007D
:1072B000004D78000801E8008984E9000900E80031
:1072C0004240A9000C00340011C0B300698057008F
:1072D000F4340200000000007FF097001045980091
:1072E0003FB89700801D78000A85E8000884E80010
:1072F0000900E000E8FF3C004F05BE004F04BE005F
:107300000080FA00000006000200FA00889FBE001C
:107310008A9FBE0080057800020578008184E8001D
:10732000104090000080FB0021F228000100400086
:1073300010447800100037002200200089007800F7
:107340006A805700CAFF0700EFF0970001406C0009
:107350000080FB0022F2280002004000FFF09700AE
:1073600090C068008180FB0082804000114478005A
:107370008984E8000A85E9000A00E000EEFF3C008D
:107380009B4F54000200320000C0EB009045980073
:107390004F05BE004F04BE000080FA00000006004A
:1073A000E14F50000700320003003900E24F500067
:1073B0000A003A0006003700E1CF500007003A000B
:1073C00005003700E2CF500004003A000200370009
:1073D0000104E00001003A00000005001000050073
:1073E0000400FA00889FBE008A9FBE008C1F7800B0
:1073F0000006780081047800020478000305780014
:10740000EC855700220020000B00780098FF070051
:1074100022002000880078006E80570094FF07004B
:107420000A017800890078000B007800B6FF070099
:107430000A017800880078006E805700B2FF0700CC
:10744000BFF097005FF09700D5FF07000004E00051
:1074500003003A00080178006E80570002003700F0
:10746000090178000B007800104090008000EB00CC
:10747000E14F4000050032008280E8000A017800F8
:107480000C0078007AFF070011002000010078004E
:107490004F0678004F05BE004F04BE000080FA0082
:1074A000000006002300200042A224004192240094
:1074B000CBFF07000080FB0000000600C300200097
:1074C00082A2240081922400C5FF07000080FB00F7
:1074D000000006006300200062A3240061932400E2
:1074E000BFFF07000080FB00000006002300200013
:1074F000E2A32400E1932400B9FF07000080FB0011
:10750000000006004300200022A42400219424004F
:10751000B3FF07000080FB000000060043002000CE
:1075200082A4240081942400ADFF07000080FB00AA
:107530000000060043002000E2A42400E19424009F
:10754000A7FF07000080FB000000060023002000CA
:1075500042A6240041962400A1FF07000080FB0002
:107560000000060023002000A2B02400A1A02400F7
:107570009BFF07000080FB00000006004301200085
:10758000E2B02400E1A0240095FF07000080FB008A
:1075900000000600C232040000000000A1C5250062
:1075A0009180FB0001004000BC23040000000000AB
:1075B000881F78000004780010009000943D0200BD
:1075C000000000001004980028009000943D020084
:1075D000000000002004980058009000943D020034
:1075E00000000000500498004F04780000000600DE
:1075F0001400FA00889FBE008A1F780000047800FB
:107600008204780042C1B300A0C52500024878007A
:1076100050C4B300E0E79F000040EB00F0E79F009C
:10762000F4844400C9B79F00C0E282000000E80073
:10763000C0E28A00D0B79F000005EB00EAB79F00C8
:1076400040C6B300E0EF9F00F1EF9F008ABF9F00AC
:1076500020B125009080FB0030B125001080FB0098
:107660004800DD000101700040B125009080FB0062
:1076700050B125001080FB004800DD008101700042
:1076800092BF9F00A3BF9F009880FB00184090000E
:107690004800DD0001017000A84090008180FB00DF
:1076A000384090004800DD0081017000B2BF9F00AB
:1076B000C3BF9F007A805700BDFF07004101200033
:1076C0007A805700C83D02000000000080BF9F0084
:1076D000640444000901780011C0B3000800780078
:1076E0005823020000000000410120007A8057006A
:1076F000B6240200000000000A0078004F05780060
:107700004F04BE000080FA00000006001400FA00DA
:10771000889FBE008A9FBE008C9FBE0080057800B7
:10772000810478000206BE004101200000FE2F0007
:107730000F0040007E240200000000000FE19700CF
:1077400082007800010FB20000042000808F5000FA
:1077500028003A00BFB09700F0F12F0000806000D1
:1077600024003A00EF406100C208DD00AAC52500F0
:10777000014D78008180FB000E2402000000000013
:10778000000478001A80FB00BC2302000000000007
:107790000800E00017003A0000FE2F000F00400034
:1077A00083FF07000B00E000030032000FB89700D2
:1077B0009FB89700808DBE006FB09700804C780016
:1077C0004800DE00904498007FB09700A0449800E5
:1077D0004800DE00B04498009FE89700014E780012
:1077E0009A80FB001FB09700810E5000100020000F
:1077F000010037000000EB004F06BE004F05BE0041
:107800004F04BE000080FA0000000600881F7800C8
:107810000004780010007800943D02000000000091
:10782000000C780018009000943D02000000000059
:107830001004980038009000943D02000000000001
:10784000300498004F047800000006001C00FA0085
:10785000889FBE008A1F7800A0E182000000E0003F
:1078600003003200E10F500073003A00300037008F
:10787000C1012000E0FD2F000F0040007E24020027
:1078800000000000E021020000000000E0FD2F00E9
:107890000F004000DDFF07007FA89700E10F5000B8
:1078A00067003A009FB0970060402000808F500032
:1078B00063003A002FB29700E10F52001C003A001B
:1078C00020B125009080FB0030B125001080FB0026
:1078D0004800DD000101700040B125009080FB00F0
:1078E00050B125001080FB004800DD0081017000D0
:1078F0003FB89700CFB89700820F5000838F580091
:107900004F003A006FB09700FFB09700B0E18A00D7
:10791000C1E18A003FB09700CFB09700D0E18A0064
:10792000E1E18A00DFB09700F1E18A00A4E18A007A
:107930002A002000AAB79F00F0845700D0E18200FF
:10794000E1E18200808CBE00F1E18200A1BF9F00D6
:10795000B0E18200C1E18200B0BF9F00C1BF9F00C3
:10796000D0210200000000008000EB000004E000D5
:10797000340032000000EB00D623020000000000BB
:1079800018002000F8AF9F000080200080B79F0003
:1079900060C0B300A0E79F0040C0B300B0E79F0005
:1079A0007A805700F1B325000500090031587800AE
:1079B0006000B10020B125009080FB0030B12500AF
:1079C0001080FB004800DD000101700040B125007F
:1079D0009080FB0050B125001080FB004800DD00C6
:1079E00081017000E2B79F00F3B79F00E0FD2F0018
:1079F0000F00400085FF0700C20120008A40780088
:107A0000090078005823020000000000C101200096
:107A1000E0FD2F000F004000B6240200000000002F
:107A2000AA230200000000000000EB00A0E18A0091
:107A300088007800030037000000EB00A0E18A0016
:107A400011002000010078004F0578004F04BE00AF
:107A50000080FA0000000600800178000000E000CD
:107A60001A0032000043EB000471220055C0B3003D
:107A7000A7002000811F7800110009008481D80030
:107A800000017800CF0078000200E00002003A0018
:107A90000604E0000500320000C3B3008058410036
:107AA0008410B8008081510016C0B300811F780097
:107AB000110009000782D80000027800CF0078008A
:107AC0008542E90003003200EAFF370000C3B3003B
:107AD000805878008048EB00000006000080FB0022
:107AE0004400DE00E94F5000030036007043B00050
:107AF0000080FB00000006000043B0000080FB0097
:107B0000000006006F406000E94F5000030036009F
:107B10007043B0000080FB00000006000043B0008E
:107B20000080FB00000006004801DE0001F02F008D
:107B300081806000828070004800DD008180FB0051
:107B40008080700001007800000006006011B8001D
:107B5000480ADE0006F02F000601610004017100F2
:107B6000480ADD00F50F20000501610004017100E5
:107B70004802DE0086816100848171004800DD00DA
:107B800085816100808171000200BE000000060056
:107B9000000278006011B800040037008180E9001D
:107BA0003400780000014100E0814900E18F50007D
:107BB000FAFF3E000100E0000500320014407800AA
:107BC0000080FB000100200002014000838148008A
:107BD0006118B80002004000E08048000100400049
:107BE0000080EA000000060080032000F008880002
:107BF0000080EB00D0088800E00888000000EB005F
:107C0000B0088800A00888001FE1A8000000060056
:107C1000A0088000B108800000000600A2088000D3
:107C2000B308800000015100818159000200BE00AC
:107C300000000600A4088000B50880000218420079
:107C400003904A0000000600A2088000B3088000EC
:107C50000002EB0030035100A0835900E0FF2F0029
:107C6000F1FF2700800F5300818F5B0001003E0071
:107C70001400200004007800000006000000EB0063
:107C8000901188008011880000042000C011880035
:107C90003162A80030E2A80031E2A8003342A80017
:107CA00000000600800078000900370033C2BF00E2
:107CB0000018A300FDFF3A000200FB00A01188009D
:107CC0008100E80033C2BF000018A300FDFF3A00A6
:107CD000114178000204E000F4FF3A0000000600C1
:0200000400FFFB
:108000004FC825000EFF2D000E0188000000000063
:108010000C000700801D2F00F10720000F00070053
:10802000000020000000E00002003200000002001A
:108030000000000044E102007F0000000040DA0080
:108040000000FE00606F20000000E000020032002F
:10805000F02F20009001880000000600A102880097
:10806000800078000000EB001A003700E28040003A
:1080700054A0B4009101BA00E280400054A0B400C2
:108080009102BA00E280400054A0B4000002EB006C
:10809000472BDE00F507B200A6018800602CE10046
:1080A00008003A000049EB000201E8000200390034
:1080B0003420EC0002F0A0008301E900F9FF3E004B
:1080C000040037006128E100010032000082EB006B
:1080D000040007001101BA000200E000E3FF3A00CB
:1080E0000000060004D0A300E20F49001C00390084
:1080F000810278003549BA000201E8000200390027
:108100003420EC0002F0A0008301E9000F003200EF
:108110002549BA000201E800020039003420EC00D1
:1081200002F0A0008301E900080032000400E00032
:108130000600320015C9BA000201E8000200390049
:108140003420EC0002F0A0008301E9008180E80007
:1081500054A0B4000300E000E2FF3A000000060073
:108160009102BA00055978008301E900F7FF320057
:10817000C82ADE00055978008301E900F3FF3200C8
:108180000400E000F1FF320011D9BA00EEFF370021
:108190000040DA000000FE00020AB900001BB9002E
:1081A0000200B80081004200810043000000060088
:1081B0000400FA00E0BF9F00E481570081297800A5
:1081C0000002EB000F0037006FB897009040780076
:1081D0007FB89700104078000402E80080CF50007C
:1081E000040032008180FB000080FB000080500012
:1081F000070037006FB897000000E800E0BF9F005D
:108200009309E800820F5200EFFF3A000000EB00F4
:108210000080FA0000000600000278008001EB00F8
:1082200002003700315A78008301E800828F510044
:10823000FCFF3A0000000600000278008001EB001D
:1082400002003700015A78008301E800828F510054
:10825000FCFF3A000000060010417800B1415100D7
:1082600003003A000000E8000204E000FAFF3A00D0
:108270000300FB0000000600800178000001780088
:1082800031407800005978000004E000FCFF3A001B
:108290000300780000000600800078003004E00051
:1082A000FEFF3A00010050000000E9000000060057
:1082B000810178000002EB000C003700904078004C
:1082C0000104E000030032000402E80093CF5000F4
:1082D000040032008180FB001380FB00008050000E
:1082E000000006000000E8008301E800820F520051
:1082F000F2FF3A00000005000C00FA00889FBE0063
:1083000000047800CFB09700F0FF2700D0BF9F0097
:108310008004EB0099BF9F0088BF9F00A8BF9F000B
:10832000200C2000B0BF9F0078815700708057005C
:10833000080007000FB89700094878000FB89700A9
:1083400008045000080078004F04BE000080FA00C6
:1083500000000600FE874700889FBE008A9FBE007F
:108360008C9FBE008E1F7800F0B79F000107780039
:1083700082BF9F000000EB00A0B79F009E02370065
:108380008006EB0050C2B30080CF500009003200DD
:108390000100FB00FFB09700A2020700E10F4000C0
:1083A00095023200AFB097008100E800A1B79F00AE
:1083B000910237009E407800D0C2B30080CF5000B9
:1083C0000C00320007003C006D40500080CF500090
:1083D0000A0032006B40400080CF50000E003A008F
:1083E0000800370000C3B30080CF50000A003A00F5
:1083F000060037000D30A000050037000D00A0007A
:10840000030037000D10A000010037000D20A00070
:108410000E07E800E7FF37000D18A3000100320047
:108420000D00A1000D38A300010032000D20A100B5
:108430000100FB0002FD2F0002004000E90F500088
:108440000D003E008001EB00C3B79F004FB29700C4
:10845000EA20B8009E00FB0001004000020040003E
:10846000C0B79F005E00FB0002004000E90F500013
:108470000B003E00F5FF37008002EB00C5B79F0000
:10848000A0C2B30080CF500005003A000FBE970095
:108490004C0078008CBF9F00C0B79F000E07E8001B
:1084A0008000EB00B1B79F00E0C2B3009E4F100008
:1084B00018003A000DE0A0008E00E8006440500073
:1084C000914F100002003200010778000C003700C5
:1084D0008FB997004302780083BF9F00B4B79F0015
:1084E0000E87E8000B003700BFB29700EA28B800FB
:1084F0000100400002004000B0B79F000E07E800F6
:108500009E00FB0002FD2F0002804000E90F50009A
:10851000F5FF3600BE407800E1D79F00C0C6B3002B
:1085200080CF5000220032000F003C006940500014
:1085300080CF50007700320004003C000104E000CE
:10854000310232006B4050000F00370040C6B300CC
:1085500080CF5000930032006540400080CF500033
:108560008B003A008F00370030C7B30080CF500037
:108570001A00320007003C006440500080CF5000D9
:10858000110032000040E80080CF500080003A0027
:108590000F00370050C7B30080CF5000800032007A
:1085A0006340400080CF500079003A000900370056
:1085B000000028000D48A30001003A00000120003F
:1085C00080867600D3FF37000D60A000750037006D
:1085D0000D50A0000D70A000720037000FBE970074
:1085E0004C0078008CBF9F00000478000000E00081
:1085F00001003A0068BD25008004EB00010037004F
:108600008104E80089007800088044001004E0003C
:10861000FBFF3A003FB097000000E000030032008B
:10862000890F500001003100800478008000EB00C9
:10863000E1AF9F004FB19700890F51000200360053
:1086400009005100E0AF9F004368DE00E1066000D2
:108650001B003A000D06780009003700FFB09700B4
:1086600000022000EF010700E10F4000030032008C
:10867000AFB197008301E800A3B79F000C06E800A4
:108680006FAA9700840F5600F4FF3A008082EB0037
:10869000E5AF9F000A003700880078003100FB003A
:1086A00001047800FFB09700DE010700E10F4000F1
:1086B000030032002FB697000C06E800ACB79F000D
:1086C0000900E90080047800E10F4000F2FF3A0061
:1086D0000006EB000D00E0000A003A00C60137007A
:1086E000FFB0970000022000CE010700E10F40001C
:1086F000030032002FB097000000E800A0B79F00F1
:108700000C06E800EFA89700810F5600F4FF3A002E
:10871000B90137000FB997004200780082BF9F006F
:10872000CF80DE0001017800820178000205BE00E2
:108730000004BE000203BE000002BE004822DE00AC
:10874000482EDD0004027600E4D79F000D48A30008
:108750000A0032000404E00008003200E14F420049
:108760000600320071FD2F000180470004487800A8
:10877000184098002900200002003700F0D79F0021
:108780001900200072FD2F0002844700A1FF37006E
:1087900063FD2F0003844700190020009DFF370070
:1087A0000D0CB3000D007800000CB20028003A0058
:1087B0000D00E00005003D000FBA97004405BE0023
:1087C0004404BE0084BF9F00140037000D48A3007E
:1087D0000B0032008FBA97004500BE0085BF9F0096
:1087E0004F89DE00CF91DE000002BE000203780058
:1087F000820378000605BE000404BE0007003700AF
:108800000FBE97004C0078008CBF9F0000047800DA
:10881000CFC4DE00090578008A057800E00F540017
:10882000E08F5C00E00F5D00E08F5D001F003D0009
:108830003D00B3006000B8006011B80008045000AB
:10884000898458000A0559008B85590017003700A4
:108850000D00E00005003D000FB897004005BE0088
:108860004004BE0080BF9F00100037000D48A300E9
:10887000070032000FBA97004400BE0084BF9F007B
:108880006011B8000205BE000004BE0007003700FA
:108890008FBA97004500780085BF9F0000047800DC
:1088A000090020000A0020000B0020003FB69700BE
:1088B0000C00E00007003A00E00F5400E08F5C007D
:1088C000E00F5D00E08F5D0002003A001000200024
:1088D000B0B79F008D007800010CB200E1B79F0097
:1088E00000042000808F50003000320003003C0064
:1088F0000100E000080032004000370000082000BE
:108900006FB19700800F510014003200000C20005E
:10891000800F510039003A0014C0B30065A625004D
:108920000B0037000400FB004300DD0005004000A1
:108930005001BE004000BE000040E10001C8E1005F
:1089400002D0E10003D8E1002B0039000442E80026
:10895000F44F5200F3FF3A002700370000012000D7
:10896000010020006011B80014C0B3000040E10015
:1089700001C8E10002D0E10003D8E1001E00390087
:10898000450020000000D0008180D2000281D2008A
:108990008381D2008502E900FAFF3A000442E80030
:1089A000F04F5200F1FF3A00130037008000200022
:1089B000010020006011B80014C0B3000040E100C5
:1089C00001C8E10002D0E10003D8E1000A0039004B
:1089D0003C0020000000D0008180D2000281D20043
:1089E0008381D2000C06E900FAFF3A000442E80055
:1089F000F54F5200F1FF3A00E4D79F00EFD0970007
:108A00000100FB003FB19700820F500002003D00C3
:108A1000E2D79F0004003700BFB19700808F51005C
:108A200001003D00B0B79F004FB297000400E00086
:108A30000400320063806600020032000402E90094
:108A4000C4B79F000DE8A3000B003200CFB297001F
:108A50003FB697008C8F520003003C000000EB00F3
:108A6000C0B79F0004003700CFB097003FB1970018
:108A700082805000C1B79F00EFD197000300FB0038
:108A80000002EB00D4AF9F00CFB29700808F52005E
:108A90000200340000805200D0AF9F000D28A300D8
:108AA00036003200E18066000D18A3000C00320091
:108AB000D00220000100E00001003A000080E9003F
:108AC000FFB09700D7000700E10F40000E00320012
:108AD0002FB697000C06E800ACB79F000A003700DD
:108AE0000100E00008003200FFB097000002200003
:108AF000CC000700E10F4000030032002FB09700C8
:108B00000000E800A0B79F00DFA897000100E00088
:108B10000F0032000006EB00FFB0970000032000BA
:108B2000C0000700E10F4000030032002FB19700A2
:108B30000201E800A2B79F000C06E800DFA9970039
:108B4000830F5600F4FF3A000002EB00D4AF9F0001
:108B5000BFB297004328DD00E1A5250001004000D9
:108B600090B79F004228DD006400500080B79F004E
:108B7000E32EB800FCAF9F00840037005FA8970089
:108B80000000E00011003200688066000F003A002B
:108B900000067800FFB0970000022000A100070047
:108BA000E10F400003003200AFB097008100E80001
:108BB000A1B79F000C06E8005FA99700820F56003E
:108BC000F4FF3A008001EB00D3AF9F00E180660024
:108BD0000D18A3000C003200D00220000100E000BC
:108BE00001003A000080E900FFB097008D00070007
:108BF000E10F4000D6FF32002FB297000402E800D8
:108C0000A4B79F00D2FF37000100E000D0FF320080
:108C1000FFB097000002200082000700E10F400033
:108C2000CBFF3200AFB297008502E800A5B79F00E6
:108C3000C7FF370000042000EFB09700808F50007E
:108C40003200320003003C000100E0000800320066
:108C50003F003700000820006FB19700800F5100DF
:108C600011003200000C2000800F510038003A0043
:108C70009FB197003302BE002303BE000800BE0070
:108C80000A01BE00D1010700A40020000500200059
:108C90006033B800D401070004C3B30004424000AD
:108CA000E4D79F002A003700D5BD2500D5B79F0027
:108CB0000D58A30002003A00E0BE2500D0B79F0087
:108CC00014002000050020006033B8008FB097002A
:108CD0008100E900050033000402D0008582D20043
:108CE0000683D2008783D200F9FF37000800BE0058
:108CF0000A01BE00B50107006F0060005FB1970078
:108D000000004100104078001000370014002000DF
:108D1000050020006033B8008C0178008301E90071
:108D2000050033000402D0008582D2000683D20001
:108D30008783D200F9FF37000800BE000A01BE0099
:108D4000A2010700674060000043B000E0D79F0029
:108D50006FD297000400FB00FFB0970031000700BE
:108D6000E10F400003003200AFB297008502E80037
:108D7000A5B79F001FB097006800500090B79F00F4
:108D80008FB09700E480500081B79F0063065600C3
:108D9000D0FF2F003FB197008010B8007FAA970046
:108DA0000000420063005000800F5600A1FF3A000F
:108DB0000D38A30010003200DFAA97000500E00084
:108DC0000D0034000006EB00FFB097000002200009
:108DD00014000700E10F4000030032002FB097009D
:108DE0000000E800A0B79F000C06E800DFA897008D
:108DF000810F5600F4FF3A00BE407800E1D79F0093
:108E00000104E0005EFD3A002FB097004F077800A4
:108E10004F06BE004F05BE004F04BE00EF01B1007B
:108E200000000600889FBE00000178000104780061
:108E3000B10090000118A300400032000198A30087
:108E400003003A00180090000000E0003B003A00E8
:108E50000190A0003104980082047800F90FB2005C
:108E6000180090000000E00002003A002800900086
:108E7000000C7800EA8F540006003A003800900099
:108E80000078A30003003A0088007800D00020009A
:108E9000E4FF0700180290006121B900580090001B
:108EA000E8009000800F5100818F59000B003200C4
:108EB0000400E800100498001800780009587800B1
:108EC000000C780011C0B300C0C72500014878002D
:108ED000EA8F54000600320019003700880078003D
:108EE000094078001900070080047800140037005A
:108EF000380090000088A300110032001801900093
:108F0000A8009000480090005300070098009000CF
:108F1000810F500004003200380090000003B300BD
:108F2000300498008084EB000000EB0010049800EF
:108F300028009000000C7800010037008084EB00CE
:108F4000090078004F04BE00000006000200FA008D
:108F5000889FBE00A0FF9F0001047800B100900030
:108F6000810478000904B200020032000000FB0016
:108F7000360037000118A30005003A000103B300D2
:108F800031049800190498000080EB002F0037008E
:108F9000580090000000E00006003A0048009000F1
:108FA00012002000E68057002B00070019049800EB
:108FB00024003700280090000000E00008003A007C
:108FC00080C7250020049800000C780020002000B5
:108FD00050049800100498000130A000310498005B
:108FE00018019000A8009000480090001A000700A7
:108FF00028009000000C78000080EB00100498001E
:1090000018007800AFF8970001587800000C78003D
:109010002FF89700EA4F50000A003A0038009000FD
:109020000088A3000700320018019000A8009000FB
:10903000480090000800070019049800A80090005C
:10904000010C7800AFF897000100FB004F04BE0050
:109050000080FA00000006000A00FA008001780093
:10906000E20F500027003E0010E48200E10F5000A4
:1090700008003200802320000000E00005003200DC
:1090800004232000252320004623200080017800AF
:109090000400370004222000252220004622200060
:1090A00083222000144090000004E00004003500FA
:1090B0008009EB00144090000074A000104298005A
:1090C000154090000028A30003003A0015409000CE
:1090D0000024A000904298008001EB0006003700B9
:1090E000154090000008A300FDFF32003100FB0096
:1090F000000B78008301E800828F5100F8FF3A00EE
:109100000800370030002000B0BF9F00C3BF9F00A1
:10911000D1BF9F00E2BF9F006A80570000C0DA0005
:109120006FB99700020078000080FA000000060086
:10913000881F7800000478005001BE004000BE0087
:1091400004004000858048000601490087814900ED
:10915000009CBE000294BE000400E1000588E1000E
:109160000690E1000798E100020031006800440029
:109170001008E8004F04780000000600F48747005C
:10918000889FBE008A9FBE008C9FBE008E1F780005
:109190000205BE000004BE00D4B79F00E5B79F00E3
:1091A000F6B79F0087BF9F000000EB00C0B79F008D
:1091B000B0B79F00A0B79F0090B79F0080B79F00F7
:1091C0000D042000BFB097004FB097000001400091
:1091D0000000E0000F003D004F08DE0000007100BD
:1091E000C0B79F004D00070001003D0012002000A5
:1091F0005000070001003D0012002000550007004C
:1092000061000700660007000F004000C8FF07006C
:10921000220037004F08DE0000067100CCB79F0027
:109220003E00070001003D00120020004100070041
:1092300001003D0012002000460007005200070018
:109240000FB297009FB297002FB39700BFB397005C
:10925000590007000000520081805A0002015B00A3
:1092600083815B0080B79F0091B79F00A2B79F00EA
:10927000B3B79F000007EB004F0007000020E1009C
:1092800001A8E10002B0E10003B8E10001003100F3
:109290001E0020000E005600C0B79F004FB297007E
:1092A0000400E0000700350010002000010020004D
:1092B0006011B80008047000898470000A0571000C
:1092C0008B8571008D06E900BEFF3A000400E000C6
:1092D00003003D00320007000F00400094FF07002C
:1092E0004FA897000000E00004003A000FB4970078
:1092F0009FB497002FB59700BFB597000800BE0038
:109300000A01BE004F0778004F06BE004F05BE00A1
:109310004F04BE004F01B100000006000180400074
:1093200090B79F000001EB008FB097000100E000B4
:10933000000006000200700090B79F00018040000E
:1093400080B79F000001EB00FFA897000100E0003C
:10935000000006000200700080B79F0001804000FE
:109360006FAA9700CF20DE0001007000F0AF9F00D1
:10937000040242000800BE000A01BE004F18DE00D1
:109380000002720000000600E4AF9F0008044400E1
:1093900089844C000A054D008B854D0000000600B5
:1093A0003FB29700CFB297005FB39700EFB397003B
:1093B00000FE2F00000006003FB09700CFB09700DE
:1093C0005FB19700EFB1970000000600881F78009A
:1093D00018002000881F780068FF07008F87E900C9
:1093E0004F04780000000600801FEB0063FF0700B9
:1093F0008F87E90000000600889FBE008A9FBE009C
:109400008C1F78000205BE000004BE00E00F500073
:10941000E08F5800E00F5900E08F59000C003D002C
:109420006000B8006011B80008045000898458003A
:109430000A0559008B8559001C0020001F000700F9
:1094400008003D00180007000006EB00050037008B
:109450000006EB001900070002003D000F000700A6
:109460001C0020000800BE000A01BE00D7FF070054
:109470000203BE000002BE000C00E000010032004A
:10948000060007000400BE000601BE004F0678007B
:109490004F05BE004F04BE00000006006000B8008B
:1094A0006011B800000037000402500085825800A7
:1094B000060359008783590000000600E00F5200A0
:1094C000E08F5A00E00F5B00E08F5B0000000600B9
:1094D000889FBE008A9FBE008C1F78000205BE00D8
:1094E0000004BE00E00F5000E08F5800E00F59006C
:1094F000E08F59000A003D006000B8006011B8001C
:1095000008045000898458000A0559008B855900C9
:109510001C0020001800070007003D000500370070
:109520000006EB001400070003003D006000B800D7
:109530006011B800150007000800BE000A01BE0057
:10954000A9FF07000203BE000002BE000C00E000FD
:10955000030032006000B8006011B8000B00070083
:109560000400BE000601BE004F0678004F05BE0095
:109570004F04BE0000000600E00F5200E08F5A00CA
:10958000E00F5B00E08F5B0000000600040250006B
:1095900085825800060359008783590000000600A1
:1095A0004C610000737400002052000065730000DD
:1095B000657400003A2000002020000000440000F4
:1095C00045560000454C00004F500000205200005E
:1095D000004D0000414300003A2000002020000020
:1095E000202000002020000020200000200000009B
:1095F0005365000072690000616C00003A200000B1
:109600002020000020200000202000000042000058
:10961000756900006C740000206F00006E3A000055
:109620002020000020200000204F00006374000074
:1096300020200000322000003230000031370000CE
:1096400020300000393A0000333700003A30000083
:10965000360D00000A00000004000000424C00002B
:1096600020520000657600003A2000002020000013
:10967000202000002020000053470000343200006A
:1096800034200000426F00006F740000204C000086
:109690006F6100006465000072200000002300007C
:1096A00023230000232300002323000023230000A2
:1096B0002320000053470000343200003420000013
:1096C000424F00004F540000204C00004F4100006A
:1096D0004445000052200000202300002323000006
:1096E000232300002323000023230000230D000078
:1096F0000A0000002323000023230000232300008E
:109700002323000023230000232300002323000041
:109710002323000023230000232300002323000031
:109720002323000023230000232300002323000021
:109730002323000023230000232300002323000011
:10974000232300000D0A000000500000726F00008B
:1097500064750000637400003A20000020200000BF
:109760002020000020000000436F000070790000FE
:109770007269000067680000743A00002020000051
:10978000202000003230000031370000204100006E
:109790007070000061720000656E0000742C0000A3
:1097A000204900006E6300002E2000000D0A00001A
:1097B000004A0000554D000050200000544F0000AA
:1097C00020410000505000000D0A0000000D000074
:1097D0000A4200004F4F0000543A000020490000A8
:1097E0004E560000414C0000204100005050000047
:1097F0002C2000005245000053450000540D00008D
:109800000A0000000D0A00000D0A000000410000DF
:109810005449000052410000303000003030000058
:10982000000D00000A000000485700002000000062
:10983000425200004F5700004E2000000049000037
:10984000444C000045200000005300004C4500003F
:109850004550000020000000574400005420000044
:10986000005300005720000000450000585400003D
:1098700020000000494C00004C450000474100001A
:109880004C20000000540000524100005020000015
:10989000000D00000A4200004F4F0000543A000043
:1098A0002041000053530000494700004E4500008E
:1098B0004420000049500000203D00002025000009
:1098C000752E0000257500002E250000752E000065
:1098D000257500000D0A0000000D00000A4200007E
:1098E0004F4F0000543A0000204300004F4E00004C
:1098F0004649000047550000524500004420000042
:1099000049500000203D000020250000752E000079
:10991000257500002E250000752E0000257500001D
:109920000D0A00000058000045540000200000000F
:109930000D0A0000424F00004F5400003A20000082
:109940004455000045540000204E00004F540000D4
:10995000204F0000504500005241000054490000D3
:109960004F4E0000414C00000D0A00000042000074
:109970004C3A00002077000061690000742000006C
:109980000073000065630000200D0000000D000062
:109990000A4200004F4F0000543A000020530000DC
:1099A0006F66000074200000576400006F670000BD
:1099B00020540000696D0000656F000075740000A0
:1099C0000D0A0000000D00000A4200004F4F000089
:1099D000543A000020460000616900006C750000E8
:1099E000726500002052000065730000657400007D
:1099F0000D0A000000000000424C00003A20000068
:109A000048450000582000006368000065630000BE
:109A10006B730000756D00000D0A0000000D000062
:109A2000626F00006F740000207200006563000028
:109A3000202500006420000028610000646400000C
:109A40007220000030780000256C000058290000CA
:109A5000202E00002E2E000020690000676E0000FE
:109A60006F72000065640000000D00000A520000E3
:109A700045560000362000005349000047200000F2
:109A80004F4B00003A200000505200004F430000AE
:109A9000454500004544000020570000495400009F
:109AA00048200000444F0000574E00004C4F00007B
:109AB000414400000D0A0000000D00000A520000A1
:109AC0004556000036200000524500005155000068
:109AD0004952000045440000204200005554000057
:109AE000204D000049530000534900004E4700003C
:109AF000202D0000204400004F5700004E4C000075
:109B00004F4100004420000052450000465500002F
:109B100053450000440D00000A0000000D620000E3
:109B20006F6F000074200000726500006320000069
:109B300025640000202800006164000064720000B9
:109B400020300000782500006C580000292000001B
:109B50002E2E00002E20000061700000706C0000AE
:109B60006965000064000000424C00003A200000DB
:109B70005357000054590000504500002065000074
:109B8000727200006F7200000D0A0000000D0000EC
:109B90000A4500004F4600002C20000058460000F7
:109BA00045520000204300004F4D0000504C000083
:109BB00045540000450D00000A0000002564000027
:109BC00020720000656300006F7200006473000083
:109BD00020690000676E00006F720000656400007D
:109BE00020620000792000006C6F000061640000BA
:109BF000657200000D0A00000025000064200000CE
:109C0000617000007020000072650000636F00004A
:109C1000726400007320000061700000706C00002E
:109C2000696500006420000062790000206C00007B
:109C30006F61000064650000720D00000A00000002
:109C4000424C00003A200000484500005820000027
:109C5000726500006320000065720000726F0000F2
:109C6000720D00000A00000048540000202500008A
:109C7000750D00000A00000048540000440D00006B
:109C80000A0000000D0A0000447500006574000021
:109C9000537000006944000061740000613A0000E4
:109CA00020650000727200006F7200000D0A000053
:109CB0000D0A0000000D00000A4400007565000058
:109CC000745300007069000044610000746100007A
:109CD0003A200000746900006D6500006F75000097
:109CE000740D00000A0D00000A0000004D41000044
:109CF000434700006574000048650000616400008F
:109D0000657200003A2000004D410000435F0000F2
:109D100052580000535400004F5000000D0A00003C
:109D2000004D0000414300004765000074480000FA
:109D30006561000064650000723A0000204E00007A
:109D40004558000054500000414300004B450000BE
:109D5000540D00000A0000004D4100004347000080
:109D600065740000486500006164000065720000D1
:109D70003A20000062690000747300002E7A00002F
:109D8000657200006F0D00000A0000004D410000E8
:109D900043470000657400004865000061640000EE
:109DA000657200003A2000006372000063650000E5
:109DB000727200006F7200000D0A0000004D00007A
:109DC00041430000476500007448000065610000E1
:109DD00064650000723A000020620000797400009F
:109DE000656300006F7500006E7400000D0A0000CE
:109DF000004D00004143000047650000744800002A
:109E00006561000064650000723A00002072000085
:109E1000656300006569000076650000204E000063
:109E20004F540000206F00006B0D00000A0000007E
:109E30004D4100004320000046410000554C000009
:109E4000543A0000204200005546000046450000FC
:109E500052530000205200004553000045540000BA
:109E60000D0A0000004D0000414300005365000052
:109E700074520000656100006450000074720000BC
:109E8000496E0000527800003A200000527800002D
:109E90002062000075660000666500007220000008
:109EA0006F76000065720000666C00006F7700003E
:109EB0000D0A00000D0A000000000000000700006D
:109EC0000E0900001C1B000012150000383F0000A6
:109ED00036310000242300002A2D00007077000096
:109EE0007E7900006C6B000062650000484F000046
:109EF00046410000545300005A5D0000E0E70000B6
:109F0000EEE90000FCFB0000F2F50000D8DF0000E5
:109F1000D6D10000C4C30000CACD00009097000055
:109F20009E9900008C8B000082850000A8AF000085
:109F3000A6A10000B4B30000BABD0000C7C0000075
:109F4000C9CE0000DBDC0000D5D20000FFF8000025
:109F5000F1F60000E3E40000EDEA0000B7B0000015
:109F6000B9BE0000ABAC0000A5A200008F880000C5
:109F700081860000939400009D9A00002720000035
:109F8000292E00003B3C0000353200001F18000065
:109F900011160000030400000D0A000057500000D5
:109FA000595E00004B4C0000454200006F68000005
:109FB00061660000737400007D7A0000898E0000E5
:109FC00087800000959200009B9C0000B1B60000C5
:109FD000BFB80000ADAA0000A3A40000F9FE000075
:109FE000F7F00000E5E20000EBEC0000C1C6000065
:109FF000CFC80000DDDA0000D3D40000696E000095
:10A0000067600000757200007B7C00005156000004
:10A010005F5800004D4A000043440000191E000034
:10A0200017100000050200000B0C000021260000A4
:10A030002F2800003D3A0000333400004E49000054
:10A0400040470000525500005C5B00007671000044
:10A05000787F00006A6D0000646300003E390000F4
:10A0600030370000222500002C2B000006010000E4
:10A07000080F00001A1D000014130000AEA9000014
:10A08000A0A70000B2B50000BCBB00009691000084
:10A09000989F00008A8D000084830000DED90000B4
:10A0A000D0D70000C2C50000CCCB0000E6E1000024
:10A0B000E8EF0000FAFD0000F4F300002564000062
:10A0C00020700000676D0000206D0000656D0000CD
:10A0D00020450000524100005345000020200000B0
:10A0E000636F0000756E0000740D00000A00000030
:10A0F0002564000020700000676D0000206D0000E6
:10A10000656D0000205700005249000054450000D2
:10A1100020200000636F0000756E0000740D0000C9
:10A120000A0000002564000020700000676D000038
:10A13000206D0000656D00002056000045520000B3
:10A140004946000059200000636F0000756E000052
:10A15000740D00000A0000000D0A0000426F0000AC
:10A160006F7400006C6F0000616400006572000095
:10A170003A200000466C0000617300006820000077
:10A1800071750000657500006520000066610000C3
:10A19000696C00000D0A0000000D00000A4200007A
:10A1A0006F6F0000746C00006F6100006465000058
:10A1B000723A0000204600006C61000073680000E5
:10A1C00020710000756500007565000020660000C4
:10A1D000756C00006C0D00000A0000000D0A000004
:10A1E000426F00006F7400006C6F0000616400003B
:10A1F000657200003A200000466C000061730000A8
:10A2000068200000616C00006C6F0000632000009B
:10A2100066610000696C00000D0A0000000000008B
:10A22000424F00004F5400002F54000046540000DD
:10A23000503A0000206400006174000061200000BA
:10A24000746F00006F2000006C6F00006E670000EC
:10A250000D0A0000004200004F4F0000542F000084
:10A2600054460000545000003A200000424F0000C5
:10A2700047550000532000004F500000434F00009E
:10A280004445000020250000750D00000A00000074
:10A29000536F00006D65000074680000616E00007F
:10A2A00067200000676F0000656400002062000006
:10A2B000616400006464000064000000426F0000FC
:10A2C0006F7400006C6F0000616400006572000034
:10A2D0003A20000054460000545000002065000061
:10A2E000727200006F7200000D0A0000000D000085
:10A2F0000A54000046540000502000005341000062
:10A300004E4900005459000020540000494D0000FF
:10A31000454F0000555400002C200000535400000D
:10A3200041540000452000003D20000000200000B6
:10A330002D200000474F0000204800004F4D000036
:10A34000452100000D0A0000000000002A00000066
:10A350005347000034320000342000005550000004
:10A36000444100005445000052200000520000000B
:10A370005347000034320000342000004D470000F5
:10A38000494200004C20000052000000889FBE009F
:10A3900001047800C800DE00C2CFB30002C1600033
:10A3A0000214A0000104A000C808DD00F00FB200F4
:10A3B0000100700013C0B30009F4210040138800AD
:10A3C00060C2BF000018A300FDFF3A0060C2BF00DA
:10A3D0000008A300FAFF3200411380000304E000EC
:10A3E0000E003A004808DE00824F500003003A0099
:10A3F000010C78000000EB00110037000008A300FA
:10A400000600320020E42C0090FF02007F000000D4
:10A41000000CEB0010002000090037008904E9005F
:10A420000000EB0080417800E4FF3A00B0E52C002A
:10A4300090FF02007F000000090C7800200020003F
:10A440004F04BE000000060061E2A900444EA900CE
:10A45000520EA900538EA90035EEA900530EA90093
:10A4600064CEA90062EEA900650EA900404EA900C5
:10A47000500EA900518EA90031EEA900510EA9007D
:10A4800060CEA90060EEA900610EA900612EA900AE
:10A4900000352C0001002000000000006100500089
:10A4A000E0805800FCFF3A00652EA900000006007D
:10A4B0000200FA00652EA80000352C0001002000E3
:10A4C0000000000061005000E0805800FCFF3A00EE
:10A4D00060EEA800538EA800444EA800520EA800BB
:10A4E0006022EF006222EF006422EF006822EF009A
:10A4F00040138000F0BF9F0062A2A8006342A80042
:10A5000062C2A8006302A9006322A80062C2BF0061
:10A5100031CEB300014060000044A00062E2B70009
:10A5200030C0B3006262B7006022EF0061E2A800B1
:10A5300050002000010020000000000061005000D9
:10A54000E0805800FCFF3A000080FA00000006009E
:10A550000200FA00889FBE008A9FBE008C1F780010
:10A560008145780002067800538EA900F90F20007B
:10A570000905650001102A00010575000080FB0037
:10A5800008F02F000805650000057500EC805700F5
:10A590000A0078007DFF0700090565000010220011
:10A5A000000575000B80FB000805650000057500BF
:10A5B000EC8057000A00780074FF07000C80FB0055
:10A5C0000805650000057500EC8057000A0078005A
:10A5D0006EFF0700CFF097000180FB0088856500C3
:10A5E00080857500090565000010260000057500CE
:10A5F0004860DE000805650000057500EC80570026
:10A600000A00780061FF0700CFF097000180FB008F
:10A610004800DD008985650080857500538EA8009F
:10A62000000000000000000000000000000000002A
:10A630000B0078004F0678004F05BE004F04BE00A7
:10A640000080FA00000006000200FA00538EA90004
:10A650000281FB0001102E00010171000080FB004F
:10A6600001F02F0001016100000171008F80E900FD
:10A670000200780045FF0700538EA800EFF897000E
:10A680000180FB000080FA0000000600889FBE00E9
:10A690008A1F7800E85E200088E38A0078E38A0059
:10A6A000C0C625001004A1001014A1000001EB0099
:10A6B00021C1B30010C1B300A5FF07000801780055
:10A6C00061C1B30010C1B300A1FF0700F27F2200F7
:10A6D00081C1B30010C1B3009DFF0700F0B3250096
:10A6E0001080FB0009F02F000905650000057500CA
:10A6F00000B425001080FB004800DD00F80F2000AA
:10A7000008056500000575000A017800A1C3B300C3
:10A7100010C1B3008EFF070010B425001080FB00AD
:10A72000090565000005750020B425001080FB00B8
:10A730004800DD0008056500000575000A01780085
:10A7400081C3B30010C1B30081FF070030B42500FE
:10A750001080FB00090565000005750040B4250068
:10A760001080FB004800DD0008056500000575004D
:10A770000A01780061C3B30010C1B30074FF070081
:10A7800010C2B300B0FF07004F0578004F04BE00B1
:10A7900000000600881F7800E85E200088E38A0039
:10A7A00078E38A00C0C625001004A1001014A1009F
:10A7B0000001EB0021C1B30010C1B30064FF07002A
:10A7C0000801780061C1B30010C1B30060FF070049
:10A7D000F27F220081C1B30010C1B3005CFF07000B
:10A7E0004F0478000000060017FF0700004828000B
:10A7F000E10120000000000061005000E0805800EE
:10A80000FCFF3A002AFF070000482800E101200071
:10A810000000000061005000E0805800FCFF3A009A
:10A8200000000600889FBE00EFFF070049002000DF
:10A83000EDFF070052AA250061C0B30010C1B300AC
:10A8400043FF070040062000010020000000000038
:10A8500061005000E0805800FCFF3A000001EB006E
:10A8600061C0B30000C1B30039FF070051AA250041
:10A87000810F50001F003A0000C3B30072FF0700B1
:10A88000A00F200001002000000000006100500027
:10A89000E0805800FCFF3A000001EB00C1C3B300A8
:10A8A00000C1B3002AFF0700000478000001EB009C
:10A8B00061C0B30000C1B30025FF0700800078002D
:10A8C00000002C00000064000A00320050AA25009D
:10A8D000808F5000070032000000000000000000E0
:10A8E000000000000000000068FF070010002000CA
:10A8F000030037008904E900CDFF3A000900780021
:10A900004F04BE00000006000001EB0041C4B3008C
:10A9100000C1B3000EFF07000000D100610060001D
:10A92000000006000001EB00C1C3B30000C1B3008A
:10A9300007FF07000000D1000000A20061006000D6
:10A9400000000600881F7800C8C6250098407800DF
:10A9500061C0600007003200A0C1B3003AFF0700E9
:10A960001804A10072E38200A1C1B30010C1B300BA
:10A97000F7FE07004F047800000006000200FA000E
:10A98000889FBE008A1F780080417800810478008B
:10A99000020578000200E0001D003400538EA9007B
:10A9A000F20FB20000102A00000171008380FB004A
:10A9B00000F02F000001610001017100E8805700E4
:10A9C0000200780071FE07000004EB00060037006B
:10A9D00002102200E8805700020078006BFE07009A
:10A9E0000FF89700805C78000804E8008A0F540094
:10A9F000F7FF3A0002102600E880570002007800B6
:10AA000062FE07000FF89700804C7800538EA80074
:10AA10004F0578004F04BE000080FA0000000600D9
:10AA20001600FA00889FBE008A9FBE00800578004D
:10AA300001057800C3FF07000001EB00C1C3B300AC
:10AA400000C1B300C2FE07000000A200E1046000E4
:10AA50000000EB0060003A0072E3820082E38A00AB
:10AA6000E1C2B30010C1B300B9FE070062012000CB
:10AA7000FE80570060C1B300C0FF07009FB0970081
:10AA800071E38A002FB497000800E00005003A0047
:10AA9000C0C625001004A000AAFF07000800780027
:10AAA0004D003700F07F2200808F500002003E00F2
:10AAB000094178000400370060E72C0090FF020095
:10AAC0007F00000012C0B300AFE0970061C06000DB
:10AAD0000400320010E92C0090FF02007F0000000B
:10AAE00012C0B3001FE897000004E0000400320029
:10AAF000C0EA2C0090FF02007F00000012C0B300EB
:10AB00003FB097000048A3000400320060EC2C0026
:10AB100090FF02007F00000012C0B300AFB09700AA
:10AB2000205F2000808F500004003600F0ED2C00E4
:10AB300090FF02007F00000012C0B3003FB09700FA
:10AB40000078A30004003A0090EF2C0090FF020070
:10AB50007F000000020037000204E000060032001F
:10AB600080F12C0090FF02007F00000009FF070029
:10AB70000000EB0018003700708057000500090046
:10AB8000B05D78006B00B1006000B10076805700C6
:10AB900061C6250005000900B05878006000B100CA
:10ABA0003FB89700E80F500002003A006FF097009E
:10ABB000004D7800BFB8970080602000808F500063
:10ABC00002003A00FFF09700014D7800C0C6250052
:10ABD0001004A000100020004F05BE004F04BE006E
:10ABE0000080FA00000006000200FA00889FBE0004
:10ABF0008A1F78008041780081047800020578007F
:10AC00000200E0001D003400538EA900F20FB200D4
:10AC100000102A00000171008380FB0000F02F006B
:10AC20000001610001017100E88057000200780016
:10AC3000D6FD07000004EB000600370002102200DA
:10AC4000000171008904E800E880570002007800E4
:10AC5000CEFD07000804E8001980FB008A0F5400AD
:10AC6000F6FF3A000210260000017100E88057004C
:10AC700002007800C5FD0700538EA8004F0578003C
:10AC80004F04BE000080FA00000006001200FA0027
:10AC9000889FBE008A1F78000004780081447800F5
:10ACA000020578000001EB00C1C2B30010C1B3007F
:10ACB00027FE07007201450041C1B30010C1B30077
:10ACC00023FE07000000EB00C0B79F006E004500A8
:10ACD000D0B79F00748057000500090038587800ED
:10ACE0006000B1006800B1006E805700F1B325002C
:10ACF00005000900315878006000B1008000200094
:10AD0000E1CF54000100320080602000C0BF9F00EE
:10AD100022012000F880570050C1B300B2FF0700A5
:10AD20004F0578004F04BE000080FA0000000600C6
:10AD30000001EB00C1C3B30000C1B30004FE070073
:10AD40000028A3000200320000C2B3003EFE07004C
:10AD50000000060081E3820001004000760140000F
:10AD6000F07F2200800F51000400360030F32C00E9
:10AD700090FF02007F000000AAFE3700E1C2B3008E
:10AD800010C1B300F2FD3700889FBE008004780038
:10AD90000001EB00C1C2B30000C1B300ECFD07002D
:10ADA0000004780009017800C1C2B30010C1B300EB
:10ADB000E7FD0700080078004F04BE000000060011
:10ADC000889FBE00800478000001EB00E1C2B30060
:10ADD00000C1B300DEFD070000047800090178001F
:10ADE000E1C2B30010C1B300D9FD0700080078002C
:10ADF0004F04BE0000000600881F780001047800A0
:10AE000081E382008100400076814000F07F2200D3
:10AE1000800F51000200360040E02D00008140000C
:10AE2000E1C1B30010C1B300C9FD070008017800FB
:10AE300001C2B30010C1B300C5FD0700C0C1B3001B
:10AE400001FE07000001EB0041C2B30000C1B300E6
:10AE5000BFFD07004F04780000000600881F78003F
:10AE6000000478000001EB00E1C2B30000C1B300B0
:10AE7000B7FD070000017800E1C1B30010C1B300C5
:10AE8000B3FD07000801780001C2B30010C1B30090
:10AE9000AFFD0700C0C1B300EBFD07000001EB00F0
:10AEA00041C2B30000C1B300A9FD07004F04780000
:10AEB000000006000200FA00120020008F80E90066
:10AEC00060C1B300ADFE0700EFF897000180FB0002
:10AED0000080FA0000000600881F78000104780056
:10AEE0000000E000050032000101780080007800D9
:10AEF00060C1B300A1FE0700040037000101780023
:10AF0000E1C2B30080C1B30091FD070008007800E2
:10AF10004F047800000006000200FA00E0FF9F00E6
:10AF2000120020008F80E90050C1B3002EFF0700FF
:10AF30000080FA00000006000101780080407800DF
:10AF400090C1B30082FD37000101780080007800D5
:10AF500050C1B30024FF3700A0BA25001000E00064
:10AF60000C003200C0BB250080C0EB0090CF100069
:10AF70000200320000022000010037000001200022
:10AF800050DD8A00A0BB25000008EB0060BA250058
:10AF90001004A10000000600881F7800C8BB25002F
:10AFA00000C0EB00984F1000040032000000EB00DE
:10AFB000A8EB02007F00000000CCEB00A0BA250047
:10AFC0000008EB00E0B325001044A1004F04780016
:10AFD000000006000001200050DD8A00C0BB2500F3
:10AFE00000C8EB00A0BB25000008EB0060BC2500FA
:10AFF0000008EB0030107800A0BC25000008EB0032
:10B0000030107800E0BC25000008EB00301078001C
:10B0100020BD25000008EB003010780060BA250044
:10B020000048EB00E0B3250010407800704060005D
:10B0300001003A00D8FF070000000600A0BA250072
:10B040001000E00008003A00E0B325001044A00022
:10B050000001200050DD8A00A0BB25000008EB00A5
:10B0600060BA25001004A100000006008E00FA005E
:10B07000881F78000040EB00A0F79E0031F72F00FA
:10B080000180470086ED02007F0000003FF096003F
:10B09000E24F50007C003A00F10020000000EB007D
:10B0A000A8ED02007F0000004100200060BC2500E8
:10B0B000A8ED02007F00000060BA25001040780073
:10B0C0006240600003003A0040DD82000000A00002
:10B0D00040DD8A00810020000000EB00A8ED0200A6
:10B0E0007F00000082F72F000284470061002000EB
:10B0F00008007800A8ED02007F0000006200200038
:10B10000F1B3250008007800D8C002007F000000DD
:10B11000E10C20000000E0003C0032005A00370043
:10B1200013F72F000380470086ED02007F00000028
:10B130008FF0960050C3B30080CF50000A00320059
:10B1400003003E00E1CF50002D003A00150037000B
:10B1500060C3B30080CF500021003200E1CF400037
:10B1600027003A00310037001FF09600E14F5000F1
:10B1700045003A0021F72F000180470086ED0200CC
:10B180007F00000060BA2500104078006240600037
:10B19000200032002FF09600E24F50001D003A00D0
:10B1A000390037001FF09600E44F500036003A0097
:10B1B00041002000E0BC2500A8ED02007F00000057
:10B1C00060BA2500104078006240600011003A002B
:10B1D00040DD82000020A00040DD8A000D00370025
:10B1E0001FF09600E44F500027003A004100200075
:10B1F00002F72F000F01410001004100030037005A
:10B200009FF096008180FB000000EB00A8ED02009B
:10B210007F00000000F72F000F00400086ED0200C5
:10B220007F0000000004E000BDFF3A002FF0960010
:10B23000E24F500007003A002F389700BF389700C0
:10B24000F0DD8A0001DE8A0060BA25001014A0003B
:10B2500008003700E2BB25002F389700BF38970061
:10B26000B20F1000A28F1800020032000040EB0065
:10B27000A0F79E00CAED02007F0000002FF09600AC
:10B280000080FB0009003700020820008000EB006E
:10B29000E3F72F00038047001CC102007F0000007D
:10B2A000CAED02007F0000000000EB004F047800B0
:10B2B0000080FA0000000600889FBE008A9FBE0042
:10B2C0008C9FBE000044780010C0B30060EC020008
:10B2D0007F00000010C0B30060EC02007F0000009F
:10B2E00060C0B30060EC02007F0000000040EB0093
:10B2F00060EC02007F0000004100200010B4250037
:10B30000C4EC02007F0000000040EB0060EC020093
:10B310007F0000000040EB0060EC02007F000000B6
:10B3200000C8B30060EC02007F0000000040EB00AA
:10B3300060EC02007F0000004100200020B12500E9
:10B34000C4EC02007F000000C10020000040EB00C0
:10B3500088EC02007F00000061002000F0B32500AF
:10B36000C4EC02007F000000A10C20000040EB00B4
:10B3700088EC02007F00000030C6B30060EC0200E1
:10B380007F00000020C8B30060EC02007F000000D6
:10B3900030C5B30060EC02007F00000030C6B3008F
:10B3A00060EC02007F00000050C3B30060EC0200BC
:10B3B0007F00000010C0B30060EC02007F000000BE
:10B3C0000840780060EC02007F000000E14F54006C
:10B3D00003003A0060BA25001014A1000C003700E9
:10B3E000E34F54000A003A0060C3B30060EC02006F
:10B3F0007F00000040C0B30060EC02007F0000004E
:10B4000041002000E0BB2500C4EC02007F000000EA
:10B4100070C3B30060EC02007F00000040C0B300C6
:10B4200060EC02007F00000010C0B30060EC02007E
:10B430007F00000030C0B30060EC02007F0000001D
:10B4400060C0B30060EC02007F000000C0C0B30029
:10B4500060EC02007F000000E34F54000700320060
:10B46000E14F54000F003A0030DE820041DE8200DE
:10B47000E00F5000E08F58000A00320020C3B300F4
:10B4800060EC02007F00000040C0B30060EC0200EE
:10B490007F0000004100200060BC2500C4EC0200D9
:10B4A0007F00000000C0EB0060EC02007F000000A5
:10B4B000C1122000D0DA8200808050000040EB00F2
:10B4C00088EC02007F0000002CB125009C80FB006E
:10B4D0003DB125001D80FB004800DD000104700027
:10B4E0004AB125009A80FB005BB125001B80FB0060
:10B4F0004800DD0081047000004EEB00804EEB0040
:10B50000004DEB00804DEB0006ED02007F000000D7
:10B51000084E78004840DE00804E7800094D7800E3
:10B520004848DE00804D78004F06BE004F05BE0043
:10B530004F04BE0000000600889FBE00A8BA250088
:10B5400051DD820080022000808F5000CB0032004D
:10B5500017003E0065005000808F500073003200DD
:10B5600008003E0008022000888F5000680032006A
:10B570001002200017003E00F08F500063013A00D7
:10B580002C00370050022000808F500067003200EE
:10B59000BA0039000000E800808F5000B700320088
:10B5A0000000E800808F500058013A005F0037002B
:10B5B000D0022000808F50005C0032000B003E0063
:10B5C00063005000808F5000AC00320057003900FB
:10B5D0000000E800808F5000540032000000E800B6
:10B5E000808F500049013A00A40037000004200079
:10B5F000808F5000BD00320007003E0072005000F6
:10B60000808F50009D0032000000E800808F5000C5
:10B610003E013A001801370010042000808F5000CE
:10B62000C00032006F004000808F500037013A00A8
:10B630001301370060B225009080FB0070B2250036
:10B640001080FB004800DD000101700080B2250081
:10B650009080FB0090B225001080FB004800DD00C8
:10B660008101700020B1250002487800C810DE007A
:10B6700030B125000148780040B12500034878002A
:10B68000C818DE0050B1250001487800A0B225009E
:10B690009080FB00B0B225001080FB004800DD0068
:10B6A00001017000C0B225009080FB00D0B22500DF
:10B6B0001080FB004800DD008101700060B12500B2
:10B6C00002487800C810DE0070B1250001487800FB
:10B6D00080B1250003487800C818DE0090B125002D
:10B6E0000148780033042000420420008040EB0031
:10B6F0000000EB00E2EB02007F000000C1BB250070
:10B7000080487800E14F40000001320058DD8A0097
:10B71000809628009100200090DD8A00A1DD8A003B
:10B72000A0BA25001000E80050DD8A0060B22500B4
:10B730009080FB0070B225001080FB004800DD0007
:10B740000101700080B225009080FB0090B22500BE
:10B750001080FB004800DD008101700020B1250051
:10B7600002487800C810DE0030B12500014878009A
:10B7700040B1250003487800C818DE0050B125000C
:10B7800001487800A0B225009080FB00B0B22500EF
:10B790001080FB004800DD0001017000C0B22500F0
:10B7A0009080FB00D0B225001080FB004800DD0037
:10B7B0008101700060B1250002487800C810DE00E9
:10B7C00070B125000148780080B125000348780059
:10B7D000C818DE0090B12500014878000000EB0099
:10B7E00030EC02007F0000000000E000C7003200E3
:10B7F000C00320000100200010DE8A0021DE8A0044
:10B8000080BA25000048EB00A0BB25000008EB0033
:10B8100060BA25001004A1001014A1008040EB00C4
:10B8200010C0B300A4FE070098DD8200A9DD8200ED
:10B8300040B42500104178000281FB000300200085
:10B840000800BE00CCC002007F0000004609DD00F9
:10B850004A00DE0000007100CA08DE000801400056
:10B8600089814800B2DD8A00C3DD8A00E0BA250084
:10B8700058FF02007F000000100037000000EB00BE
:10B8800072ED02007F0000000000E0000E003A00B0
:10B89000E0BA250062FF02007F0000000004E00023
:10B8A0009A00320090DD8200A1DD8200000040009D
:10B8B0008180480090DD8A00A1DD8A00A0BA2500C1
:10B8C0001000E8009000370060BA25001024A000A6
:10B8D000E6FD0700C1BA250080487800E24F50001D
:10B8E0008A003A0000042000870037000000EB00C7
:10B8F00030EC02007F0000000000E0008300320016
:10B900008040EB0030C0B3006BFE0700B2DD820068
:10B91000C3DD8200E0BA250058FF02007F0000006E
:10B92000780037000000EB0072ED02007F0000009D
:10B930000000E00006003A00E0BA250062FF0200C5
:10B940007F0000000004E000700032004A00370071
:10B95000C6FD0700E54F500003003200E64F5000DF
:10B960006A003A0044003700C8BB25001880FB007D
:10B97000A8EB02007F00000000CCEB0000052000D7
:10B9800050DD8A0060BA25001004A000A0BB25008D
:10B990001000E800D0DD8A0080BA25001000780091
:10B9A000610060001600320021BD250060BC25004A
:10B9B0001101BE00B00F5100A08F590004003200E9
:10B9C00030DE820041DE820090DE8A00A1DE8A0045
:10B9D00032DE820043DE820020B12500024878007A
:10B9E000C810DE0030B125000148780040B12500C4
:10B9F00003487800C818DE0050B1250001487800DF
:10BA000044DD82000428A3000C00320072DE8200B4
:10BA100083DE820060B1250002487800C810DE0095
:10BA200070B125000148780080B1250003487800F6
:10BA3000C818DE0090B12500014878000418A30062
:10BA40003200320050DE820061DE8200A2B12500A9
:10BA500000497800C801DE00B2B125000349780032
:10BA6000C2B1250001497800C808DE00D0B1250028
:10BA7000014878002500370000022000220037002E
:10BA80000000EB00A8EB02007F000000C0BB250017
:10BA900000C8EB0060BA25001004A00032DE82006E
:10BAA00043DE820020B1250002487800C810DE0085
:10BAB00030B125000148780040B1250003487800E6
:10BAC000C818DE0050B125000148780072DE8200FF
:10BAD00083DE820060B1250002487800C810DE00D5
:10BAE00070B125000148780080B125000348780036
:10BAF000C818DE0090B1250001487800DEE00200A1
:10BB00007F0000001800E80050DD8A004F04BE00EE
:10BB10000000060092028000FF3FFC0001CEB3004F
:10BB2000014078004260B7009202880044C7BF001D
:10BB3000014060000004A00044E7B70044C7BF0014
:10BB4000F043B20044E7B700303A800001E02F0034
:10BB500001006000E004B300303A88000000EB0010
:10BB60000041880010418800204188003041880051
:10BB70004041880050418800604188007041880041
:10BB800080418800004088001040880020408800E4
:10BB90003040880040408800504088006040880065
:10BBA000704088008040880020708800A070880065
:10BBB00020718800A071880020728800A07288001F
:10BBC000207388008080EB000170880081708800FD
:10BBD000017188008171880001728800817288007B
:10BBE0000173880070708800F070880070718800A0
:10BBF000F07188007072880070738800500EA90080
:10BC0000612EA90060CEA900610EA9000000060007
:10BC1000C6C6BF0001C8B300014060004046B30083
:10BC2000C6E6B7003169200000CCB30011406000C7
:10BC3000E3487000000006000000EB00106188007F
:10BC40000061880050618800606188003061880070
:10BC5000F0618800106288000062880050628800ED
:10BC60006062880030628800F06288000000060090
:10BC700030DA8A00000006000200FA00889FBE0049
:10BC8000A2028000D2BF9F006011B800A30288000A
:10BC90001300BA009380BA005FB99700A20288002F
:10BCA0000000E900E30F400011003E0090BD2C00B1
:10BCB00090FF02007F00000000092D0031002000ED
:10BCC0000000000061005000E0805800FCFF3A00D6
:10BCD0000004BE008FFF07000060FE0040A7A80020
:10BCE000889FBE00000006000000FE000C00370028
:10BCF00070BE2C0090FF02007F00000000092D00A4
:10BD0000310020000000000061005000E080580079
:10BD1000FCFF3A0080D882000070A00080D88A0022
:10BD20004F04BE000080FA0000000600E001200081
:10BD300030DA8A000000060080D882000040A000AF
:10BD400080D88A0000000600400005003E00FA008E
:10BD5000889FBE008A9FBE0020C02C0090FF02007A
:10BD60007F000000A0B72C0090FF02007F000000C1
:10BD7000F0B42C0090FF02007F00000040BB2C00BC
:10BD800090FF02007F00000050BA2C0090FF0200DC
:10BD90007F000000C0FB2F0000844700C20320008A
:10BDA0008000EB00080078001CC102007F0000004A
:10BDB00008007800FCFB02007F0000000004E000A7
:10BDC00002003200080078000100370070C02C002B
:10BDD00090FF02007F000000C0FB2F008081470021
:10BDE000F4C2B3008449780052CEBF0068406000BE
:10BDF0000080FB000000E9004F00DE0012C3B3002A
:10BE000000405100D07F9F0002CEBF0001C8B300A8
:10BE1000014060000080FB000000E9004F00DE00F0
:10BE200000405100A041980002CEBF000044B20083
:10BE30000080FB000000E9004F00DE0000405100E0
:10BE4000F07F9F0062CEBF00624060000080FB0078
:10BE50000000E9004F00DE000040510080C79F0055
:10BE600094C79F00A0FB2F000F004000F0FB0200D2
:10BE70007F000000804078000004E00006003200EF
:10BE800020FC2F00808047005F9897006AFE020028
:10BE90007F0000000300370000C3B300A0C79F006D
:10BEA000B1C79F00C0FB2F00008547000A00780043
:10BEB00090FF02007F00000010C12C0090FF0200E4
:10BEC0007F000000E0B22C0090FF02007F00000025
:10BED000F0AD2C0090FF02007F00000090B0250024
:10BEE00090FF02007F000000F0C2B300004D780018
:10BEF00048FF2F0018009000ACFE02007F000000F9
:10BF0000D07F9F0018009000C0FE02007F0000005C
:10BF1000204598008045EB00FB7F9F000A007800D9
:10BF200090FF02007F00000010C12C0090FF020073
:10BF30007F00000070B02C0090FF02007F00000026
:10BF4000C20320008000EB000A0078001CC1020040
:10BF50007F0000000A0078009CFB02007F000000C8
:10BF60000004E0000900320080AF2C0090FF0200C6
:10BF70007F0000000A00780090FF02007F000000B0
:10BF800010C12C0090FF02007F00000090AE2C003A
:10BF900090FF02007F000000F8B3250018407800F1
:10BFA000ACFE02007F000000004D780018407800D1
:10BFB000C0FE02007F000000D07F9F00A9C3B30035
:10BFC0002945980008B4250018407800ACFE02000E
:10BFD0007F000000F07F9F0018407800C0FE020044
:10BFE0007F00000080C79F0099C79F0018B42500FC
:10BFF00018407800ACFE02007F000000A0C79F0040
:10C0000018407800C0FE02007F000000B0C79F000B
:10C01000C9C79F0028B4250018407800ACFE020074
:10C020007F000000D0C79F0018407800C0FE0200CB
:10C030007F000000E0C79F00F9C79F0038B42500CB
:10C0400018407800ACFE02007F00000080CF9F0007
:10C0500018407800C0FE02007F00000090CF9F00D3
:10C06000A9CF9F0048B4250018407800ACFE02001C
:10C070007F000000B0CF9F0018407800C0FE020093
:10C080007F000000C0CF9F00DBCF9F000A00780038
:10C0900090FF02007F00000010C12C0090FF020002
:10C0A0007F00000000AD2C0090FF02007F00000028
:10C0B000008080000008A3000300320040C12C0073
:10C0C00090FF02007F000000008080000018A300A5
:10C0D0000300320080C12C0090FF02007F000000AE
:10C0E000008080000028A30003003200F0C12C0073
:10C0F00090FF02007F000000008080000038A30055
:10C100000300320050C22C0090FF02007F000000AC
:10C11000008080000048A30003003200C0C22C0051
:10C1200090FF02007F000000008080000068A300F4
:10C130000300320010C32C0090FF02007F000000BB
:10C14000008080000078A3000300320050C32C0060
:10C1500090FF02007F0000000080800000E8A30044
:10C1600003003200A0C32C0090FF02007F000000FB
:10C17000008080000000E00003003D0030C42C007F
:10C1800090FF02007F00000010C12C0090FF020011
:10C190007F000000A0B72C0090FF02007F0000008D
:10C1A00020C02C0090FF02007F0000004F05BE0061
:10C1B0004F04BE000080FA00000006004000FA00B4
:10C1C000889FBE008A9FBE002BB125003AB1250092
:10C1D00049B1250058B12500020420008000EB0081
:10C1E00080FB2F000F0040001CC102007F000000F8
:10C1F000E0B3250010407800704060000A00320073
:10C200001880FB00801F78001980FB00801F7800D9
:10C210001A80FB00801F78001B80FB00801F7800C5
:10C2200090C42C00090037001880FB00801F7800A4
:10C230001980FB00801F78001A80FB00801F7800A7
:10C240001B80FB00801F7800D0C62C00801F780068
:10C25000E0FA2F000F0040007CC102007F000000C8
:10C26000EA87570080FB2F000F00400090FF02007C
:10C270007F0000004F05BE004F04BE000080FA00A2
:10C2800000000600800205001C00FA00889FBE0026
:10C29000003A8000008088000060FE001DFE07005C
:10C2A000C6C6BF0001C8B300014060004046B300ED
:10C2B000C6E6B70093C6BF0001CCB30001406000E2
:10C2C0003040B30093E6B7005BFE070000B12500E5
:10C2D0000048EB0080D882009000B3000040A1002D
:10C2E00080D88A00420120008000EB0060B4250065
:10C2F0001CC102007F000000320320008000EB0020
:10C3000020B125001CC102007F000000C0122000E7
:10C3100030DA8A00A0B425000008EB0032FF0200EA
:10C320007F0000007CFF02007F00000008FC02008C
:10C330007F000000F0B32500A8FB02007F00000092
:10C340007C805700B4FB02007F0000000004E00086
:10C35000050032002FB097000000E000020032001C
:10C36000E0B325001044A0007C805700E4FB0200ED
:10C370007F000000E0B2250031C92C000300090055
:10C380003158780010B325009CFB02007F000000AC
:10C3900091B0250040FF2F00100078006AFE0200D7
:10C3A0007F00000012D402007F00000000447800EB
:10C3B00066FE07000804E00008003A0080D882000A
:10C3C0000060A00080D88A0080C92C0090FF020085
:10C3D0007F0000000000EB00A0B79F009107200045
:10C3E0002FB097000000E00001003A00B1002000EB
:10C3F00041DA8A00000220004027B60040A7A800CA
:10C40000E0B3250010407800704060000300320067
:10C410001ED802007F0000000900370020B125006F
:10C42000C0FB02007F00000060B12500D8FB0200C5
:10C430007F000000CCD702007F0000005FFF0700F4
:10C44000BEE302007F000000DCEE02007F0000007F
:10C45000E6F802007F000000A2252600230020004D
:10C46000E0B4250058FF02007F000000C0B42500A2
:10C470000048EB00025E2000D3B2200060B525002A
:10C4800058FF02007F0000000060FE00E0B42500BD
:10C4900062FF02007F0000000004E0003000320074
:10C4A00060B425001000E90030DA8A0089B4250064
:10C4B0009901E90043DA8A0080D882000008A300CD
:10C4C0001700320052002000110009008201D8003C
:10C4D000010078000000E00011003A007684570067
:10C4E00088007800030078006AFE02007F000000E8
:10C4F00070CB2C0090FF02007F0000000800780045
:10C5000090FF02007F00000010CC2C0090FF020082
:10C510007F0000001900E00001003C00D6FD07008C
:10C5200060B425001000E00006003C0070CC2C0038
:10C5300090FF02007F00000080D882000070A00001
:10C5400080D88A00E2B42500A02526002100200022
:10C5500032024000A282480074DA8A0085DA8A003A
:10C5600080D882000078A3000A00320030CE2C0070
:10C5700090FF02007F00000000092D003100200024
:10C580000000000061005000E0805800FCFF3A000D
:10C590000000FE0000B125001004E00002003A0097
:10C5A000B5FD07000000FE0080D882000068A300EF
:10C5B000B5FF3A00E0B325001040780070406000FD
:10C5C000020032009CDA02007F000000DCEB020077
:10C5D0007F000000CAED02007F000000EE845700DB
:10C5E00001FE2F008F8040006A80570010D50200A6
:10C5F0007F0000000004E000180032000FE0970008
:10C60000E64F500003003A0064FD02007F00000086
:10C6100012003700E84F500010003A007A845700AB
:10C62000FE8157007F8157000800BE00C4FC020055
:10C630007F0000000004E000080032001FE09700C7
:10C64000F14F500005003A001FB1970088007800B4
:10C6500009007800DAED02007F00000092F7020086
:10C660007F00000010E402007F000000AAF1020039
:10C670007F00000060E802007F000000F4F8020084
:10C680007F00000080FF37000001EB0021532500F0
:10C6900000082000910F100001003A001200200055
:10C6A00002007800000006008000EB002053250007
:10C6B0001000E00001003A001100200001007800A5
:10C6C00000000600E2642500920078000065250065
:10C6D000008040001000FB000109E8000000060097
:10C6E00070B2820001652500810040009140780011
:10C6F0000000E80070B28A0000CDB30000C0400026
:10C70000E94F50000C003600F0CBB30000C04000F1
:10C71000E54F500002003E0090CCB300050037000A
:10C72000F0C9B30000C04000E54F500004003E00D7
:10C7300090CAB30000C040000080FB00000006006B
:10C740000007200090A98A0011C0B3004085250091
:10C7500001487800000005008001780001017800A0
:10C7600061B28A000000EB0070B28A00830078009A
:10C77000006525000CC104007F000000823220000B
:10C780008000EB00205325001CC102007F00000048
:10C7900040FF2F00900090000100E00003003200F5
:10C7A000000A2000808F500003003A0011C0B3003F
:10C7B00040542500014878005185250052CEBF0025
:10C7C000684060000100320010C0B300804878006B
:10C7D000608525000048EB00205325000008EB0091
:10C7E000405325000048EB00708525000048EB0011
:10C7F000808525000048EB000000060070852500BC
:10C800001080FB0000000600808525001080FB00E2
:10C8100000000600718525008048780000000600B1
:10C820008800FA00889FBE008A9FBE008C9FBE00D1
:10C830006066B800190237002A53250091A98200CA
:10C8400004042000848F5000950032001B003E003D
:10C8500013022000838F50006300320008003E0066
:10C86000F08F50003C00320000022000808F50000A
:10C87000B50032000100E00032003200FC01370058
:10C8800012032000828F50006900320004003E0035
:10C8900000032000808F5000F5013A005F00370050
:10C8A00020032000808F50006F0032000000E8005D
:10C8B000808F5000EE013A006D0037001306200013
:10C8C000838F5000A20032000F003E0002052000BE
:10C8D000828F50008100320004003E0010042000CE
:10C8E000808F5000E2013A007000370010052000F0
:10C8F000808F5000830032006F004000808F500016
:10C90000DB013A009000370008072000888F5000B4
:10C91000AD01320004003E0020062000808F500050
:10C92000D3013A009E00370000082000808F50009D
:10C93000C801320070004000808F5000CC013A00E6
:10C94000C60137000001200090A98A0011C0B30081
:10C9500040532500C4013700E011200002004000D0
:10C960000A0040009000FB000200E80070B28A005C
:10C97000EDCF500005003200EACF50000300320036
:10C9800000C2B30080CF500008003A004053250099
:10C990001004E000C1013A0080D882000040A000ED
:10C9A00080D88A000008200052003700105425006B
:10C9B0000048EB00205425000048EB000202200054
:10C9C000A0C3B30080CF5000010032000207200056
:10C9D00092A98A000007200021C0B300800F5100F7
:10C9E000A0013200AD0137000003200090A98A00A9
:10C9F00009542500194478004444DD00884C78002F
:10CA000037FF070000447400884C7800105425005C
:10CA100010484400F05325001100370092A98A0005
:10CA20002FFF070001542500804878009B01370044
:10CA30002003200090A98A00095425001944780099
:10CA40004444DD00884C780025FF07000044740052
:10CA5000884C78001054250010484400705425007C
:10CA6000084878008D013700300320000D003700A2
:10CA700094A98A0009542500194478004444DD0033
:10CA8000884C780016FF070000447400884C78003A
:10CA9000105425001048440060542500F0FF370072
:10CAA0001004200090A98A00DDFF370092A98A00B7
:10CAB00009542500194478004444DD00884C78006E
:10CAC00007FF070000447400884C780010542500CC
:10CAD00010484400E0532500E1FF370021542500B1
:10CAE000F05325009140780090CF500003003900AA
:10CAF0000006200090A98A00680137001005200078
:10CB0000E8FF370092A98A000954250019447800EB
:10CB10004444DD00884C7800F1FE070000447400B6
:10CB2000884C7800105425001048440022542500F9
:10CB3000924078000180FB000A00400028589800CD
:10CB40000149E8005501370093A98A00B4FF370076
:10CB50002006200090A98A00095425001944780075
:10CB60004444DD00884C7800DDFE0700004474007A
:10CB7000884C780010542500104444000848780080
:10CB800046013200C0CF2C0090FF02007F00000061
:10CB90000007200090A98A0031C0B300310137009E
:10CBA0000001200090A98A00E2532500124078007D
:10CBB000E14F50009100320003003900E44F500073
:10CBC000CA003A00C2003700405425001004E000BB
:10CBD0008400320030AA8200010020008254250027
:10CBE00032054000A285480000002B00A100200073
:10CBF000800F5500818F5D001B00360060532500BB
:10CC00009000E800B1A98A0042062000811F780048
:10CC1000110009008280D80001007800CF00780060
:10CC20000000E0001D013A00C0F72F00008447001B
:10CC30008A9FBE00811F7800F1D02C00811F7800F0
:10CC4000080078007CC102007F0000000800780026
:10CC500090FF02007F000000201C200038DE020050
:10CC60007F00000098003700805325001000E0008E
:10CC700010003A005085250011C0B30090CF10007D
:10CC80000C003A006085250090CF100004003A00A7
:10CC900050D32C0090FF02007F00000005003700F9
:10CCA000D0D52C0090FF02007F000000000920007A
:10CCB00090FF3700805325009000E800C1A98A004A
:10CCC00042062000811F7800110009008280D800F0
:10CCD00001007800CF0078000000E0001C003A005E
:10CCE000C0F72F0000844700F05425001080FB009F
:10CCF000801F7800E05425001080FB00801F780022
:10CD0000D05425001080FB00801F7800C0542500FF
:10CD10001080FB00801F78008A9FBE00811F780072
:10CD2000E1D82C00811F7800080078007CC1020047
:10CD30007F0000000800780090FF02007F000000E4
:10CD4000201C200038DE02007F000000F087570022
:10CD5000E00F5500E08F5D0012003A00F05325000F
:10CD60001004E0000F003200201C200038DE02001A
:10CD70007F00000011C0B300305425000148780046
:10CD8000A0532500C1542500030009003158780044
:10CD900042002000F10F2000C05425001CC10200F9
:10CDA0007F0000000A00BE00CAEF02007F00000002
:10CDB000800078000000E000B80032006A00400007
:10CDC000B10090008100550001004000F1532500A2
:10CDD0001181FB00C15425000CC102007F0000003E
:10CDE000AE00370040DB2C0090FF02007F00000007
:10CDF00098A98A0041C0B3009A003700305425003A
:10CE00001004E000110032006000B800CAEF020018
:10CE10007F000000000178000000E0000B003200FD
:10CE20006000B80030019800410198001000240013
:10CE3000200198001220A1006A004100A1532500A2
:10CE400003000900315878004000B10090EF020063
:10CE50007F00000070DC2C0090FF02007F000000CB
:10CE600088FB2F00088447003655F800E0DD2C00D1
:10CE7000801F7800080078007CC102007F0000005D
:10CE80000800780090FF02007F0000003855F8008D
:10CE9000D1DF2C00811F7800080078007CC10200DF
:10CEA0007F0000000800780090FF02007F00000073
:10CEB000F0EE02007F00000080D882000010A10088
:10CEC0000030A10080D88A00E8875700730037003F
:10CED000D1542500A054250011487800C1542500E4
:10CEE000B0542500114878006C0037000080FB002A
:10CEF00041FF2F0091009000810F500003003A0085
:10CF000011C0B3004054250057003700A0CAB30039
:10CF1000924F10001F003A005085250011C0B30049
:10CF200090CF10005D003A00F05425001080FB0007
:10CF300001F02F000106660000067600E05425008F
:10CF40001080FB004800DD00FC0FB20000067600F8
:10CF5000D05425001080FB00818666008086760014
:10CF6000C05425001080FB004800DD00FD0FB2001A
:10CF700080867600D067250041232100800F56006F
:10CF8000818F5E0045003A0011C0B3006085250026
:10CF90003500370000E22C0090FF02007F00000007
:10CFA00000242400F1002000000000006100500077
:10CFB000E0805800FCFF3A000007200090A98A009A
:10CFC00051C0B30027003700020120008000EB00B1
:10CFD000C0F62F000F0040001CC102007F000000BF
:10CFE000408525001080FB00801F780040E32C0066
:10CFF000801F780080F62F000F0040007CC10200E7
:10D000007F00000080F62F000F00400090FF02001C
:10D010007F00000000242400F1002000E487570076
:10D020000000000061005000E0805800FCFF3A0062
:10D03000E06425000008EB00C06425000008EB0058
:10D0400080D882000070A00080D88A000000FE0016
:10D0500016003700000DEB001000370098A98A0079
:10D0600061C0B30040852500014878000B003700FF
:10D07000C0E32C0090FF02007F000000E064250068
:10D080000008EB00C06425000008EB0080D8820097
:10D090000070A00080D88A000400370072B28200BD
:10D0A000C0642500900F5100E3FD39004F06BE001B
:10D0B0004F05BE004F04BE000080FA0000000600CD
:10D0C0008A00FA00889FBE008A9FBE0001E08200AD
:10D0D000F08F50000C00320004003E0000012000E0
:10D0E0000100E000920132009301370000022000AD
:10D0F000808F50001000320070004000808F500080
:10D100008D013A00490037009308200003017800A0
:10D1100011C0B30020002000E2EB02007F000000FD
:10D1200021C0250080487800E14F40008401320092
:10D130000002200000E08A002000200072ED0200C2
:10D140007F0000000000E0007D01320020B12500DA
:10D150009080FB0030B125001080FB004800DD000E
:10D160000101700040B125009080FB0050B1250006
:10D170001080FB004800DD0081017000E00F5100CD
:10D18000E08F590003003A00CAED02007F00000062
:10D190006B01370050C0250086ED02007F000000C3
:10D1A00040C0250086ED02007F00000070C0250011
:10D1B00086ED02007F00000060C0250086ED0200C1
:10D1C0007F00000090C0250086ED02007F00000077
:10D1D00080C0250086ED02007F000000D0C0250041
:10D1E00086ED02007F000000C0C0250086ED020031
:10D1F0007F000000F0C0250086ED02007F000000E7
:10D20000E0C0250086ED02007F00000010C125006F
:10D2100086ED02007F00000000C1250086ED0200BF
:10D220007F0000000003200000E08A0020002000B2
:10D2300030EC02007F0000000000E00040013200FE
:10D240000040280030E08A00A0C025000008EB0064
:10D2500020C125000008EB0040C125000048EB007C
:10D2600050C025001040780060EC02007F000000F4
:10D2700040C025001040780060EC02007F000000F4
:10D2800070C025001040780060EC02007F000000B4
:10D2900060C025001040780060EC02007F000000B4
:10D2A0000040EB0060EC02007F0000000040EB005B
:10D2B00060EC02007F0000000CEC02007F00000028
:10D2C000800578000040EB0060EC02007F00000069
:10D2D0000040EB0060EC02007F0000000040EB002B
:10D2E00060EC02007F0000000040EB0060EC0200F8
:10D2F0007F0000000040EB0060EC02007F000000B7
:10D300000040EB0060EC02007F000000EC00370002
:10D31000E0F62F000F00400086ED02007F000000C5
:10D3200051C1250000C2B3006FE99600804F510043
:10D33000020032008048EB001700370000C1B30044
:10D34000E0EF9E00810478001000370020F72F00E6
:10D35000008447002100200008007800A8ED0200AA
:10D360007F0000009880FB00F2FB2F0082804000CD
:10D37000C408DD003FF0960002404000815C700070
:10D38000EFE896008140E900E1EF9E006FE996002A
:10D390000204E000EDFF3A00110020000000EB0065
:10D3A000A8ED02007F00000051F72F000180470028
:10D3B00086ED02007F00000042F72F000280470048
:10D3C00086ED02007F00000011F72F00018047006A
:10D3D00086ED02007F00000002F72F000280470068
:10D3E00086ED02007F0000000F389700E10F50002B
:10D3F000B3003A0059C12500F2002000E1B2250037
:10D400000900780058C102007F0000000000E00021
:10D4100006003200611A2D00090078002CC10200BC
:10D420007F0000000000E000A5003A002F3C9700BC
:10D4300001022000810F5400A100390010022000D9
:10D44000800F540003003600F0012E00800F5400BE
:10D450009B003A0020C125001000E80090E08A00FF
:10D460000140780060EC02007F00000009057800B0
:10D47000BA4478000980FB004400DE001044B0008C
:10D4800060EC02007F0000006FC064001044B00038
:10D4900060EC02007F00000050C22500800F5500A4
:10D4A000F3FF3A000040EB0060EC02007F00000058
:10D4B0004840DE0060EC02007F0000000840780079
:10D4C00060EC02007F0000000040EB0060EC020016
:10D4D0007F00000010C0B30060EC02007F0000007D
:10D4E000410020000040EB0088EC02007F000000BB
:10D4F00010022000800F540004003200F0012E00C2
:10D50000800F54005E003A001F0037000040EB001F
:10D5100060EC02007F00000010C4B30060EC020069
:10D520007F00000020C0B30060EC02007F0000001C
:10D53000F1002000E0B22500C4EC02007F000000F2
:10D540000040EB0060EC02007F00000040C4B3002C
:10D5500060EC02007F0000000040EB0060EC020085
:10D560007F00000061002000F0B32500C4EC020041
:10D570007F000000810220000040EB0088EC0200E8
:10D580007F0000004E00370048F92F000884470054
:10D590004206200001032000080078001CC10200A0
:10D5A0007F000000A4DE02007F000000E30F5000B7
:10D5B00002003200E10F500005003A00801A2D00F1
:10D5C0000F000900305C78000801B100040037004A
:10D5D000811B2D000D000900315C7800E800B100CE
:10D5E00049F92F0089844700090078004CC10200E6
:10D5F0007F0000000045780062F72F00028447009A
:10D60000E20120008000EB00080078001CC102004D
:10D610007F0000008800780040FF2F001000780095
:10D620006AFE02007F0000000A80FB0000804400C8
:10D630001D00090038587800E001B100E801B10090
:10D64000090078004CC102007F000000000478004F
:10D6500011C0B30040C12500014878000040EB0034
:10D6600060EC02007F0000000840780060EC0200DF
:10D670007F0000008880FB00090078000E00370062
:10D680000040EB0060EC02007F00000060C0B300CF
:10D6900060EC02007F00000000C6B30060EC0200F6
:10D6A0007F0000000040EB0060EC02007F00000003
:10D6B0004100200020B12500C4EC02007F000000E2
:10D6C00050E082008000E80051E08A0041E08200E2
:10D6D000808F50000EFF3E000CEC02007F00000027
:10D6E000000478000B00780010EC02007F000000BE
:10D6F00030C125001040780060EC02007F0000007F
:10D7000020C125001040780060EC02007F0000007E
:10D710000800780010EC02007F00000006ED020017
:10D720007F000000CAED02007F0000000002200020
:10D7300000E08A000200370000C025000008EB006E
:10D740004F05BE004F04BE000080FA000000060036
:10D750004400DD00C1B52500010040008040EB0021
:10D7600001487800114098008000EB00710098009B
:10D770006011B80012009800230098000000060015
:10D780000000EB00F2FF070010002000F0FF070090
:10D7900020002000EEFF070030002000ECFF070013
:10D7A00000C0EB0041BA25008048780001BA25008E
:10D7B000804878000000060040BA250000C8EB0051
:10D7C00000000600889FBE008A1F78008004780051
:10D7D000030578004404DD00C0B5250000044400C2
:10D7E00010C0B300004C78001144980072049800F7
:10D7F0000880E800A2002000F10F20001CC10200F8
:10D800007F0000006A049800090078004F05780046
:10D810004F04BE000000060010DD8200000006007C
:10D82000881F780000047800E002B000C4D602002F
:10D830007F00000018DD8A004F0478000000060019
:10D84000881F780000047800680040000CFC02008B
:10D850007F000000E8DC8A004F047800000006002A
:10D86000889FBE008004780092D402007F000000F0
:10D870000004E0000F00320048BA250000C0EB00B1
:10D88000984F100004003A00094C78000000EB00AB
:10D89000D0DA8A00E2FF07001880FB00890F5000F1
:10D8A00004003A00015C2000D0DA820000805000C1
:10D8B000010037000000EB004F04BE00000006002E
:10D8C000804178000001EB0011DD8200F05B200058
:10D8D000808F50000C003E00034078008CD702007F
:10D8E0007F00000010DD82000000E80010DD8A00EB
:10D8F000D1DA8200810F5000010031000100780070
:10D90000D0DA8A0012002000020078000000060031
:10D91000881F7800004378000104780010DD820041
:10D92000010020006142B900025C200003002000D9
:10D9300004015100858159000002EB00820F500064
:10D94000838F58000D003100880078000640780071
:10D950009CD702007F00000010DD82000000440020
:10D9600010DD8A00D1DA8200810F50000100310001
:10D9700001007800D0DA8A0014002000040078004A
:10D980004F04780000000600881F780080017800AE
:10D990000104780012DD8200005C2000820050004B
:10D9A000888F500001003100010478008800410098
:10D9B00011DD8A00D0DA8200808F5000010036002D
:10D9C000D1DA8A008800780003007800A4D702002A
:10D9D0007F000000080078004F0478000000060077
:10D9E000881F7800000478004CC102007F0000000E
:10D9F0008000780008007800E3FF0700000444007E
:10DA0000080078004F047800000006000800FA00C3
:10DA1000889FBE008A9FBE004ABA25001A4078003F
:10DA2000E14F40002B003200D1DA8200E88540004F
:10DA30000080FB004400DD00C9B52500090040005E
:10DA400070009000D2FE02007F00000080BF9F00A7
:10DA50001A80FB004400DD000900400060009000D7
:10DA6000D2FE02007F00000090BF9F000B007800F4
:10DA7000D2FE02007F000000A0BF9F000004EB0068
:10DA8000B8BF9F0020012000C4D602007F00000024
:10DA90001A80FB004400DD000080E800090040001F
:10DAA0000B01780011C1B30036FC02007F000000BA
:10DAB0008100200070805700A4D702007F00000082
:10DAC00098D602007F000000E8DC8A00D8DA8A00DD
:10DAD00000CDEB004F05BE004F04BE000080FA00F1
:10DAE0000000060001BA25009180FB000001EB0058
:10DAF000808F500003003A00F1DC8200E0DC8200FD
:10DB0000008150000200780000000600881F7800A5
:10DB1000000478000001EB00E1DC8200F0DC820010
:10DB2000808F5000070031005AD702007F000000AC
:10DB3000004C7800E0DC82000000E800E0DC8A00B5
:10DB400012002000020078004F0478000000060058
:10DB500000027800E3DC8200F2DC82000000EB00CF
:10DB6000828F51000A00310003015100828F500062
:10DB70000100360082007800040078006CD70200B3
:10DB80007F000000E1DC820081004000E1DC8A00CF
:10DB900000000600A2D402007F0000000000EB009D
:10DBA000E0DC8A00F0DC8A0000BA250000C8EB0047
:10DBB00000000600F6874700889FBE008A9FBE00CF
:10DBC0008C9FBE008E1F78008004780001077800CB
:10DBD000820678000006EB00ECDC8A00FCDC8A00A0
:10DBE00081002000E0FD2F000F0040006CD70200F4
:10DBF0007F0000007FA89700D2FE02007F00000097
:10DC0000F0AF9F000FB09700D2FE02007F0000002F
:10DC100080B79F001FB09700D2FE02007F00000077
:10DC20006800500090B79F002FB097000000E00000
:10DC3000220032009980FB00194090004800DD006E
:10DC400001017000A94090008180FB0039409000E4
:10DC50004800DD00810170007A845700028CBE000C
:10DC60001E00BE00D0B79F00E1B79F000C4C98008B
:10DC700010C1B300F0EF9F000D007800D2FE02004B
:10DC80007F00000080BF9F00C100200008007800D6
:10DC900006FF02007F0000000085EA000C0078000B
:10DCA0000CFC02007F0000000D0078002ED702005F
:10DCB0007F0000008A0F500036003A001E02BE00AE
:10DCC00020B125009080FB0030B125001080FB00C2
:10DCD0004800DD000101700040B125009080FB008C
:10DCE00050B125001080FB004800DD00810170006C
:10DCF000820F5200838F5A0004003A008FB29700BF
:10DD00000002EB004300200004003700E10F420056
:10DD1000E08F4A001F003A00F8FF3700C420DD0002
:10DD20006E804000C2B5250002004000908F1200B6
:10DD300015003A0002804000104090000004E0000E
:10DD40000900320002804000FFA99700630098009C
:10DD50000180E800020040000900090039587800FD
:10DD6000A000B100A900B10000BA25000448780065
:10DD70001FB09700F0DC8A000000EB00B0FE070047
:10DD800010002000060037000402E8008301E900CB
:10DD9000E2FF3A00A2D402007F0000000000EB0086
:10DDA0004F0778004F06BE004F05BE004F04BE006F
:10DDB0006F01B10000000600C29123008000EB005B
:10DDC000200021001CC102007F0000000000EB00C9
:10DDD00010498A0000498A00F0488A0000000600C5
:10DDE0003C00FA002049F800E0052D00801F780073
:10DDF00000FC2F000F0040007CC102007F000000EB
:10DE000000FC2F000F00400090FF02007F00000088
:10DE10002249F80080072D00801F7800C0FB2F00EA
:10DE20000F0040007CC102007F000000C0FB2F00FB
:10DE30000F00400090FF02007F0000001E49F80024
:10DE400020092D00801F780080FB2F000F0040006C
:10DE50007CC102007F00000080FB2F000F0040000B
:10DE600090FF02007F000000EC8757000080FA005E
:10DE700000000600210021004000210091007800F0
:10DE80001080500001003B007C004000F30F500068
:10DE90000300340010C0B300C8F604007F00000087
:10DEA000EA0F500003003C000040EB00C8F60200FF
:10DEB0007F00000000000600881F7800208080009E
:10DEC000A12020008100B80064004000280021004B
:10DED000080040000008EB0020808000980F5000F0
:10DEE0000A0032000000E800FB0F5000010034007F
:10DEF0000000EB0020808800DEFF070040002100CA
:10DF000010007800980F500003003A0080D882007B
:10DF10000020A10080D88A004F047800000006008D
:10DF200010808000A12020008100B8006100210045
:10DF3000810040001101780063006100E10F500092
:10DF400002003200C00A2D00100037001110A0009E
:10DF5000200021009000E800FB8F500001003400F9
:10DF60008000EB0040002100908F50000200320042
:10DF700011808800BFFF3700000000000000000093
:10DF80000000000000000000D00C2D0090FF0400F5
:10DF90007F000000889FBE008A9FBE008C1F780013
:10DFA0000005BE00AC202000108080008C00B8006E
:10DFB0006900210009044000180078000008A3004F
:10DFC0001A0032000018A30013003A0000E02F00EE
:10DFD000F11F20000A0160000B80600080027800C1
:10DFE000020278000400BE0038019000C8019000D1
:10DFF000820F5000838F580026003200C8FF0700B0
:10E00000108080008C00B80009044000980078005F
:10E010006180600005003200E00E2D0090FF0200DC
:10E020007F0000000004EB001A0037001800A00079
:10E0300000E02F00F11F20000A0260000B8060004A
:10E0400080007800040078000001BE0032049800CF
:10E05000430498002000240020049800F0FF2000D2
:10E060000200600001003A001820A0001830A00053
:10E070001840A0006A00440002202000F10F200098
:10E080001CC102007F00000080D882000020A00098
:10E0900080D88A00080078004F0678004F05BE003F
:10E0A0004F04BE00000006008001780042C0BF009F
:10E0B0000080FB004502DE0091028000FF3FFC0073
:10E0C00042C0BF007F40600042E0B700910288007C
:10E0D00033009000C30090008100D1000080D30085
:10E0E00061398800503988003000240040398800A8
:10E0F0000800FC005005200070398800A00A2000AC
:10E100007039880029E7A800000000000000000026
:10E1100000000000000000000000000000000000FF
:10E120002947E200FCFF35002827EF00920280001B
:10E13000FF3FFC00C520DD0042C0BF007F40600003
:10E140000140700042E0B700920288001320A10055
:10E15000004982000000E80000498A000000060033
:10E160000200FA008002780042C0BF000080FB007D
:10E170004503DE0091028000FF3FFC0042C0BF006B
:10E180007F40600042E0B7009102880035009000B7
:10E19000C50090008100D1000080D300A50190004F
:10E1A000A2028000F2BF9F006A81420061398800AC
:10E1B00050398800A00F2000A00288004339880051
:10E1C000EF81610004082000E28F5100010032005D
:10E1D000140020008000EB00060037009208BB000E
:10E1E00012009000640141008088BB008180E8003B
:10E1F0000402E9000400E000F8FF3C000A00FC0013
:10E200005005200070398800A00A2000703988006D
:10E2100029E7A80000000000000000000000000046
:10E220000000000000000000000000002947E2009C
:10E23000FCFF35002827EF007FB89700A002880078
:10E2400092028000FF3FFC00C530DD0042C0BF00ED
:10E250007F4060000140700042E0B70092028800F9
:10E260001530A100104982000000E80010498A0022
:10E270000080FA0000000600E8874700889FBE0083
:10E280008A9FBE008C9FBE008E1F7800000578001C
:10E29000EA054000C0009000300090008104D100E9
:10E2A0000084D3002A0090006F0060000E08200058
:10E2B000E20F5000160032001E002000140037004C
:10E2C000A0028000E0B79F00A90288001806BA00EB
:10E2D0009886BA006FB09700A0028800FCB79F0034
:10E2E0008DBF9F00320020008B00780072805700A5
:10E2F000D8C002007F0000000000E00007003A00E4
:10E3000062044400E0844C00E48545000E07E90007
:10E310000E00E000EAFF3C00040037001A50A000A5
:10E3200080D882000070A00080D88A001A40A10026
:10E33000F04882000000E800F0488A004F077800AB
:10E340004F06BE004F05BE004F04BE008F00B10057
:10E350000000060020808000A12020008100B8007D
:10E36000610021000101400092007800638060009C
:10E37000E30F50000D003A000128A3000200320014
:10E380000200780048FF37000138A3000200320085
:10E390000200780072FF37000148A300020032003B
:10E3A00002007800B4FF3700C3FE0700000006003B
:10E3B0002449000000080000800000005A5C0000B2
:10E3C0000C00000080000000A65B00003000000090
:10E3D00082000000000000000010000000000000AB
:10E3E000000000000000000000000000000000002D
:10E3F00000FF00000000000000000000000000001E
:10E40000000000000000000000000000000000000C
:10E41000000000005A5B00004C000000800000007B
:10E420007E5C00000400000080000000665C0000CC
:10E430000C000000800000004C5C00000E0000009A
:10E44000800000005A5800000C020000820000000A
:10E450000000FF00000000000000000000000000BD
:10E4600000000000000000000000000000000000AC
:10E47000000000000000000000000000000000009C
:10E48000000000000000000000000000000000008C
:10E49000000000000000000000000000000000007C
:10E70000000000000000000000000000725C00003B
:10E7100006000000800000003255000028030000C1
:10E72000800000000210000022390000800000007C
:10E73000065B00005400000080000000005C000048
:10E740002600000080000000245100000E0400009C
:10E7500080000000665A0000A00000008200000057
:10E76000010000000000000000000A00000000009E
:10E770000000000000640000000000000000000035
:10E78000E803000000000000000010002700000067
:10E790000000000000A08600010000000000000052
:10E7A00040420F000000000000008000969800002A
:10E7B000000000000000E100F5050000000000007E
:10E7C00000CA9A003B00000000000000E40B540067
:10E7D000020000000000E80076481700000000007A
:10E7E0000010A500D4E8000000000000A0724E0058
:10E7F00018090000000040007A10F3005A000000E1
:10E800000080C600A47E8D000300000000C16F00E0
:10E81000F2862300000000008A5D78004563010055
:10E8200000006400A7B3B600E00D000000E8890016
:10E830000423C7008A000000D65B00002A00000005
:10E8400082000000286E75006C6C290000303100D9
:10E850003233340035363700383941004243440002
:10E860004546000030313200333435003637380049
:10E87000396162006364650066000000265C000088
:10E880002600000082000000285C7A005C00000086
:10E890007A5C090000000000020078005C000000C3
:10E8A000785C06000201000000000000000000008B
:10E8B000000006000202000000000000785C00007A
:10E8C0000600000080000000825C000002000000E2
:10E8D0008200000001000000000000002648A9009E
:10E8E0002628A9000648A90070E282000020A000A6
:10E8F00070E28A00C0C425000008EB00064EA800A4
:10E90000066EA800044EA800026EA800004EA900E2
:10E91000006EA900048EA800008EA9001622EF0048
:10E920000202200004CEBF004200DE006100600051
:10E930000004A2004200DD0041E020009140780088
:10E940000124A10080C070000100780004EEB7002F
:10E95000A000200001002000000000006100500025
:10E96000E0805800FCFF3A000201E900EDFF3A00A8
:10E97000064EA800066EA800044EA800026EA8006D
:10E98000004EA800006EA800048EA800008EA9000A
:10E99000B21088001782A80020062000A01088006E
:10E9A000F03F2000D0108800E2108800C0108000E6
:10E9B000A0E28A0017E2A8000000060006C8BF0017
:10E9C00071E282000000D000680060000130A10008
:10E9D0008080700071E28A0068806000030032006D
:10E9E000C0108000A0E28A000648A90060E2820010
:10E9F00001002000F30F5000E08F5800CD003E00D2
:10EA00000006010013003700220037002400370001
:10EA10002B0037003C00370046003700C5003700A8
:10EA2000C40037004B0037004D003700540037005A
:10EA30005C0037005E003700890037009100370026
:10EA400093003700A1003700A3003700AB00370068
:10EA5000B1003700E0C425001000780064016000B8
:10EA6000B6003A0061C52500F003200011006000E7
:10EA7000B0E28A0082E28A0070E282000010A00008
:10EA800070E28A00C0108000A0E28A00100020001E
:10EA90009F0037001602A800200020009C003700CD
:10EAA000E0C425001000780068006000A300320078
:10EAB000000A2000901088003000200094003700E9
:10EAC000E0C4250010007800680060009B00320060
:10EAD00000C525001942E20005003D00910020001C
:10EAE000908F10002D003E0020012000880037008C
:10EAF0000008EB0090E282004800DE0090108800E1
:10EB00004000200082003700E0C42500100078009B
:10EB100068006000890032001942E2001F003500E1
:10EB200020C525001080FB009010880050002000B8
:10EB300077003700E0C4250010007800680060000E
:10EB40007E0032001942E2001400350080002000EF
:10EB50006F0037001622A800900020006C003700DC
:10EB6000E0C42500100078006800600073003200E7
:10EB7000100A200090108800A000200064003700D8
:10EB8000E0C4250010007800680060006B003200CF
:10EB9000B00020001942E2005D003D0000012000AD
:10EBA0005B0037001662A800C00020005800370044
:10EBB000E0C4250010007800680060005F003200AB
:10EBC00081108000C0E282000148780080C52500E5
:10EBD0001000E800C0E28A0022C525001200E8000B
:10EBE00090E28A0060C525001000E900B0E28A00CA
:10EBF0004240A90004003C0070E282000040A100F5
:10EC000070E28A000800370071E28200F003200001
:10EC10001200600002003A000140A100010037002C
:10EC20000140A00071E28A0070E282004400DE0030
:10EC30000000A200614060004500DD00612120006D
:10EC4000914078000154A10080C07000010078005C
:10EC500016E2B7001682A800D00020002C00370072
:10EC600070E282000038A30034003200B1002000BE
:10EC70000048A30001003A00E100200061E28A00A0
:10EC8000000006001642A800F00020002000370017
:10EC9000E0C4250010007800680060002700320002
:10ECA0008040EB0060C525001000E00001003C0042
:10ECB00011C0B30070E28200E1806000C208DD0094
:10ECC0000020A100010070000A0037001642A800D1
:10ECD000100120000E003700E0C42500100078006D
:10ECE000680060001500320070E282000020A00081
:10ECF0000010A10070E28A000B0037001642A80045
:10ED000000C525001000E80080E28A0030012000E4
:10ED100060E28A0000000600E0C4250010007800D0
:10ED20006800600005003200C0C425000008EB0048
:10ED3000000006000001200060E28A0000000600DA
:10ED40008180FB00B1E28A00C0E28A0092E28A0080
:10ED500070E282000000A1000020A10070E28A00A1
:10ED6000C0C425000008EB000100370013FF0700B6
:10ED7000E0C425001000780064006000FBFF320052
:10ED800070E282000000D100610060000000060017
:10ED900042862500610060004200DD00920078009C
:10EDA0000120A10000897000000006004200FA0066
:10EDB000889FBE001000200072ED02007F0000005E
:10EDC000810F20000000E0005200320021002000EE
:10EDD000A0FB2F000F004000A8ED02007F00000004
:10EDE000E0852500BF78970001487800F085250070
:10EDF0002F79970002487800F0C28200E20F50009D
:10EE00002B003200E30F50002D003A0021002000BB
:10EE1000A0FB2F000F004000A8ED02007F000000C3
:10EE2000218625003F7897008048780030862500AD
:10EE30002F79970002487800008625001000E8002E
:10EE4000910F50002F003E001000200072ED0200D4
:10EE50007F00000000047800F01F2000800F5400A5
:10EE600004003E0020C382000000A00020C38A00EE
:10EE70000700370009202000890F540004003600E5
:10EE800000112D0090FF02007F00000009047800AF
:10EE90008800780060862500A8ED02007F00000051
:10EEA0008800780060862500ACE302007F00000047
:10EEB00020C382000010A00020C38A001100370088
:10EEC000C0FB2F0000844700020420008000EB00FC
:10EED000080078001CC102007F0000005E58F800A6
:10EEE000B1122D00811F7800080078007CC102005B
:10EEF0007F0000000800780090FF02007F00000003
:10EF0000E4875700CAED02007F000000F0C28200D3
:10EF10008080FB00010078004F04BE000080FA00F2
:10EF2000000006003200FA00889FBE00D1C28200B5
:10EF3000F08F50001600320003003E000100E00098
:10EF4000080032004C00370008022000888F500073
:10EF50002700320000032000808F500046003A0056
:10EF600018003700530420000301780011C0B300DB
:10EF700010002000E2EB02007F000000C1852500A8
:10EF800080487800E14F40005D00320053003700B8
:10EF900086FF0700E24F500059003A0080D88200F7
:10EFA0000000A1000010A00080D88A000086250083
:10EFB0000008EB00208625000008EB00000220007E
:10EFC0004700370079FF0700E34F50004C003A003C
:10EFD000D8C28A0002A32100E311200040C7250007
:10EFE00058FF02007F000000D0C2820090E38A0038
:10EFF00049862500190078006404600040003A004A
:10F000001000200030EC02007F0000000000E00053
:10F010003B0032000840780060EC02007F000000F6
:10F0200040C0B30060EC02007F0000003086250085
:10F030001040780060EC02007F0000002086250070
:10F040001040780060EC02007F00000006ED020036
:10F050007F00000010C3820000C38A00990478007A
:10F06000618064000101200001003A0001032000DA
:10F07000D1C28A001B0037001000200030EC0200D3
:10F080007F0000000000E0001D0032000040EB00A7
:10F0900060EC02007F00000050C0B30060EC020092
:10F0A0007F0000000040EB0060EC02007F000000E9
:10F0B0000040EB0060EC02007F00000080142D0097
:10F0C000F0EC02007F00000006ED02007F0000006F
:10F0D000E0152D0090FF02007F00000000012000DD
:10F0E000D0C28A0002A32100E311200040C72500FE
:10F0F00058FF02007F000000D0C2820090E38A0027
:10F10000A08525001000E00027003200A0E3820067
:10F11000B1E38200E00F5000E08F5800220032007F
:10F1200040C7250062FF02007F0000000004E000ED
:10F130001D003200A1FC2F008F804000D0C2820051
:10F140006AFE02007F00000070172D0090FF020091
:10F150007F000000A0FC2F000F00400090FF020085
:10F160007F00000070192D0090FF02007F0000005A
:10F1700000122A0071002000000000006100500011
:10F18000E0805800FCFF3A00A08525000008EB0055
:10F19000C085250000C8EB00BEE302007F00000030
:10F1A000DCEE02007F0000004F04BE000080FA0089
:10F1B0000000060010007800D2FE04007F0000006E
:10F1C00010009000D2FE04007F000000100020001C
:10F1D00020A98A00100020000100200040A98A0018
:10F1E00051A98A00000006008800FA00889FBE002E
:10F1F0008A1F780020A98200E20F5000060032002A
:10F20000E30F500010003200E10F5000B1003A004F
:10F210002000200020A98A0073E42E0062E42E0062
:10F2200011C0B30030002000E2EB02007F000000BC
:10F230006152250080487800E14F4000A70032006D
:10F240003000200020A98A00605225001080FB00B9
:10F2500072ED02007F000000800078000000E000F6
:10F260009E003200F03F2000808F500001003600E9
:10F270000140200040122500A8ED02007F000000A0
:10F2800040122500CBFF0700000478005006200044
:10F29000800F54008B003A0040122500C8FF070081
:10F2A000E20F500087003A0020898200D2FE02005F
:10F2B0007F0000000005EB00880F500004003A00BA
:10F2C00040898200D2FE02007F0000000005780025
:10F2D0008A00E90030022000808F500079003E0053
:10F2E00075003700A0122500B2FF07000004780067
:10F2F000A0122500B2FF0700E0062000800F540096
:10F30000660032000000E800800F54000200320066
:10F310000005EB00680037003000200030EC0200F0
:10F320007F0000000000E000630032000240200087
:10F330008000EB00401225001CC102007F0000008D
:10F34000903E2000D2FE02007F00000020898A004B
:10F3500020002000D2FE02007F00000030898A00D9
:10F3600020002000D2FE02007F000000A03F9F008E
:10F3700080122500CFF0960001487800DFF096005B
:10F3800011409800203F2000D2FE02007F000000C4
:10F3900050898A0020002000D2FE02007F00000079
:10F3A00060898A0020002000D2FE02007F00000059
:10F3B000CF80DE00B03F9F00C13F9F00E0122500DC
:10F3C000EFF0960001487800FFF096001140980099
:10F3D000A0F72F0000844700020820008000EB0007
:10F3E000080078001CC102007F00000091B02500D9
:10F3F000080078003CC102007F000000080078008F
:10F400004CC102007F00000080047800303F2000E3
:10F41000D2FE02007F00000080898A0063804400E1
:10F42000D2FE02007F00000090898A000900780067
:10F43000D2FE02007F000000903F9F004013250095
:10F44000AFF0960001487800BFF096001140980098
:10F450000901E80088007800601325000CC1020053
:10F460007F000000F38044000108A3000100320087
:10F47000F480440040122500C4EC02007F0000002C
:10F4800060E42E00D0DC8A0006ED02007F00000060
:10F49000CAED02007F0000000700370000122A00BA
:10F4A000710020000000000061005000E080580062
:10F4B000FCFF3A000000FE000A05E900E10F4500EC
:10F4C00088FF3A00CAED02007F00000030002000F3
:10F4D000010037001000200020A98A004F057800A5
:10F4E0004F04BE000080FA00000006000200FA008F
:10F4F000889FBE008A9FBE000005BE00820478007F
:10F5000000102000419224000100500000844500BA
:10F51000160037000801780011C0B3006A80570058
:10F52000A0F602007F0000006FF09700004D780009
:10F530000801E8008984E9000900E8004240A900C8
:10F540000C00340011C0B30069805700A0F602001F
:10F550007F0000007FF09700104598003FB89700AB
:10F56000801D78000A85E8000884E8000900E000B2
:10F57000E8FF3C004F05BE004F04BE000080FA00CB
:10F58000000006000200FA00889FBE008A9FBE00AD
:10F5900080057800020578008184E8001040900022
:10F5A0000080FB00E1F52C000100400010447800D1
:10F5B0001000370022002000890078006A80570080
:10F5C000CAFF0700EFF0970001406C000080FB00CD
:10F5D000E2F52C0002004000FFF0970090C06800A8
:10F5E0008180FB0082804000114478008984E8001B
:10F5F0000A85E9000A00E000EEFF3C009B4F540042
:10F600000200320000C0EB00904598004F05BE009C
:10F610004F04BE000080FA0000000600E14F5000D9
:10F620000700320003003900E24F50000A003A00A0
:10F6300006003700E1CF500007003A000500370010
:10F64000E2CF500004003A00020037000104E0005D
:10F6500001003A0000000500100005000400FA0057
:10F66000889FBE008A9FBE008C1F7800000678002D
:10F67000810478000204780003057800EC855700C7
:10F68000220020000B00780098FF070022002000D5
:10F69000880078006E80570094FF07000A01780008
:10F6A000890078000B007800B6FF07000A01780097
:10F6B000880078006E805700B2FF0700BFF0970007
:10F6C0005FF09700D5FF07000004E00003003A0058
:10F6D000080178006E8057000200370009017800A9
:10F6E0000B007800104090008000EB00E14F4000DC
:10F6F000050032008280E8000A0178000C007800E2
:10F700007AFF070011002000010078004F06780002
:10F710004F05BE004F04BE000080FA000000060046
:10F720002300200042A2240041922400CBFF0700C6
:10F730000080FB0000000600C300200082A224001D
:10F7400081922400C5FF07000080FB000000060036
:10F750006300200062A3240061932400BFFF070020
:10F760000080FB000000060023002000E2A324002C
:10F77000E1932400B9FF07000080FB0000000600B1
:10F780004300200022A4240021942400B3FF07009A
:10F790000080FB00000006004300200082A424003B
:10F7A00081942400ADFF07000080FB0000000600EC
:10F7B00043002000E2A42400E1942400A7FF0700F6
:10F7C0000080FB00000006002300200042A6240069
:10F7D00041962400A1FF07000080FB000000060006
:10F7E00023002000A2B02400A1A024009BFF07005A
:10F7F0000080FB000000060043012000E2B024006E
:10F80000E1A0240095FF07000080FB000000060037
:10F810006EF404007F00000001C825009180FB0009
:10F8200001004000AAD604007F000000881F780075
:10F830000004780010009000D2FE02007F0000005B
:10F840001004980028009000D2FE02007F00000003
:10F850002004980058009000D2FE02007F000000B3
:10F86000500498004F047800000006001400FA00CD
:10F87000889FBE008A1F7800000478008204780008
:10F8800042C1B30000C825000248780050C4B3004C
:10F89000E0E79F000040EB00F0E79F00F4844400A5
:10F8A000C9B79F00F0E382000000E800F0E38A009F
:10F8B000D0B79F000005EB00EAB79F0040C6B30039
:10F8C000E0EF9F00F1EF9F008ABF9F0020B125006D
:10F8D0009080FB0030B125001080FB004800DD0067
:10F8E0000101700040B125009080FB0050B125005F
:10F8F0001080FB004800DD008101700092BF9F0076
:10F90000A3BF9F009880FB00184090004800DD00D6
:10F9100001017000A84090008180FB0038409000F9
:10F920004800DD0081017000B2BF9F00C3BF9F008F
:10F930007A805700BDFF0700410120007A80570000
:10F9400006FF02007F00000080BF9F0064044400A7
:10F950000901780011C0B3000800780046D6020003
:10F960007F000000410120007A805700A4D70200E8
:10F970007F0000000A0078004F0578004F04BE00A9
:10F980000080FA00000006001400FA00889FBE0004
:10F990008A9FBE008C9FBE0080057800810478009D
:10F9A0000206BE004101200000FE2F000F004000B3
:10F9B0006CD702007F0000000FE197008200780002
:10F9C000010FB20000042000808F500028003A0090
:10F9D000BFB09700F0F12F000080600024003A00D3
:10F9E000EF406100C208DD000AC82500014D780023
:10F9F0008180FB00FCD602007F000000000478003C
:10FA00001A80FB00AAD602007F0000000800E00078
:10FA100017003A0000FE2F000F00400083FF070090
:10FA20000B00E000030032000FB897009FB897006A
:10FA3000808DBE006FB09700804C78004800DE00DB
:10FA4000904498007FB09700A04498004800DE00E2
:10FA5000B04498009FE89700014E78009A80FB0020
:10FA60001FB09700810E50001000200001003700E9
:10FA70000000EB004F06BE004F05BE004F04BE0065
:10FA80000080FA0000000600881F7800000478005B
:10FA900010007800D2FE02007F000000000C780009
:10FAA00018009000D2FE02007F00000010049800B1
:10FAB00038009000D2FE02007F0000003004980061
:10FAC0004F047800000006001C00FA00889FBE006A
:10FAD0008A1F7800D0E282000000E00003003200BC
:10FAE000E10F500073003A0030003700C1012000E0
:10FAF000E0FD2F000F0040006CD702007F000000E7
:10FB0000A2D402007F000000E0FD2F000F004000A3
:10FB1000DDFF07007FA89700E10F500067003A0063
:10FB20009FB0970060402000808F500063003A0033
:10FB30002FB29700E10F52001C003A0020B12500BF
:10FB40009080FB0030B125001080FB004800DD00F4
:10FB50000101700040B125009080FB0050B12500EC
:10FB60001080FB004800DD00810170003FB8970065
:10FB7000CFB89700820F5000838F58004F003A0093
:10FB80006FB09700FFB09700E0E28A00F1E28A00D0
:10FB90003FB09700CFB0970000E38A0011E38A00DE
:10FBA000DFB0970021E38A00D4E28A002A00200017
:10FBB000AAB79F00F084570000E3820011E382009F
:10FBC000808CBE0021E38200A1BF9F00E0E28200A2
:10FBD000F1E28200B0BF9F00C1BF9F0092D402003B
:10FBE0007F0000008000EB000004E00034003200E1
:10FBF0000000EB00C4D602007F00000018002000C7
:10FC0000F8AF9F000080200080B79F0060C0B30065
:10FC1000A0E79F0040C0B300B0E79F007A80570084
:10FC2000F1B3250005000900315878006000B100EB
:10FC300020B125009080FB0030B125001080FB0032
:10FC40004800DD000101700040B125009080FB00FC
:10FC500050B125001080FB004800DD0081017000DC
:10FC6000E2B79F00F3B79F00E0FD2F000F004000B8
:10FC700085FF0700C20120008A4078000900780053
:10FC800046D602007F000000C1012000E0FD2F00E9
:10FC90000F004000A4D702007F00000098D60200A9
:10FCA0007F0000000000EB00D0E28A0088007800AE
:10FCB000030037000000EB00D0E28A0011002000B2
:10FCC000010078004F0578004F04BE000080FA0064
:10FCD00000000600800178000000E0001A003200F9
:10FCE0000043EB000471220055C0B300A7002000C0
:10FCF000811F7800110009008481D800000178007C
:10FD0000CF0078000200E00002003A000604E000A4
:10FD10000500320000C3B300805841008410B800D1
:10FD20008081510016C0B300811F780011000900C6
:10FD30000782D80000027800CF0078008542E900F1
:10FD400003003200EAFF370000C3B3008058780098
:10FD50008048EB00000006000080FB004400DE004D
:10FD6000E94F5000030036007043B0000080FB00F4
:10FD7000000006000043B0000080FB000000060009
:10FD80006F406000E94F5000030036007043B00040
:10FD90000080FB00000006000043B0000080FB0074
:10FDA000000006004801DE0001F02F0081806000A5
:10FDB000828070004800DD008180FB008080700040
:10FDC00001007800000006006011B800480ADE005B
:10FDD00006F02F000601610004017100480ADD00F1
:10FDE000F50F200005016100040171004802DE00EA
:10FDF00086816100848171004800DD008581610099
:10FE0000808171000200BE00000006000002780040
:10FE10006011B800040037008180E90034007800E8
:10FE200000014100E0814900E18F5000FAFF3E00EF
:10FE30000100E00005003200144078000080FB0063
:10FE40000100200002014000838148006118B800D1
:10FE500002004000E0804800010040000080EA000D
:10FE60000000060080032000F00888000080EB00FE
:10FE7000D0088800E00888000000EB00B008880087
:10FE8000A00888001FE1A80000000600A00880006C
:10FE9000B108800000000600A2088000B3088000BE
:10FEA00000015100818159000200BE0000000600DF
:10FEB000A4088000B50880000218420003904A00A0
:10FEC00000000600A2088000B30880000002EB00DA
:10FED00030035100A0835900E0FF2F00F1FF2700FD
:10FEE000800F5300818F5B0001003E001400200052
:10FEF00004007800000006000000EB00901188006C
:10FF00008011880000042000C01188003162A80020
:10FF100030E2A80031E2A8003342A8000000060049
:10FF2000800078000900370033C2BF000018A3002A
:10FF3000FDFF3A000200FB00A01188008100E800EC
:10FF400033C2BF000018A300FDFF3A001141780042
:10FF50000204E000F4FF3A0000000600FFFFFF008B
:10FFE000FFFFFF00FFFFFF0028000000A10000004E
:10FFF000C8C07F00FFFFFF0000C004007F000000BA
:0200000401F009
:04000800CFFF000026
:04000C007BFF000076
:0400100099FF000054
:04001400CDFF00001C
:04001800D0FF000015
:04001C00DBFF000006
:04002000FEFF0000DF
:0400240070710000F7
:00000001FF
